{
  "_format": "hh-sol-artifact-1",
  "contractName": "NFTTicket",
  "sourceName": "contracts/NFTTicket.sol",
  "abi": [
    {
      "inputs": [],
      "stateMutability": "nonpayable",
      "type": "constructor"
    },
    {
      "inputs": [
        {
          "internalType": "address",
          "name": "sender",
          "type": "address"
        },
        {
          "internalType": "uint256",
          "name": "tokenId",
          "type": "uint256"
        },
        {
          "internalType": "address",
          "name": "owner",
          "type": "address"
        }
      ],
      "name": "ERC721IncorrectOwner",
      "type": "error"
    },
    {
      "inputs": [
        {
          "internalType": "address",
          "name": "operator",
          "type": "address"
        },
        {
          "internalType": "uint256",
          "name": "tokenId",
          "type": "uint256"
        }
      ],
      "name": "ERC721InsufficientApproval",
      "type": "error"
    },
    {
      "inputs": [
        {
          "internalType": "address",
          "name": "approver",
          "type": "address"
        }
      ],
      "name": "ERC721InvalidApprover",
      "type": "error"
    },
    {
      "inputs": [
        {
          "internalType": "address",
          "name": "operator",
          "type": "address"
        }
      ],
      "name": "ERC721InvalidOperator",
      "type": "error"
    },
    {
      "inputs": [
        {
          "internalType": "address",
          "name": "owner",
          "type": "address"
        }
      ],
      "name": "ERC721InvalidOwner",
      "type": "error"
    },
    {
      "inputs": [
        {
          "internalType": "address",
          "name": "receiver",
          "type": "address"
        }
      ],
      "name": "ERC721InvalidReceiver",
      "type": "error"
    },
    {
      "inputs": [
        {
          "internalType": "address",
          "name": "sender",
          "type": "address"
        }
      ],
      "name": "ERC721InvalidSender",
      "type": "error"
    },
    {
      "inputs": [
        {
          "internalType": "uint256",
          "name": "tokenId",
          "type": "uint256"
        }
      ],
      "name": "ERC721NonexistentToken",
      "type": "error"
    },
    {
      "inputs": [
        {
          "internalType": "address",
          "name": "owner",
          "type": "address"
        }
      ],
      "name": "OwnableInvalidOwner",
      "type": "error"
    },
    {
      "inputs": [
        {
          "internalType": "address",
          "name": "account",
          "type": "address"
        }
      ],
      "name": "OwnableUnauthorizedAccount",
      "type": "error"
    },
    {
      "inputs": [],
      "name": "ReentrancyGuardReentrantCall",
      "type": "error"
    },
    {
      "anonymous": false,
      "inputs": [
        {
          "indexed": true,
          "internalType": "address",
          "name": "owner",
          "type": "address"
        },
        {
          "indexed": true,
          "internalType": "address",
          "name": "approved",
          "type": "address"
        },
        {
          "indexed": true,
          "internalType": "uint256",
          "name": "tokenId",
          "type": "uint256"
        }
      ],
      "name": "Approval",
      "type": "event"
    },
    {
      "anonymous": false,
      "inputs": [
        {
          "indexed": true,
          "internalType": "address",
          "name": "owner",
          "type": "address"
        },
        {
          "indexed": true,
          "internalType": "address",
          "name": "operator",
          "type": "address"
        },
        {
          "indexed": false,
          "internalType": "bool",
          "name": "approved",
          "type": "bool"
        }
      ],
      "name": "ApprovalForAll",
      "type": "event"
    },
    {
      "anonymous": false,
      "inputs": [
        {
          "indexed": false,
          "internalType": "uint256",
          "name": "_fromTokenId",
          "type": "uint256"
        },
        {
          "indexed": false,
          "internalType": "uint256",
          "name": "_toTokenId",
          "type": "uint256"
        }
      ],
      "name": "BatchMetadataUpdate",
      "type": "event"
    },
    {
      "anonymous": false,
      "inputs": [
        {
          "indexed": true,
          "internalType": "uint256",
          "name": "eventId",
          "type": "uint256"
        },
        {
          "indexed": true,
          "internalType": "address",
          "name": "organiser",
          "type": "address"
        },
        {
          "indexed": false,
          "internalType": "string",
          "name": "ipfsHash",
          "type": "string"
        }
      ],
      "name": "EventCreated",
      "type": "event"
    },
    {
      "anonymous": false,
      "inputs": [
        {
          "indexed": true,
          "internalType": "uint256",
          "name": "eventId",
          "type": "uint256"
        },
        {
          "indexed": false,
          "internalType": "uint24",
          "name": "newMaxTickets",
          "type": "uint24"
        },
        {
          "indexed": false,
          "internalType": "uint40",
          "name": "newPriceWei",
          "type": "uint40"
        }
      ],
      "name": "EventUpdated",
      "type": "event"
    },
    {
      "anonymous": false,
      "inputs": [
        {
          "indexed": true,
          "internalType": "uint256",
          "name": "tokenId",
          "type": "uint256"
        }
      ],
      "name": "ListingCancelled",
      "type": "event"
    },
    {
      "anonymous": false,
      "inputs": [
        {
          "indexed": false,
          "internalType": "uint256",
          "name": "_tokenId",
          "type": "uint256"
        }
      ],
      "name": "MetadataUpdate",
      "type": "event"
    },
    {
      "anonymous": false,
      "inputs": [
        {
          "indexed": true,
          "internalType": "address",
          "name": "previousOwner",
          "type": "address"
        },
        {
          "indexed": true,
          "internalType": "address",
          "name": "newOwner",
          "type": "address"
        }
      ],
      "name": "OwnershipTransferred",
      "type": "event"
    },
    {
      "anonymous": false,
      "inputs": [
        {
          "indexed": true,
          "internalType": "uint256",
          "name": "tokenId",
          "type": "uint256"
        },
        {
          "indexed": true,
          "internalType": "address",
          "name": "seller",
          "type": "address"
        },
        {
          "indexed": false,
          "internalType": "uint48",
          "name": "priceWei",
          "type": "uint48"
        }
      ],
      "name": "TicketListed",
      "type": "event"
    },
    {
      "anonymous": false,
      "inputs": [
        {
          "indexed": true,
          "internalType": "uint256",
          "name": "tokenId",
          "type": "uint256"
        },
        {
          "indexed": true,
          "internalType": "uint256",
          "name": "eventId",
          "type": "uint256"
        },
        {
          "indexed": true,
          "internalType": "address",
          "name": "buyer",
          "type": "address"
        },
        {
          "indexed": false,
          "internalType": "uint8",
          "name": "tier",
          "type": "uint8"
        }
      ],
      "name": "TicketMinted",
      "type": "event"
    },
    {
      "anonymous": false,
      "inputs": [
        {
          "indexed": true,
          "internalType": "uint256",
          "name": "tokenId",
          "type": "uint256"
        },
        {
          "indexed": true,
          "internalType": "address",
          "name": "oldOwner",
          "type": "address"
        },
        {
          "indexed": true,
          "internalType": "address",
          "name": "newOwner",
          "type": "address"
        },
        {
          "indexed": false,
          "internalType": "uint48",
          "name": "priceWei",
          "type": "uint48"
        }
      ],
      "name": "TicketResold",
      "type": "event"
    },
    {
      "anonymous": false,
      "inputs": [
        {
          "indexed": true,
          "internalType": "address",
          "name": "from",
          "type": "address"
        },
        {
          "indexed": true,
          "internalType": "address",
          "name": "to",
          "type": "address"
        },
        {
          "indexed": true,
          "internalType": "uint256",
          "name": "tokenId",
          "type": "uint256"
        }
      ],
      "name": "Transfer",
      "type": "event"
    },
    {
      "inputs": [
        {
          "internalType": "address",
          "name": "to",
          "type": "address"
        },
        {
          "internalType": "uint256",
          "name": "tokenId",
          "type": "uint256"
        }
      ],
      "name": "approve",
      "outputs": [],
      "stateMutability": "nonpayable",
      "type": "function"
    },
    {
      "inputs": [
        {
          "internalType": "address",
          "name": "owner",
          "type": "address"
        }
      ],
      "name": "balanceOf",
      "outputs": [
        {
          "internalType": "uint256",
          "name": "",
          "type": "uint256"
        }
      ],
      "stateMutability": "view",
      "type": "function"
    },
    {
      "inputs": [
        {
          "internalType": "uint256",
          "name": "eventId",
          "type": "uint256"
        },
        {
          "internalType": "uint8[]",
          "name": "tiers",
          "type": "uint8[]"
        },
        {
          "internalType": "uint24[]",
          "name": "quantities",
          "type": "uint24[]"
        }
      ],
      "name": "buyBatchTickets",
      "outputs": [],
      "stateMutability": "payable",
      "type": "function"
    },
    {
      "inputs": [
        {
          "internalType": "uint256",
          "name": "tokenId",
          "type": "uint256"
        }
      ],
      "name": "buyResaleTicket",
      "outputs": [],
      "stateMutability": "payable",
      "type": "function"
    },
    {
      "inputs": [
        {
          "internalType": "uint256",
          "name": "eventId",
          "type": "uint256"
        },
        {
          "internalType": "uint24",
          "name": "quantity",
          "type": "uint24"
        },
        {
          "internalType": "uint8",
          "name": "tier",
          "type": "uint8"
        }
      ],
      "name": "buyTicket",
      "outputs": [],
      "stateMutability": "payable",
      "type": "function"
    },
    {
      "inputs": [
        {
          "internalType": "uint256",
          "name": "tokenId",
          "type": "uint256"
        }
      ],
      "name": "cancelResaleListing",
      "outputs": [],
      "stateMutability": "nonpayable",
      "type": "function"
    },
    {
      "inputs": [
        {
          "internalType": "string",
          "name": "ipfsHash",
          "type": "string"
        },
        {
          "internalType": "uint24",
          "name": "maxTickets",
          "type": "uint24"
        },
        {
          "internalType": "uint40",
          "name": "priceWei",
          "type": "uint40"
        },
        {
          "internalType": "uint8",
          "name": "royaltyBps",
          "type": "uint8"
        },
        {
          "internalType": "uint8[]",
          "name": "tierIds",
          "type": "uint8[]"
        },
        {
          "internalType": "uint24[]",
          "name": "tierSupplies",
          "type": "uint24[]"
        }
      ],
      "name": "createEvent",
      "outputs": [],
      "stateMutability": "nonpayable",
      "type": "function"
    },
    {
      "inputs": [
        {
          "internalType": "uint256",
          "name": "eventId",
          "type": "uint256"
        },
        {
          "internalType": "uint24",
          "name": "newMaxTickets",
          "type": "uint24"
        },
        {
          "internalType": "uint40",
          "name": "newPriceWei",
          "type": "uint40"
        },
        {
          "internalType": "uint8[]",
          "name": "tierIds",
          "type": "uint8[]"
        },
        {
          "internalType": "uint24[]",
          "name": "tierSupplies",
          "type": "uint24[]"
        }
      ],
      "name": "editEvent",
      "outputs": [],
      "stateMutability": "nonpayable",
      "type": "function"
    },
    {
      "inputs": [
        {
          "internalType": "uint256",
          "name": "",
          "type": "uint256"
        }
      ],
      "name": "events",
      "outputs": [
        {
          "internalType": "address",
          "name": "organiser",
          "type": "address"
        },
        {
          "internalType": "uint40",
          "name": "priceWei",
          "type": "uint40"
        },
        {
          "internalType": "uint24",
          "name": "maxTickets",
          "type": "uint24"
        },
        {
          "internalType": "uint24",
          "name": "ticketsSold",
          "type": "uint24"
        },
        {
          "internalType": "uint8",
          "name": "royaltyBps",
          "type": "uint8"
        }
      ],
      "stateMutability": "view",
      "type": "function"
    },
    {
      "inputs": [
        {
          "internalType": "uint256",
          "name": "eventId",
          "type": "uint256"
        }
      ],
      "name": "fetchEventData",
      "outputs": [
        {
          "components": [
            {
              "internalType": "address",
              "name": "organiser",
              "type": "address"
            },
            {
              "internalType": "uint40",
              "name": "priceWei",
              "type": "uint40"
            },
            {
              "internalType": "uint24",
              "name": "maxTickets",
              "type": "uint24"
            },
            {
              "internalType": "uint24",
              "name": "ticketsSold",
              "type": "uint24"
            },
            {
              "internalType": "uint8",
              "name": "royaltyBps",
              "type": "uint8"
            }
          ],
          "internalType": "struct NFTTicket.Event",
          "name": "",
          "type": "tuple"
        }
      ],
      "stateMutability": "view",
      "type": "function"
    },
    {
      "inputs": [
        {
          "internalType": "uint256",
          "name": "tokenId",
          "type": "uint256"
        }
      ],
      "name": "getApproved",
      "outputs": [
        {
          "internalType": "address",
          "name": "",
          "type": "address"
        }
      ],
      "stateMutability": "view",
      "type": "function"
    },
    {
      "inputs": [
        {
          "internalType": "uint256",
          "name": "tokenId",
          "type": "uint256"
        }
      ],
      "name": "getResaleListing",
      "outputs": [
        {
          "components": [
            {
              "internalType": "address",
              "name": "seller",
              "type": "address"
            },
            {
              "internalType": "uint48",
              "name": "priceWei",
              "type": "uint48"
            },
            {
              "internalType": "bool",
              "name": "active",
              "type": "bool"
            }
          ],
          "internalType": "struct NFTTicket.ResaleListing",
          "name": "",
          "type": "tuple"
        }
      ],
      "stateMutability": "view",
      "type": "function"
    },
    {
      "inputs": [
        {
          "internalType": "uint256",
          "name": "eventId",
          "type": "uint256"
        },
        {
          "internalType": "uint8",
          "name": "tier",
          "type": "uint8"
        }
      ],
      "name": "getTierData",
      "outputs": [
        {
          "internalType": "uint24",
          "name": "sold",
          "type": "uint24"
        },
        {
          "internalType": "uint24",
          "name": "max",
          "type": "uint24"
        }
      ],
      "stateMutability": "view",
      "type": "function"
    },
    {
      "inputs": [
        {
          "internalType": "uint256",
          "name": "tokenId",
          "type": "uint256"
        }
      ],
      "name": "getTokenPurchasePrice",
      "outputs": [
        {
          "internalType": "uint48",
          "name": "",
          "type": "uint48"
        }
      ],
      "stateMutability": "view",
      "type": "function"
    },
    {
      "inputs": [
        {
          "internalType": "address",
          "name": "owner",
          "type": "address"
        },
        {
          "internalType": "address",
          "name": "operator",
          "type": "address"
        }
      ],
      "name": "isApprovedForAll",
      "outputs": [
        {
          "internalType": "bool",
          "name": "",
          "type": "bool"
        }
      ],
      "stateMutability": "view",
      "type": "function"
    },
    {
      "inputs": [
        {
          "internalType": "uint256",
          "name": "tokenId",
          "type": "uint256"
        },
        {
          "internalType": "uint48",
          "name": "priceWei",
          "type": "uint48"
        }
      ],
      "name": "listForResale",
      "outputs": [],
      "stateMutability": "nonpayable",
      "type": "function"
    },
    {
      "inputs": [],
      "name": "name",
      "outputs": [
        {
          "internalType": "string",
          "name": "",
          "type": "string"
        }
      ],
      "stateMutability": "view",
      "type": "function"
    },
    {
      "inputs": [],
      "name": "nextEventId",
      "outputs": [
        {
          "internalType": "uint256",
          "name": "",
          "type": "uint256"
        }
      ],
      "stateMutability": "view",
      "type": "function"
    },
    {
      "inputs": [],
      "name": "nextTokenId",
      "outputs": [
        {
          "internalType": "uint256",
          "name": "",
          "type": "uint256"
        }
      ],
      "stateMutability": "view",
      "type": "function"
    },
    {
      "inputs": [],
      "name": "owner",
      "outputs": [
        {
          "internalType": "address",
          "name": "",
          "type": "address"
        }
      ],
      "stateMutability": "view",
      "type": "function"
    },
    {
      "inputs": [
        {
          "internalType": "uint256",
          "name": "tokenId",
          "type": "uint256"
        }
      ],
      "name": "ownerOf",
      "outputs": [
        {
          "internalType": "address",
          "name": "",
          "type": "address"
        }
      ],
      "stateMutability": "view",
      "type": "function"
    },
    {
      "inputs": [],
      "name": "renounceOwnership",
      "outputs": [],
      "stateMutability": "nonpayable",
      "type": "function"
    },
    {
      "inputs": [
        {
          "internalType": "uint256",
          "name": "",
          "type": "uint256"
        }
      ],
      "name": "resaleListings",
      "outputs": [
        {
          "internalType": "address",
          "name": "seller",
          "type": "address"
        },
        {
          "internalType": "uint48",
          "name": "priceWei",
          "type": "uint48"
        },
        {
          "internalType": "bool",
          "name": "active",
          "type": "bool"
        }
      ],
      "stateMutability": "view",
      "type": "function"
    },
    {
      "inputs": [
        {
          "internalType": "uint256",
          "name": "tokenId",
          "type": "uint256"
        },
        {
          "internalType": "uint256",
          "name": "salePrice",
          "type": "uint256"
        }
      ],
      "name": "royaltyInfo",
      "outputs": [
        {
          "internalType": "address",
          "name": "receiver",
          "type": "address"
        },
        {
          "internalType": "uint256",
          "name": "royaltyAmount",
          "type": "uint256"
        }
      ],
      "stateMutability": "view",
      "type": "function"
    },
    {
      "inputs": [
        {
          "internalType": "address",
          "name": "from",
          "type": "address"
        },
        {
          "internalType": "address",
          "name": "to",
          "type": "address"
        },
        {
          "internalType": "uint256",
          "name": "tokenId",
          "type": "uint256"
        }
      ],
      "name": "safeTransferFrom",
      "outputs": [],
      "stateMutability": "nonpayable",
      "type": "function"
    },
    {
      "inputs": [
        {
          "internalType": "address",
          "name": "from",
          "type": "address"
        },
        {
          "internalType": "address",
          "name": "to",
          "type": "address"
        },
        {
          "internalType": "uint256",
          "name": "tokenId",
          "type": "uint256"
        },
        {
          "internalType": "bytes",
          "name": "data",
          "type": "bytes"
        }
      ],
      "name": "safeTransferFrom",
      "outputs": [],
      "stateMutability": "nonpayable",
      "type": "function"
    },
    {
      "inputs": [
        {
          "internalType": "address",
          "name": "operator",
          "type": "address"
        },
        {
          "internalType": "bool",
          "name": "approved",
          "type": "bool"
        }
      ],
      "name": "setApprovalForAll",
      "outputs": [],
      "stateMutability": "nonpayable",
      "type": "function"
    },
    {
      "inputs": [
        {
          "internalType": "bytes4",
          "name": "interfaceId",
          "type": "bytes4"
        }
      ],
      "name": "supportsInterface",
      "outputs": [
        {
          "internalType": "bool",
          "name": "",
          "type": "bool"
        }
      ],
      "stateMutability": "view",
      "type": "function"
    },
    {
      "inputs": [],
      "name": "symbol",
      "outputs": [
        {
          "internalType": "string",
          "name": "",
          "type": "string"
        }
      ],
      "stateMutability": "view",
      "type": "function"
    },
    {
      "inputs": [
        {
          "internalType": "uint256",
          "name": "",
          "type": "uint256"
        },
        {
          "internalType": "uint8",
          "name": "",
          "type": "uint8"
        }
      ],
      "name": "tierMaxTickets",
      "outputs": [
        {
          "internalType": "uint24",
          "name": "",
          "type": "uint24"
        }
      ],
      "stateMutability": "view",
      "type": "function"
    },
    {
      "inputs": [
        {
          "internalType": "uint256",
          "name": "",
          "type": "uint256"
        },
        {
          "internalType": "uint8",
          "name": "",
          "type": "uint8"
        }
      ],
      "name": "tierTicketsSold",
      "outputs": [
        {
          "internalType": "uint24",
          "name": "",
          "type": "uint24"
        }
      ],
      "stateMutability": "view",
      "type": "function"
    },
    {
      "inputs": [
        {
          "internalType": "uint256",
          "name": "",
          "type": "uint256"
        }
      ],
      "name": "tokenPurchasePrice",
      "outputs": [
        {
          "internalType": "uint48",
          "name": "",
          "type": "uint48"
        }
      ],
      "stateMutability": "view",
      "type": "function"
    },
    {
      "inputs": [
        {
          "internalType": "uint256",
          "name": "",
          "type": "uint256"
        }
      ],
      "name": "tokenToEvent",
      "outputs": [
        {
          "internalType": "uint256",
          "name": "",
          "type": "uint256"
        }
      ],
      "stateMutability": "view",
      "type": "function"
    },
    {
      "inputs": [
        {
          "internalType": "uint256",
          "name": "",
          "type": "uint256"
        }
      ],
      "name": "tokenToTier",
      "outputs": [
        {
          "internalType": "uint8",
          "name": "",
          "type": "uint8"
        }
      ],
      "stateMutability": "view",
      "type": "function"
    },
    {
      "inputs": [
        {
          "internalType": "uint256",
          "name": "tokenId",
          "type": "uint256"
        }
      ],
      "name": "tokenURI",
      "outputs": [
        {
          "internalType": "string",
          "name": "",
          "type": "string"
        }
      ],
      "stateMutability": "view",
      "type": "function"
    },
    {
      "inputs": [
        {
          "internalType": "address",
          "name": "from",
          "type": "address"
        },
        {
          "internalType": "address",
          "name": "to",
          "type": "address"
        },
        {
          "internalType": "uint256",
          "name": "tokenId",
          "type": "uint256"
        }
      ],
      "name": "transferFrom",
      "outputs": [],
      "stateMutability": "nonpayable",
      "type": "function"
    },
    {
      "inputs": [
        {
          "internalType": "address",
          "name": "newOwner",
          "type": "address"
        }
      ],
      "name": "transferOwnership",
      "outputs": [],
      "stateMutability": "nonpayable",
      "type": "function"
    }
  ],
  "bytecode": "0x608060405260016008556001600955348015610019575f5ffd5b50336040518060400160405280600e81526020016d139195115d995b9d151a58dad95d60921b8152506040518060400160405280600581526020016409c8aa892b60db1b815250815f908161006e91906101de565b50600161007b82826101de565b50505060016100946100916100d160201b60201c565b90565b556001600160a01b0381166100c257604051631e4fbdf760e01b81525f600482015260240160405180910390fd5b6100cb816100f5565b50610298565b7f9b779b17422d0df92223018b32b4d1fa46e071723d6817e2486d003becc55f0090565b600780546001600160a01b038381166001600160a01b0319831681179093556040519116919082907f8be0079c531659141344cd1fd0a4f28419497f9722a3daafe3b4186f6b6457e0905f90a35050565b634e487b7160e01b5f52604160045260245ffd5b600181811c9082168061016e57607f821691505b60208210810361018c57634e487b7160e01b5f52602260045260245ffd5b50919050565b601f8211156101d957805f5260205f20601f840160051c810160208510156101b75750805b601f840160051c820191505b818110156101d6575f81556001016101c3565b50505b505050565b81516001600160401b038111156101f7576101f7610146565b61020b81610205845461015a565b84610192565b6020601f82116001811461023d575f83156102265750848201515b5f19600385901b1c1916600184901b1784556101d6565b5f84815260208120601f198516915b8281101561026c578785015182556020948501946001909201910161024c565b508482101561028957868401515f19600387901b60f8161c191681555b50505050600190811b01905550565b613512806102a55f395ff3fe608060405260043610610212575f3560e01c80638da5cb5b1161011e578063b88d4fde116100a8578063d24c3a4f1161006d578063d24c3a4f14610978578063d67066ac14610997578063e3a462d3146109aa578063e985e9c5146109e5578063f2fde38b14610a04575f5ffd5b8063b88d4fde14610848578063b9c9e0de14610867578063c205dfd11461091b578063c87b56dd1461092e578063cc9d70711461094d575f5ffd5b80639f9d903a116100ee5780639f9d903a14610744578063a22cb46514610759578063a77a111714610778578063b41b4bd4146107ab578063b7ae235314610829575f5ffd5b80638da5cb5b146106aa57806393e9a89d146106c757806395d89b41146106e65780639e408d4c146106fa575f5ffd5b806334bcadb61161019f57806342842e0e1161016f57806342842e0e146106165780636352211e1461063557806370a0823114610654578063715018a61461068157806375794a3c14610695575f5ffd5b806334bcadb61461045457806338475934146104945780633c141e92146104b35780633e1c605814610502575f5ffd5b80630b791430116101e55780630b791430146102c35780631d9c5d5c1461036f57806323b872dd146103825780632932c76d146103a15780632a55205a14610416575f5ffd5b806301ffc9a71461021657806306fdde031461024a578063081812fc1461026b578063095ea7b3146102a2575b5f5ffd5b348015610221575f5ffd5b50610235610230366004612cae565b610a23565b60405190151581526020015b60405180910390f35b348015610255575f5ffd5b5061025e610a4d565b6040516102419190612cf7565b348015610276575f5ffd5b5061028a610285366004612d09565b610adc565b6040516001600160a01b039091168152602001610241565b3480156102ad575f5ffd5b506102c16102bc366004612d3b565b610b03565b005b3480156102ce575f5ffd5b5061032c6102dd366004612d09565b600a6020525f90815260409020546001600160a01b0381169064ffffffffff600160a01b8204169062ffffff600160c81b8204811691600160e01b81049091169060ff600160f81b9091041685565b604080516001600160a01b03909616865264ffffffffff909416602086015262ffffff9283169385019390935216606083015260ff16608082015260a001610241565b6102c161037d366004612d09565b610b12565b34801561038d575f5ffd5b506102c161039c366004612d63565b610ece565b3480156103ac575f5ffd5b506103fa6103bb366004612dad565b5f828152600f6020908152604080832060ff949094168084529382528083205494835260108252808320938352929052205462ffffff91821692911690565b6040805162ffffff938416815292909116602083015201610241565b348015610421575f5ffd5b50610435610430366004612dd7565b610f57565b604080516001600160a01b039093168352602083019190915201610241565b34801561045f575f5ffd5b5061048261046e366004612d09565b600c6020525f908152604090205460ff1681565b60405160ff9091168152602001610241565b34801561049f575f5ffd5b506102c16104ae366004612d09565b610fff565b3480156104be575f5ffd5b506104ee6104cd366004612dad565b600f60209081525f928352604080842090915290825290205462ffffff1681565b60405162ffffff9091168152602001610241565b34801561050d575f5ffd5b506105b961051c366004612d09565b6040805160a0810182525f80825260208201819052918101829052606081018290526080810191909152505f908152600a6020908152604091829020825160a08101845290546001600160a01b038116825264ffffffffff600160a01b8204169282019290925262ffffff600160c81b8304811693820193909352600160e01b8204909216606083015260ff600160f81b90910416608082015290565b60405161024191905f60a08201905060018060a01b03835116825264ffffffffff602084015116602083015262ffffff604084015116604083015262ffffff606084015116606083015260ff608084015116608083015292915050565b348015610621575f5ffd5b506102c1610630366004612d63565b6110db565b348015610640575f5ffd5b5061028a61064f366004612d09565b6110fa565b34801561065f575f5ffd5b5061067361066e366004612df7565b611104565b604051908152602001610241565b34801561068c575f5ffd5b506102c1611149565b3480156106a0575f5ffd5b5061067360095481565b3480156106b5575f5ffd5b506007546001600160a01b031661028a565b3480156106d2575f5ffd5b506102c16106e1366004612f71565b61115c565b3480156106f1575f5ffd5b5061025e61149b565b348015610705575f5ffd5b5061072d610714366004612d09565b600e6020525f908152604090205465ffffffffffff1681565b60405165ffffffffffff9091168152602001610241565b34801561074f575f5ffd5b5061067360085481565b348015610764575f5ffd5b506102c1610773366004612fff565b6114aa565b348015610783575f5ffd5b5061072d610792366004612d09565b5f908152600e602052604090205465ffffffffffff1690565b3480156107b6575f5ffd5b506107fb6107c5366004612d09565b600d6020525f90815260409020546001600160a01b03811690600160a01b810465ffffffffffff1690600160d01b900460ff1683565b604080516001600160a01b03909416845265ffffffffffff9092166020840152151590820152606001610241565b348015610834575f5ffd5b506102c1610843366004613091565b6114b5565b348015610853575f5ffd5b506102c1610862366004613162565b6117de565b348015610872575f5ffd5b506108e6610881366004612d09565b60408051606080820183525f8083526020808401829052928401819052938452600d82529282902082519384018352546001600160a01b0381168452600160a01b810465ffffffffffff1691840191909152600160d01b900460ff1615159082015290565b6040805182516001600160a01b0316815260208084015165ffffffffffff169082015291810151151590820152606001610241565b6102c16109293660046131d9565b6117f6565b348015610939575f5ffd5b5061025e610948366004612d09565b611bf3565b348015610958575f5ffd5b50610673610967366004612d09565b600b6020525f908152604090205481565b348015610983575f5ffd5b506102c1610992366004613212565b611c74565b6102c16109a536600461323f565b611dbd565b3480156109b5575f5ffd5b506104ee6109c4366004612dad565b601060209081525f928352604080842090915290825290205462ffffff1681565b3480156109f0575f5ffd5b506102356109ff3660046132ac565b612253565b348015610a0f575f5ffd5b506102c1610a1e366004612df7565b612280565b5f6001600160e01b0319821663152a902d60e11b1480610a475750610a47826122ba565b92915050565b60605f8054610a5b906132d4565b80601f0160208091040260200160405190810160405280929190818152602001828054610a87906132d4565b8015610ad25780601f10610aa957610100808354040283529160200191610ad2565b820191905f5260205f20905b815481529060010190602001808311610ab557829003601f168201915b5050505050905090565b5f610ae6826122de565b505f828152600460205260409020546001600160a01b0316610a47565b610b0e828233612316565b5050565b610b1a612323565b5f818152600d6020908152604091829020825160608101845290546001600160a01b0381168252600160a01b810465ffffffffffff1692820192909252600160d01b90910460ff16151591810182905290610bab5760405162461bcd60e51b815260206004820152600c60248201526b4e6f7420666f722073616c6560a01b60448201526064015b60405180910390fd5b5f828152600b6020908152604080832054808452600a90925290912080546001600160a01b0316610bee5760405162461bcd60e51b8152600401610ba29061330c565b80546001600160a01b03163303610c175760405162461bcd60e51b8152600401610ba29061333a565b6020830151610c329065ffffffffffff16633b9aca00613394565b3414610c505760405162461bcd60e51b8152600401610ba2906133ab565b82516001600160a01b0316610c64856110fa565b6001600160a01b031614610cba5760405162461bcd60e51b815260206004820152601c60248201527f53656c6c6572206e6f206c6f6e676572206f776e73207469636b6574000000006044820152606401610ba2565b5f5f610cc68634610f57565b90925090505f610cd682346133d9565b5f888152600d60205260409020805460ff60d01b1916905590508115610d97575f836001600160a01b0316836040515f6040518083038185875af1925050503d805f8114610d3f576040519150601f19603f3d011682016040523d82523d5f602084013e610d44565b606091505b5050905080610d955760405162461bcd60e51b815260206004820152601760248201527f526f79616c7479207472616e73666572206661696c65640000000000000000006044820152606401610ba2565b505b85516040515f916001600160a01b03169083908381818185875af1925050503d805f8114610de0576040519150601f19603f3d011682016040523d82523d5f602084013e610de5565b606091505b5050905080610e2f5760405162461bcd60e51b815260206004820152601660248201527514d95b1b195c881d1c985b9cd9995c8819985a5b195960521b6044820152606401610ba2565b8651610e3c90338a61233e565b602087810180515f8b8152600e8452604090819020805465ffffffffffff191665ffffffffffff9384161790558a51925190519116815233926001600160a01b03909216918b917f4ae275d0457819946df214c8f4d79450d6b2a494e0117bc34f83df293270600d910160405180910390a450505050505050610ecb60015f5160206134bd5f395f51905f5255565b50565b6001600160a01b038216610ef757604051633250574960e11b81525f6004820152602401610ba2565b5f610f038383336123eb565b9050836001600160a01b0316816001600160a01b031614610f51576040516364283d7b60e01b81526001600160a01b0380861660048301526024820184905282166044820152606401610ba2565b50505050565b5f828152600b6020908152604080832054808452600a8352818420825160a08101845290546001600160a01b0381168252600160a01b810464ffffffffff1694820194909452600160c81b840462ffffff90811693820193909352600160e01b84049092166060830152600160f81b90920460ff1660808201819052839291908390606490610fe69088613394565b610ff091906133ec565b91519791965090945050505050565b5f818152600d602052604090208054600160d01b900460ff166110585760405162461bcd60e51b81526020600482015260116024820152704e6f20616374697665206c697374696e6760781b6044820152606401610ba2565b80546001600160a01b031633146110a25760405162461bcd60e51b815260206004820152600e60248201526d2737ba103a34329039b2b63632b960911b6044820152606401610ba2565b805460ff60d01b1916815560405182907f411aee90354c51b1b04cd563fcab2617142a9d50da19232d888547c8a1b7fd8a905f90a25050565b6110f583838360405180602001604052805f8152506117de565b505050565b5f610a47826122de565b5f6001600160a01b03821661112e576040516322718ad960e21b81525f6004820152602401610ba2565b506001600160a01b03165f9081526003602052604090205490565b6111516124dd565b61115a5f61250a565b565b5f858152600a6020526040902080546001600160a01b03166111905760405162461bcd60e51b8152600401610ba29061330c565b80546001600160a01b031633146111dd5760405162461bcd60e51b81526020600482015260116024820152702737ba103a34329037b933b0b734b9b2b960791b6044820152606401610ba2565b805462ffffff600160e01b9091048116908616101561123e5760405162461bcd60e51b815260206004820152601c60248201527f43616e6e6f7420726564756365206d61782062656c6f7720736f6c64000000006044820152606401610ba2565b5f8464ffffffffff16116112885760405162461bcd60e51b815260206004820152601160248201527005072696365206d757374206265203e203607c1b6044820152606401610ba2565b81518351146112d05760405162461bcd60e51b81526020600482015260146024820152730a8d2cae440c2e4e4c2f2e640dad2e6dac2e8c6d60631b6044820152606401610ba2565b805467ffffffffffffffff60a01b1916600160c81b62ffffff87160264ffffffffff60a01b191617600160a01b64ffffffffff8616021781555f5b835181101561144c57600f5f8881526020019081526020015f205f8583815181106113385761133861340b565b602002602001015160ff1660ff1681526020019081526020015f205f9054906101000a900462ffffff1662ffffff168382815181106113795761137961340b565b602002602001015162ffffff1610156113d45760405162461bcd60e51b815260206004820152601d60248201527f43616e6e6f742072656475636520746965722062656c6f7720736f6c640000006044820152606401610ba2565b8281815181106113e6576113e661340b565b602002602001015160105f8981526020019081526020015f205f8684815181106114125761141261340b565b60209081029190910181015160ff1682528101919091526040015f20805462ffffff191662ffffff9290921691909117905560010161130b565b506040805162ffffff8716815264ffffffffff8616602082015287917ff06987917567a624564ebaa367089a3c21b4da44a8a6aa4ba7a6152ff3f65372910160405180910390a2505050505050565b606060018054610a5b906132d4565b610b0e33838361255b565b5f8562ffffff16116114fd5760405162461bcd60e51b81526020600482015260116024820152704d7573742068617665207469636b65747360781b6044820152606401610ba2565b5f86511161154d5760405162461bcd60e51b815260206004820152601960248201527f4950465320686173682063616e6e6f7420626520656d707479000000000000006044820152606401610ba2565b5f8464ffffffffff16116115a35760405162461bcd60e51b815260206004820152601f60248201527f5072696365206d7573742062652067726561746572207468616e207a65726f006044820152606401610ba2565b60648360ff1611156115f75760405162461bcd60e51b815260206004820152601a60248201527f526f79616c74792063616e6e6f742065786365656420313030250000000000006044820152606401610ba2565b805182511461163f5760405162461bcd60e51b81526020600482015260146024820152730a8d2cae440c2e4e4c2f2e640dad2e6dac2e8c6d60631b6044820152606401610ba2565b6008546040805160a08101825233815264ffffffffff878116602080840191825262ffffff8b81168587019081525f6060870181815260ff8d811660808a019081528b8452600a9096529882209751885496519351915195516001600160a01b039091166001600160c81b031990971696909617600160a01b93909716929092029590951765ffffffffffff60c81b1916600160c81b9183169190910262ffffff60e01b191617600160e01b9290911691909102176001600160f81b0316600160f81b91909416029290921790555b835181101561178f578281815181106117295761172961340b565b602002602001015160105f8481526020019081526020015f205f8684815181106117555761175561340b565b60209081029190910181015160ff1682528101919091526040015f20805462ffffff191662ffffff9290921691909117905560010161170e565b50600880546001019055604051339082907ffc695dea2478fb938a11068aeedddd7046a5fe655f136e30a325d353fe187a45906117cd908b90612cf7565b60405180910390a350505050505050565b6117e9848484610ece565b610f513385858585612622565b6117fe612323565b5f8262ffffff16116118495760405162461bcd60e51b815260206004820152601460248201527305175616e74697479206d757374206265203e20360641b6044820152606401610ba2565b5f838152600a6020526040902080546001600160a01b031661187d5760405162461bcd60e51b8152600401610ba29061330c565b805462ffffff600160c81b82048116916118a0918691600160e01b90041661341f565b62ffffff1611156118f35760405162461bcd60e51b815260206004820152601c60248201527f4e6f7420656e6f756768207469636b65747320617661696c61626c65000000006044820152606401610ba2565b80546001600160a01b0316330361191c5760405162461bcd60e51b8152600401610ba29061333a565b5f84815260106020908152604080832060ff8616845290915290205462ffffff1680156119b6575f858152600f6020908152604080832060ff8716845290915290205462ffffff808316916119739187911661341f565b62ffffff1611156119b65760405162461bcd60e51b815260206004820152600d60248201526c151a595c881cdbdb19081bdd5d609a1b6044820152606401610ba2565b815462ffffff8516906119db90600160a01b900464ffffffffff16633b9aca00613394565b6119e59190613394565b341015611a045760405162461bcd60e51b8152600401610ba2906133ab565b5f5b8462ffffff16811015611abf57600954611a20338261274a565b5f818152600b602090815260408083208a9055600c8252808320805460ff191660ff8a169081179091558754600e8452938290208054600160a01b90950464ffffffffff1665ffffffffffff1990951694909417909355519182523391899184917f1532a8791902a65aebb0e34385d2b5325fb2f0ee5241c5faa75adcabdd367ca9910160405180910390a45060098054600190810190915501611a06565b50815484908390601c90611ae0908490600160e01b900462ffffff1661341f565b82546101009290920a62ffffff8181021990931691831602179091555f878152600f6020908152604080832060ff89168452909152812080548894509092611b2a9185911661341f565b825462ffffff9182166101009390930a92830291909202199091161790555081546040515f916001600160a01b03169034908381818185875af1925050503d805f8114611b92576040519150601f19603f3d011682016040523d82523d5f602084013e611b97565b606091505b5050905080611bda5760405162461bcd60e51b815260206004820152600f60248201526e151c985b9cd9995c8819985a5b1959608a1b6044820152606401610ba2565b5050506110f560015f5160206134bd5f395f51905f5255565b6060611bfe826122de565b505f611c1460408051602081019091525f815290565b90505f611c2084612763565b905081515f03611c31579392505050565b805115611c63578181604051602001611c4b929190613451565b60405160208183030381529060405292505050919050565b611c6c84612802565b949350505050565b33611c7e836110fa565b6001600160a01b031614611cc45760405162461bcd60e51b815260206004820152600d60248201526c2737ba103a34329037bbb732b960991b6044820152606401610ba2565b5f8165ffffffffffff1611611d0f5760405162461bcd60e51b815260206004820152601160248201527005072696365206d757374206265203e203607c1b6044820152606401610ba2565b604080516060810182523380825265ffffffffffff848116602080850182815260018688019081525f8a8152600d845288902096518754925191511515600160d01b0260ff60d01b1992909616600160a01b026001600160d01b03199093166001600160a01b039091161791909117169290921790935592519182529184917f914be646fff955597a1203fc0af9377a4c3870daa8034fa293d61823b3456f6e910160405180910390a35050565b611dc5612323565b8051825114611e165760405162461bcd60e51b815260206004820152601760248201527f4d69736d61746368656420696e707574206172726179730000000000000000006044820152606401610ba2565b5f838152600a6020526040902080546001600160a01b0316611e4a5760405162461bcd60e51b8152600401610ba29061330c565b80546001600160a01b03163303611e735760405162461bcd60e51b8152600401610ba29061333a565b5f805b8351811015611eae57838181518110611e9157611e9161340b565b602002602001015182611ea4919061341f565b9150600101611e76565b505f8162ffffff1611611efa5760405162461bcd60e51b815260206004820152601460248201527305175616e74697479206d757374206265203e20360641b6044820152606401610ba2565b815462ffffff600160c81b8204811691611f1d918491600160e01b90041661341f565b62ffffff161115611f705760405162461bcd60e51b815260206004820152601c60248201527f4e6f7420656e6f756768207469636b65747320617661696c61626c65000000006044820152606401610ba2565b815462ffffff821690611f9590600160a01b900464ffffffffff16633b9aca00613394565b611f9f9190613394565b341015611fbe5760405162461bcd60e51b8152600401610ba2906133ab565b5f5b84518110156120d2575f86815260106020526040812086518290889085908110611fec57611fec61340b565b60209081029190910181015160ff1682528101919091526040015f205462ffffff16905080156120c9578062ffffff1685838151811061202e5761202e61340b565b6020026020010151600f5f8a81526020019081526020015f205f89868151811061205a5761205a61340b565b60209081029190910181015160ff1682528101919091526040015f2054612086919062ffffff1661341f565b62ffffff1611156120c95760405162461bcd60e51b815260206004820152600d60248201526c151a595c881cdbdb19081bdd5d609a1b6044820152606401610ba2565b50600101611fc0565b505f5b8451811015612232575f8482815181106120f1576120f161340b565b602002602001015190505f86838151811061210e5761210e61340b565b602002602001015190505f5f90505b8262ffffff168110156121d657600954612137338261274a565b5f818152600b602090815260408083208d9055600c8252808320805460ff191660ff88169081179091558a54600e8452938290208054600160a01b90950464ffffffffff1665ffffffffffff19909516949094179093555191825233918c9184917f1532a8791902a65aebb0e34385d2b5325fb2f0ee5241c5faa75adcabdd367ca9910160405180910390a4506009805460019081019091550161211d565b505f888152600f6020908152604080832060ff851684529091528120805484929061220790849062ffffff1661341f565b92506101000a81548162ffffff021916908362ffffff160217905550828060010193505050506120d5565b50815481908390601c90611b2a908490600160e01b900462ffffff1661341f565b6001600160a01b039182165f90815260056020908152604080832093909416825291909152205460ff1690565b6122886124dd565b6001600160a01b0381166122b157604051631e4fbdf760e01b81525f6004820152602401610ba2565b610ecb8161250a565b5f6001600160e01b03198216632483248360e11b1480610a475750610a4782612873565b5f818152600260205260408120546001600160a01b031680610a4757604051637e27328960e01b815260048101849052602401610ba2565b6110f583838360016128c2565b61232b6129c6565b60025f5160206134bd5f395f51905f5255565b6001600160a01b03821661236757604051633250574960e11b81525f6004820152602401610ba2565b5f61237383835f6123eb565b90506001600160a01b03811661239f57604051637e27328960e01b815260048101839052602401610ba2565b836001600160a01b0316816001600160a01b031614610f51576040516364283d7b60e01b81526001600160a01b0380861660048301526024820184905282166044820152606401610ba2565b5f828152600260205260408120546001600160a01b0390811690831615612417576124178184866129f5565b6001600160a01b03811615612451576124325f855f5f6128c2565b6001600160a01b0381165f90815260036020526040902080545f190190555b6001600160a01b0385161561247f576001600160a01b0385165f908152600360205260409020805460010190555b5f8481526002602052604080822080546001600160a01b0319166001600160a01b0389811691821790925591518793918516917fddf252ad1be2c89b69c2b068fc378daa952ba7f163c4a11628f55a4df523b3ef91a4949350505050565b6007546001600160a01b0316331461115a5760405163118cdaa760e01b8152336004820152602401610ba2565b600780546001600160a01b038381166001600160a01b0319831681179093556040519116919082907f8be0079c531659141344cd1fd0a4f28419497f9722a3daafe3b4186f6b6457e0905f90a35050565b6001600160a01b0383166125845760405163a9fbf51f60e01b81525f6004820152602401610ba2565b6001600160a01b0382166125b657604051630b61174360e31b81526001600160a01b0383166004820152602401610ba2565b6001600160a01b038381165f81815260056020908152604080832094871680845294825291829020805460ff191686151590811790915591519182527f17307eab39ab6107e8899845ad3d59bd9653f200f220920489ca2b5937696c31910160405180910390a3505050565b6001600160a01b0383163b1561274357604051630a85bd0160e11b81526001600160a01b0384169063150b7a0290612664908890889087908790600401613465565b6020604051808303815f875af192505050801561269e575060408051601f3d908101601f1916820190925261269b918101906134a1565b60015b612705573d8080156126cb576040519150601f19603f3d011682016040523d82523d5f602084013e6126d0565b606091505b5080515f036126fd57604051633250574960e11b81526001600160a01b0385166004820152602401610ba2565b805160208201fd5b6001600160e01b03198116630a85bd0160e11b1461274157604051633250574960e11b81526001600160a01b0385166004820152602401610ba2565b505b5050505050565b610b0e828260405180602001604052805f815250612a59565b5f81815260066020526040902080546060919061277f906132d4565b80601f01602080910402602001604051908101604052809291908181526020018280546127ab906132d4565b80156127f65780601f106127cd576101008083540402835291602001916127f6565b820191905f5260205f20905b8154815290600101906020018083116127d957829003601f168201915b50505050509050919050565b606061280d826122de565b505f61282360408051602081019091525f815290565b90505f8151116128415760405180602001604052805f81525061286c565b8061284b84612a70565b60405160200161285c929190613451565b6040516020818303038152906040525b9392505050565b5f6001600160e01b031982166380ac58cd60e01b14806128a357506001600160e01b03198216635b5e139f60e01b145b80610a4757506301ffc9a760e01b6001600160e01b0319831614610a47565b80806128d657506001600160a01b03821615155b15612997575f6128e5846122de565b90506001600160a01b038316158015906129115750826001600160a01b0316816001600160a01b031614155b801561292457506129228184612253565b155b1561294d5760405163a9fbf51f60e01b81526001600160a01b0384166004820152602401610ba2565b81156129955783856001600160a01b0316826001600160a01b03167f8c5be1e5ebec7d5bd14f71427d1e84f3dd0314c0f7b2291e5b200ac8c7c3b92560405160405180910390a45b505b50505f90815260046020526040902080546001600160a01b0319166001600160a01b0392909216919091179055565b5f5160206134bd5f395f51905f525460020361115a57604051633ee5aeb560e01b815260040160405180910390fd5b612a00838383612b00565b6110f5576001600160a01b038316612a2e57604051637e27328960e01b815260048101829052602401610ba2565b60405163177e802f60e01b81526001600160a01b038316600482015260248101829052604401610ba2565b612a638383612b61565b6110f5335f858585612622565b60605f612a7c83612bc2565b60010190505f8167ffffffffffffffff811115612a9b57612a9b612e36565b6040519080825280601f01601f191660200182016040528015612ac5576020820181803683370190505b5090508181016020015b5f19016f181899199a1a9b1b9c1cb0b131b232b360811b600a86061a8153600a8504945084612acf57509392505050565b5f6001600160a01b03831615801590611c6c5750826001600160a01b0316846001600160a01b03161480612b395750612b398484612253565b80611c6c5750505f908152600460205260409020546001600160a01b03908116911614919050565b6001600160a01b038216612b8a57604051633250574960e11b81525f6004820152602401610ba2565b5f612b9683835f6123eb565b90506001600160a01b038116156110f5576040516339e3563760e11b81525f6004820152602401610ba2565b5f8072184f03e93ff9f4daa797ed6e38ed64bf6a1f0160401b8310612c005772184f03e93ff9f4daa797ed6e38ed64bf6a1f0160401b830492506040015b6d04ee2d6d415b85acef81000000008310612c2c576d04ee2d6d415b85acef8100000000830492506020015b662386f26fc100008310612c4a57662386f26fc10000830492506010015b6305f5e1008310612c62576305f5e100830492506008015b6127108310612c7657612710830492506004015b60648310612c88576064830492506002015b600a8310610a475760010192915050565b6001600160e01b031981168114610ecb575f5ffd5b5f60208284031215612cbe575f5ffd5b813561286c81612c99565b5f81518084528060208401602086015e5f602082860101526020601f19601f83011685010191505092915050565b602081525f61286c6020830184612cc9565b5f60208284031215612d19575f5ffd5b5035919050565b80356001600160a01b0381168114612d36575f5ffd5b919050565b5f5f60408385031215612d4c575f5ffd5b612d5583612d20565b946020939093013593505050565b5f5f5f60608486031215612d75575f5ffd5b612d7e84612d20565b9250612d8c60208501612d20565b929592945050506040919091013590565b803560ff81168114612d36575f5ffd5b5f5f60408385031215612dbe575f5ffd5b82359150612dce60208401612d9d565b90509250929050565b5f5f60408385031215612de8575f5ffd5b50508035926020909101359150565b5f60208284031215612e07575f5ffd5b61286c82612d20565b803562ffffff81168114612d36575f5ffd5b803564ffffffffff81168114612d36575f5ffd5b634e487b7160e01b5f52604160045260245ffd5b604051601f8201601f1916810167ffffffffffffffff81118282101715612e7357612e73612e36565b604052919050565b5f67ffffffffffffffff821115612e9457612e94612e36565b5060051b60200190565b5f82601f830112612ead575f5ffd5b8135612ec0612ebb82612e7b565b612e4a565b8082825260208201915060208360051b860101925085831115612ee1575f5ffd5b602085015b83811015612f0557612ef781612d9d565b835260209283019201612ee6565b5095945050505050565b5f82601f830112612f1e575f5ffd5b8135612f2c612ebb82612e7b565b8082825260208201915060208360051b860101925085831115612f4d575f5ffd5b602085015b83811015612f0557612f6381612e10565b835260209283019201612f52565b5f5f5f5f5f60a08688031215612f85575f5ffd5b85359450612f9560208701612e10565b9350612fa360408701612e22565b9250606086013567ffffffffffffffff811115612fbe575f5ffd5b612fca88828901612e9e565b925050608086013567ffffffffffffffff811115612fe6575f5ffd5b612ff288828901612f0f565b9150509295509295909350565b5f5f60408385031215613010575f5ffd5b61301983612d20565b91506020830135801515811461302d575f5ffd5b809150509250929050565b5f5f67ffffffffffffffff84111561305257613052612e36565b50601f8301601f191660200161306781612e4a565b91505082815283838301111561307b575f5ffd5b828260208301375f602084830101529392505050565b5f5f5f5f5f5f60c087890312156130a6575f5ffd5b863567ffffffffffffffff8111156130bc575f5ffd5b8701601f810189136130cc575f5ffd5b6130db89823560208401613038565b9650506130ea60208801612e10565b94506130f860408801612e22565b935061310660608801612d9d565b9250608087013567ffffffffffffffff811115613121575f5ffd5b61312d89828a01612e9e565b92505060a087013567ffffffffffffffff811115613149575f5ffd5b61315589828a01612f0f565b9150509295509295509295565b5f5f5f5f60808587031215613175575f5ffd5b61317e85612d20565b935061318c60208601612d20565b925060408501359150606085013567ffffffffffffffff8111156131ae575f5ffd5b8501601f810187136131be575f5ffd5b6131cd87823560208401613038565b91505092959194509250565b5f5f5f606084860312156131eb575f5ffd5b833592506131fb60208501612e10565b915061320960408501612d9d565b90509250925092565b5f5f60408385031215613223575f5ffd5b82359150602083013565ffffffffffff8116811461302d575f5ffd5b5f5f5f60608486031215613251575f5ffd5b83359250602084013567ffffffffffffffff81111561326e575f5ffd5b61327a86828701612e9e565b925050604084013567ffffffffffffffff811115613296575f5ffd5b6132a286828701612f0f565b9150509250925092565b5f5f604083850312156132bd575f5ffd5b6132c683612d20565b9150612dce60208401612d20565b600181811c908216806132e857607f821691505b60208210810361330657634e487b7160e01b5f52602260045260245ffd5b50919050565b602080825260149082015273115d995b9d08191bd95cc81b9bdd08195e1a5cdd60621b604082015260600190565b60208082526026908201527f4f7267616e697365722063616e6e6f7420627579207468656972206f776e207460408201526569636b65747360d01b606082015260800190565b634e487b7160e01b5f52601160045260245ffd5b8082028115828204841417610a4757610a47613380565b602080825260149082015273125b98dbdc9c9958dd0811551208185b5bdd5b9d60621b604082015260600190565b81810381811115610a4757610a47613380565b5f8261340657634e487b7160e01b5f52601260045260245ffd5b500490565b634e487b7160e01b5f52603260045260245ffd5b62ffffff8181168382160190811115610a4757610a47613380565b5f81518060208401855e5f93019283525090919050565b5f611c6c61345f838661343a565b8461343a565b6001600160a01b03858116825284166020820152604081018390526080606082018190525f9061349790830184612cc9565b9695505050505050565b5f602082840312156134b1575f5ffd5b815161286c81612c9956fe9b779b17422d0df92223018b32b4d1fa46e071723d6817e2486d003becc55f00a264697066735822122004c8c76563d8080aac338e4cecb4fc32b855eeeef21ad3e448dd92a458a68d6464736f6c634300081c0033",
  "linkReferences": {},
  "deployedLinkReferences": {}
}