{
  "_format": "hh-sol-artifact-1",
  "contractName": "NFTTicket",
  "sourceName": "contracts/NFTTicket.sol",
  "abi": [
    {
      "inputs": [],
      "stateMutability": "nonpayable",
      "type": "constructor"
    },
    {
      "inputs": [
        {
          "internalType": "address",
          "name": "sender",
          "type": "address"
        },
        {
          "internalType": "uint256",
          "name": "tokenId",
          "type": "uint256"
        },
        {
          "internalType": "address",
          "name": "owner",
          "type": "address"
        }
      ],
      "name": "ERC721IncorrectOwner",
      "type": "error"
    },
    {
      "inputs": [
        {
          "internalType": "address",
          "name": "operator",
          "type": "address"
        },
        {
          "internalType": "uint256",
          "name": "tokenId",
          "type": "uint256"
        }
      ],
      "name": "ERC721InsufficientApproval",
      "type": "error"
    },
    {
      "inputs": [
        {
          "internalType": "address",
          "name": "approver",
          "type": "address"
        }
      ],
      "name": "ERC721InvalidApprover",
      "type": "error"
    },
    {
      "inputs": [
        {
          "internalType": "address",
          "name": "operator",
          "type": "address"
        }
      ],
      "name": "ERC721InvalidOperator",
      "type": "error"
    },
    {
      "inputs": [
        {
          "internalType": "address",
          "name": "owner",
          "type": "address"
        }
      ],
      "name": "ERC721InvalidOwner",
      "type": "error"
    },
    {
      "inputs": [
        {
          "internalType": "address",
          "name": "receiver",
          "type": "address"
        }
      ],
      "name": "ERC721InvalidReceiver",
      "type": "error"
    },
    {
      "inputs": [
        {
          "internalType": "address",
          "name": "sender",
          "type": "address"
        }
      ],
      "name": "ERC721InvalidSender",
      "type": "error"
    },
    {
      "inputs": [
        {
          "internalType": "uint256",
          "name": "tokenId",
          "type": "uint256"
        }
      ],
      "name": "ERC721NonexistentToken",
      "type": "error"
    },
    {
      "inputs": [
        {
          "internalType": "address",
          "name": "owner",
          "type": "address"
        }
      ],
      "name": "OwnableInvalidOwner",
      "type": "error"
    },
    {
      "inputs": [
        {
          "internalType": "address",
          "name": "account",
          "type": "address"
        }
      ],
      "name": "OwnableUnauthorizedAccount",
      "type": "error"
    },
    {
      "inputs": [],
      "name": "ReentrancyGuardReentrantCall",
      "type": "error"
    },
    {
      "anonymous": false,
      "inputs": [
        {
          "indexed": true,
          "internalType": "address",
          "name": "owner",
          "type": "address"
        },
        {
          "indexed": true,
          "internalType": "address",
          "name": "approved",
          "type": "address"
        },
        {
          "indexed": true,
          "internalType": "uint256",
          "name": "tokenId",
          "type": "uint256"
        }
      ],
      "name": "Approval",
      "type": "event"
    },
    {
      "anonymous": false,
      "inputs": [
        {
          "indexed": true,
          "internalType": "address",
          "name": "owner",
          "type": "address"
        },
        {
          "indexed": true,
          "internalType": "address",
          "name": "operator",
          "type": "address"
        },
        {
          "indexed": false,
          "internalType": "bool",
          "name": "approved",
          "type": "bool"
        }
      ],
      "name": "ApprovalForAll",
      "type": "event"
    },
    {
      "anonymous": false,
      "inputs": [
        {
          "indexed": false,
          "internalType": "uint256",
          "name": "_fromTokenId",
          "type": "uint256"
        },
        {
          "indexed": false,
          "internalType": "uint256",
          "name": "_toTokenId",
          "type": "uint256"
        }
      ],
      "name": "BatchMetadataUpdate",
      "type": "event"
    },
    {
      "anonymous": false,
      "inputs": [
        {
          "indexed": true,
          "internalType": "uint256",
          "name": "eventId",
          "type": "uint256"
        },
        {
          "indexed": true,
          "internalType": "address",
          "name": "organiser",
          "type": "address"
        },
        {
          "indexed": false,
          "internalType": "string",
          "name": "name",
          "type": "string"
        }
      ],
      "name": "EventCreated",
      "type": "event"
    },
    {
      "anonymous": false,
      "inputs": [
        {
          "indexed": true,
          "internalType": "uint256",
          "name": "tokenId",
          "type": "uint256"
        }
      ],
      "name": "ListingCancelled",
      "type": "event"
    },
    {
      "anonymous": false,
      "inputs": [
        {
          "indexed": false,
          "internalType": "uint256",
          "name": "_tokenId",
          "type": "uint256"
        }
      ],
      "name": "MetadataUpdate",
      "type": "event"
    },
    {
      "anonymous": false,
      "inputs": [
        {
          "indexed": true,
          "internalType": "address",
          "name": "previousOwner",
          "type": "address"
        },
        {
          "indexed": true,
          "internalType": "address",
          "name": "newOwner",
          "type": "address"
        }
      ],
      "name": "OwnershipTransferred",
      "type": "event"
    },
    {
      "anonymous": false,
      "inputs": [
        {
          "indexed": true,
          "internalType": "uint256",
          "name": "tokenId",
          "type": "uint256"
        },
        {
          "indexed": true,
          "internalType": "address",
          "name": "seller",
          "type": "address"
        },
        {
          "indexed": false,
          "internalType": "uint256",
          "name": "priceWei",
          "type": "uint256"
        }
      ],
      "name": "TicketListed",
      "type": "event"
    },
    {
      "anonymous": false,
      "inputs": [
        {
          "indexed": true,
          "internalType": "uint256",
          "name": "tokenId",
          "type": "uint256"
        },
        {
          "indexed": true,
          "internalType": "uint256",
          "name": "eventId",
          "type": "uint256"
        },
        {
          "indexed": true,
          "internalType": "address",
          "name": "buyer",
          "type": "address"
        }
      ],
      "name": "TicketMinted",
      "type": "event"
    },
    {
      "anonymous": false,
      "inputs": [
        {
          "indexed": true,
          "internalType": "uint256",
          "name": "tokenId",
          "type": "uint256"
        },
        {
          "indexed": true,
          "internalType": "address",
          "name": "oldOwner",
          "type": "address"
        },
        {
          "indexed": true,
          "internalType": "address",
          "name": "newOwner",
          "type": "address"
        },
        {
          "indexed": false,
          "internalType": "uint256",
          "name": "priceWei",
          "type": "uint256"
        }
      ],
      "name": "TicketResold",
      "type": "event"
    },
    {
      "anonymous": false,
      "inputs": [
        {
          "indexed": true,
          "internalType": "address",
          "name": "from",
          "type": "address"
        },
        {
          "indexed": true,
          "internalType": "address",
          "name": "to",
          "type": "address"
        },
        {
          "indexed": true,
          "internalType": "uint256",
          "name": "tokenId",
          "type": "uint256"
        }
      ],
      "name": "Transfer",
      "type": "event"
    },
    {
      "inputs": [
        {
          "internalType": "address",
          "name": "to",
          "type": "address"
        },
        {
          "internalType": "uint256",
          "name": "tokenId",
          "type": "uint256"
        }
      ],
      "name": "approve",
      "outputs": [],
      "stateMutability": "nonpayable",
      "type": "function"
    },
    {
      "inputs": [
        {
          "internalType": "address",
          "name": "owner",
          "type": "address"
        }
      ],
      "name": "balanceOf",
      "outputs": [
        {
          "internalType": "uint256",
          "name": "",
          "type": "uint256"
        }
      ],
      "stateMutability": "view",
      "type": "function"
    },
    {
      "inputs": [
        {
          "internalType": "uint256",
          "name": "tokenId",
          "type": "uint256"
        }
      ],
      "name": "buyResaleTicket",
      "outputs": [],
      "stateMutability": "payable",
      "type": "function"
    },
    {
      "inputs": [
        {
          "internalType": "uint256",
          "name": "eventId",
          "type": "uint256"
        }
      ],
      "name": "buyTicket",
      "outputs": [],
      "stateMutability": "payable",
      "type": "function"
    },
    {
      "inputs": [
        {
          "internalType": "uint256",
          "name": "tokenId",
          "type": "uint256"
        }
      ],
      "name": "cancelResaleListing",
      "outputs": [],
      "stateMutability": "nonpayable",
      "type": "function"
    },
    {
      "inputs": [
        {
          "internalType": "string",
          "name": "name",
          "type": "string"
        },
        {
          "internalType": "uint256",
          "name": "maxTickets",
          "type": "uint256"
        },
        {
          "internalType": "uint256",
          "name": "priceWei",
          "type": "uint256"
        },
        {
          "internalType": "uint96",
          "name": "royaltyBps",
          "type": "uint96"
        }
      ],
      "name": "createEvent",
      "outputs": [],
      "stateMutability": "nonpayable",
      "type": "function"
    },
    {
      "inputs": [
        {
          "internalType": "uint256",
          "name": "",
          "type": "uint256"
        }
      ],
      "name": "events",
      "outputs": [
        {
          "internalType": "string",
          "name": "name",
          "type": "string"
        },
        {
          "internalType": "uint256",
          "name": "maxTickets",
          "type": "uint256"
        },
        {
          "internalType": "uint256",
          "name": "priceWei",
          "type": "uint256"
        },
        {
          "internalType": "uint256",
          "name": "ticketsSold",
          "type": "uint256"
        },
        {
          "internalType": "address",
          "name": "organiser",
          "type": "address"
        },
        {
          "internalType": "uint96",
          "name": "royaltyBps",
          "type": "uint96"
        },
        {
          "internalType": "bool",
          "name": "exists",
          "type": "bool"
        }
      ],
      "stateMutability": "view",
      "type": "function"
    },
    {
      "inputs": [
        {
          "internalType": "uint256",
          "name": "eventId",
          "type": "uint256"
        }
      ],
      "name": "fetchEventData",
      "outputs": [
        {
          "components": [
            {
              "internalType": "string",
              "name": "name",
              "type": "string"
            },
            {
              "internalType": "uint256",
              "name": "maxTickets",
              "type": "uint256"
            },
            {
              "internalType": "uint256",
              "name": "priceWei",
              "type": "uint256"
            },
            {
              "internalType": "uint256",
              "name": "ticketsSold",
              "type": "uint256"
            },
            {
              "internalType": "address",
              "name": "organiser",
              "type": "address"
            },
            {
              "internalType": "uint96",
              "name": "royaltyBps",
              "type": "uint96"
            },
            {
              "internalType": "bool",
              "name": "exists",
              "type": "bool"
            }
          ],
          "internalType": "struct NFTTicket.Event",
          "name": "",
          "type": "tuple"
        }
      ],
      "stateMutability": "view",
      "type": "function"
    },
    {
      "inputs": [
        {
          "internalType": "uint256",
          "name": "tokenId",
          "type": "uint256"
        }
      ],
      "name": "getApproved",
      "outputs": [
        {
          "internalType": "address",
          "name": "",
          "type": "address"
        }
      ],
      "stateMutability": "view",
      "type": "function"
    },
    {
      "inputs": [
        {
          "internalType": "uint256",
          "name": "tokenId",
          "type": "uint256"
        }
      ],
      "name": "getResaleListing",
      "outputs": [
        {
          "components": [
            {
              "internalType": "address",
              "name": "seller",
              "type": "address"
            },
            {
              "internalType": "uint256",
              "name": "priceWei",
              "type": "uint256"
            },
            {
              "internalType": "bool",
              "name": "active",
              "type": "bool"
            }
          ],
          "internalType": "struct NFTTicket.ResaleListing",
          "name": "",
          "type": "tuple"
        }
      ],
      "stateMutability": "view",
      "type": "function"
    },
    {
      "inputs": [
        {
          "internalType": "address",
          "name": "owner",
          "type": "address"
        },
        {
          "internalType": "address",
          "name": "operator",
          "type": "address"
        }
      ],
      "name": "isApprovedForAll",
      "outputs": [
        {
          "internalType": "bool",
          "name": "",
          "type": "bool"
        }
      ],
      "stateMutability": "view",
      "type": "function"
    },
    {
      "inputs": [
        {
          "internalType": "uint256",
          "name": "tokenId",
          "type": "uint256"
        },
        {
          "internalType": "uint256",
          "name": "priceWei",
          "type": "uint256"
        }
      ],
      "name": "listForResale",
      "outputs": [],
      "stateMutability": "nonpayable",
      "type": "function"
    },
    {
      "inputs": [],
      "name": "name",
      "outputs": [
        {
          "internalType": "string",
          "name": "",
          "type": "string"
        }
      ],
      "stateMutability": "view",
      "type": "function"
    },
    {
      "inputs": [],
      "name": "nextEventId",
      "outputs": [
        {
          "internalType": "uint256",
          "name": "",
          "type": "uint256"
        }
      ],
      "stateMutability": "view",
      "type": "function"
    },
    {
      "inputs": [],
      "name": "nextTokenId",
      "outputs": [
        {
          "internalType": "uint256",
          "name": "",
          "type": "uint256"
        }
      ],
      "stateMutability": "view",
      "type": "function"
    },
    {
      "inputs": [],
      "name": "owner",
      "outputs": [
        {
          "internalType": "address",
          "name": "",
          "type": "address"
        }
      ],
      "stateMutability": "view",
      "type": "function"
    },
    {
      "inputs": [
        {
          "internalType": "uint256",
          "name": "tokenId",
          "type": "uint256"
        }
      ],
      "name": "ownerOf",
      "outputs": [
        {
          "internalType": "address",
          "name": "",
          "type": "address"
        }
      ],
      "stateMutability": "view",
      "type": "function"
    },
    {
      "inputs": [],
      "name": "renounceOwnership",
      "outputs": [],
      "stateMutability": "nonpayable",
      "type": "function"
    },
    {
      "inputs": [
        {
          "internalType": "uint256",
          "name": "",
          "type": "uint256"
        }
      ],
      "name": "resaleListings",
      "outputs": [
        {
          "internalType": "address",
          "name": "seller",
          "type": "address"
        },
        {
          "internalType": "uint256",
          "name": "priceWei",
          "type": "uint256"
        },
        {
          "internalType": "bool",
          "name": "active",
          "type": "bool"
        }
      ],
      "stateMutability": "view",
      "type": "function"
    },
    {
      "inputs": [
        {
          "internalType": "uint256",
          "name": "tokenId",
          "type": "uint256"
        },
        {
          "internalType": "uint256",
          "name": "salePrice",
          "type": "uint256"
        }
      ],
      "name": "royaltyInfo",
      "outputs": [
        {
          "internalType": "address",
          "name": "receiver",
          "type": "address"
        },
        {
          "internalType": "uint256",
          "name": "royaltyAmount",
          "type": "uint256"
        }
      ],
      "stateMutability": "view",
      "type": "function"
    },
    {
      "inputs": [
        {
          "internalType": "address",
          "name": "from",
          "type": "address"
        },
        {
          "internalType": "address",
          "name": "to",
          "type": "address"
        },
        {
          "internalType": "uint256",
          "name": "tokenId",
          "type": "uint256"
        }
      ],
      "name": "safeTransferFrom",
      "outputs": [],
      "stateMutability": "nonpayable",
      "type": "function"
    },
    {
      "inputs": [
        {
          "internalType": "address",
          "name": "from",
          "type": "address"
        },
        {
          "internalType": "address",
          "name": "to",
          "type": "address"
        },
        {
          "internalType": "uint256",
          "name": "tokenId",
          "type": "uint256"
        },
        {
          "internalType": "bytes",
          "name": "data",
          "type": "bytes"
        }
      ],
      "name": "safeTransferFrom",
      "outputs": [],
      "stateMutability": "nonpayable",
      "type": "function"
    },
    {
      "inputs": [
        {
          "internalType": "address",
          "name": "operator",
          "type": "address"
        },
        {
          "internalType": "bool",
          "name": "approved",
          "type": "bool"
        }
      ],
      "name": "setApprovalForAll",
      "outputs": [],
      "stateMutability": "nonpayable",
      "type": "function"
    },
    {
      "inputs": [
        {
          "internalType": "bytes4",
          "name": "interfaceId",
          "type": "bytes4"
        }
      ],
      "name": "supportsInterface",
      "outputs": [
        {
          "internalType": "bool",
          "name": "",
          "type": "bool"
        }
      ],
      "stateMutability": "view",
      "type": "function"
    },
    {
      "inputs": [],
      "name": "symbol",
      "outputs": [
        {
          "internalType": "string",
          "name": "",
          "type": "string"
        }
      ],
      "stateMutability": "view",
      "type": "function"
    },
    {
      "inputs": [
        {
          "internalType": "uint256",
          "name": "",
          "type": "uint256"
        }
      ],
      "name": "tokenToEvent",
      "outputs": [
        {
          "internalType": "uint256",
          "name": "",
          "type": "uint256"
        }
      ],
      "stateMutability": "view",
      "type": "function"
    },
    {
      "inputs": [
        {
          "internalType": "uint256",
          "name": "tokenId",
          "type": "uint256"
        }
      ],
      "name": "tokenURI",
      "outputs": [
        {
          "internalType": "string",
          "name": "",
          "type": "string"
        }
      ],
      "stateMutability": "view",
      "type": "function"
    },
    {
      "inputs": [
        {
          "internalType": "address",
          "name": "from",
          "type": "address"
        },
        {
          "internalType": "address",
          "name": "to",
          "type": "address"
        },
        {
          "internalType": "uint256",
          "name": "tokenId",
          "type": "uint256"
        }
      ],
      "name": "transferFrom",
      "outputs": [],
      "stateMutability": "nonpayable",
      "type": "function"
    },
    {
      "inputs": [
        {
          "internalType": "address",
          "name": "newOwner",
          "type": "address"
        }
      ],
      "name": "transferOwnership",
      "outputs": [],
      "stateMutability": "nonpayable",
      "type": "function"
    }
  ],
  "bytecode": "0x608060405260016008556001600955348015610019575f5ffd5b50336040518060400160405280600e81526020016d139195115d995b9d151a58dad95d60921b8152506040518060400160405280600581526020016409c8aa892b60db1b815250815f908161006e91906101de565b50600161007b82826101de565b50505060016100946100916100d160201b60201c565b90565b556001600160a01b0381166100c257604051631e4fbdf760e01b81525f600482015260240160405180910390fd5b6100cb816100f5565b50610298565b7f9b779b17422d0df92223018b32b4d1fa46e071723d6817e2486d003becc55f0090565b600780546001600160a01b038381166001600160a01b0319831681179093556040519116919082907f8be0079c531659141344cd1fd0a4f28419497f9722a3daafe3b4186f6b6457e0905f90a35050565b634e487b7160e01b5f52604160045260245ffd5b600181811c9082168061016e57607f821691505b60208210810361018c57634e487b7160e01b5f52602260045260245ffd5b50919050565b601f8211156101d957805f5260205f20601f840160051c810160208510156101b75750805b601f840160051c820191505b818110156101d6575f81556001016101c3565b50505b505050565b81516001600160401b038111156101f7576101f7610146565b61020b81610205845461015a565b84610192565b6020601f82116001811461023d575f83156102265750848201515b5f19600385901b1c1916600184901b1784556101d6565b5f84815260208120601f198516915b8281101561026c578785015182556020948501946001909201910161024c565b508482101561028957868401515f19600387901b60f8161c191681555b50505050600190811b01905550565b6126b4806102a55f395ff3fe6080604052600436106101ba575f3560e01c806370a08231116100f2578063b41b4bd411610092578063cc9d707111610062578063cc9d7071146105ce578063e985e9c5146105f9578063ec01990814610618578063f2fde38b14610637575f5ffd5b8063b41b4bd414610483578063b88d4fde146104f1578063b9c9e0de14610510578063c87b56dd146105af575f5ffd5b80638da5cb5b116100cd5780638da5cb5b1461041e57806395d89b411461043b5780639f9d903a1461044f578063a22cb46514610464575f5ffd5b806370a08231146103c8578063715018a6146103f557806375794a3c14610409575f5ffd5b806323b872dd1161015d5780633e1c6058116101385780633e1c60581461034b57806342842e0e146103775780636352211e1461039657806367dd74ca146103b5575f5ffd5b806323b872dd146102cf5780632a55205a146102ee578063384759341461032c575f5ffd5b8063095ea7b311610198578063095ea7b31461024a5780630b7914301461026b5780631d9c5d5c1461029d5780631f7d863c146102b0575f5ffd5b806301ffc9a7146101be57806306fdde03146101f2578063081812fc14610213575b5f5ffd5b3480156101c9575f5ffd5b506101dd6101d8366004612051565b610656565b60405190151581526020015b60405180910390f35b3480156101fd575f5ffd5b50610206610680565b6040516101e9919061209a565b34801561021e575f5ffd5b5061023261022d3660046120ac565b61070f565b6040516001600160a01b0390911681526020016101e9565b348015610255575f5ffd5b506102696102643660046120de565b610736565b005b348015610276575f5ffd5b5061028a6102853660046120ac565b610745565b6040516101e99796959493929190612106565b6102696102ab3660046120ac565b61081f565b3480156102bb575f5ffd5b506102696102ca36600461215d565b610b57565b3480156102da575f5ffd5b506102696102e936600461217d565b610c81565b3480156102f9575f5ffd5b5061030d61030836600461215d565b610d0a565b604080516001600160a01b0390931683526020830191909152016101e9565b348015610337575f5ffd5b506102696103463660046120ac565b610e5b565b348015610356575f5ffd5b5061036a6103653660046120ac565b610f5c565b6040516101e991906121b7565b348015610382575f5ffd5b5061026961039136600461217d565b6110ae565b3480156103a1575f5ffd5b506102326103b03660046120ac565b6110cd565b6102696103c33660046120ac565b6110d7565b3480156103d3575f5ffd5b506103e76103e236600461222e565b6112ee565b6040519081526020016101e9565b348015610400575f5ffd5b50610269611333565b348015610414575f5ffd5b506103e760095481565b348015610429575f5ffd5b506007546001600160a01b0316610232565b348015610446575f5ffd5b50610206611346565b34801561045a575f5ffd5b506103e760085481565b34801561046f575f5ffd5b5061026961047e366004612247565b611355565b34801561048e575f5ffd5b506104ca61049d3660046120ac565b600c6020525f90815260409020805460018201546002909201546001600160a01b03909116919060ff1683565b604080516001600160a01b03909416845260208401929092521515908201526060016101e9565b3480156104fc575f5ffd5b5061026961050b36600461230b565b611360565b34801561051b575f5ffd5b5061058261052a3660046120ac565b60408051606080820183525f8083526020808401829052928401819052938452600c8252928290208251938401835280546001600160a01b031684526001810154918401919091526002015460ff1615159082015290565b6040805182516001600160a01b0316815260208084015190820152918101511515908201526060016101e9565b3480156105ba575f5ffd5b506102066105c93660046120ac565b611378565b3480156105d9575f5ffd5b506103e76105e83660046120ac565b600b6020525f908152604090205481565b348015610604575f5ffd5b506101dd610613366004612382565b6113f9565b348015610623575f5ffd5b506102696106323660046123b3565b611426565b348015610642575f5ffd5b5061026961065136600461222e565b611623565b5f6001600160e01b0319821663152a902d60e11b148061067a575061067a8261165d565b92915050565b60605f805461068e90612430565b80601f01602080910402602001604051908101604052809291908181526020018280546106ba90612430565b80156107055780601f106106dc57610100808354040283529160200191610705565b820191905f5260205f20905b8154815290600101906020018083116106e857829003601f168201915b5050505050905090565b5f61071982611681565b505f828152600460205260409020546001600160a01b031661067a565b6107418282336116b9565b5050565b600a6020525f908152604090208054819061075f90612430565b80601f016020809104026020016040519081016040528092919081815260200182805461078b90612430565b80156107d65780601f106107ad576101008083540402835291602001916107d6565b820191905f5260205f20905b8154815290600101906020018083116107b957829003601f168201915b50505060018401546002850154600386015460048701546005909701549596929591945092506001600160a01b038216916001600160601b03600160a01b909104169060ff1687565b6108276116c6565b5f818152600c6020908152604091829020825160608101845281546001600160a01b031681526001820154928101929092526002015460ff161515918101829052906108a95760405162461bcd60e51b815260206004820152600c60248201526b4e6f7420666f722073616c6560a01b60448201526064015b60405180910390fd5b806020015134146108f35760405162461bcd60e51b8152602060048201526014602482015273125b98dbdc9c9958dd0811551208185b5bdd5b9d60621b60448201526064016108a0565b80516001600160a01b0316610907836110cd565b6001600160a01b03161461095d5760405162461bcd60e51b815260206004820152601c60248201527f53656c6c6572206e6f206c6f6e676572206f776e73207469636b65740000000060448201526064016108a0565b5f5f6109698434610d0a565b90925090505f610979823461247c565b5f868152600c6020526040812080546001600160a01b03191681556001810191909155600201805460ff1916905584519091506109b79033876116e1565b8115610a5e575f836001600160a01b0316836040515f6040518083038185875af1925050503d805f8114610a06576040519150601f19603f3d011682016040523d82523d5f602084013e610a0b565b606091505b5050905080610a5c5760405162461bcd60e51b815260206004820152601760248201527f526f79616c7479207472616e73666572206661696c656400000000000000000060448201526064016108a0565b505b83516040515f916001600160a01b03169083908381818185875af1925050503d805f8114610aa7576040519150601f19603f3d011682016040523d82523d5f602084013e610aac565b606091505b5050905080610af65760405162461bcd60e51b815260206004820152601660248201527514d95b1b195c881d1c985b9cd9995c8819985a5b195960521b60448201526064016108a0565b845160405134815233916001600160a01b03169088907fd59a36d8310ffb140214be490baf3fe8961f859a17199ec1bf9015c8b73400119060200160405180910390a45050505050610b5460015f51602061265f5f395f51905f5255565b50565b33610b61836110cd565b6001600160a01b031614610ba75760405162461bcd60e51b815260206004820152600d60248201526c2737ba103a34329037bbb732b960991b60448201526064016108a0565b5f8111610bea5760405162461bcd60e51b815260206004820152601160248201527005072696365206d757374206265203e203607c1b60448201526064016108a0565b6040805160608101825233808252602080830185815260018486018181525f898152600c8552879020955186546001600160a01b0319166001600160a01b03909116178655915190850155516002909301805460ff191693151593909317909255915183815284917f22968ec3be3687b180f3544163a034b88d57b48159d9a7e9a1b610fdb2d05f80910160405180910390a35050565b6001600160a01b038216610caa57604051633250574960e11b81525f60048201526024016108a0565b5f610cb683833361178e565b9050836001600160a01b0316816001600160a01b031614610d04576040516364283d7b60e01b81526001600160a01b03808616600483015260248201849052821660448201526064016108a0565b50505050565b5f828152600b6020908152604080832054808452600a909252808320815160e0810190925280548493928492909182908290610d4590612430565b80601f0160208091040260200160405190810160405280929190818152602001828054610d7190612430565b8015610dbc5780601f10610d9357610100808354040283529160200191610dbc565b820191905f5260205f20905b815481529060010190602001808311610d9f57829003601f168201915b505050918352505060018201546020820152600282015460408201526003820154606082015260048201546001600160a01b03811660808301526001600160601b03600160a01b909104811660a08084019190915260059093015460ff16151560c090920191909152908201519192505f9161271091610e3d91168861248f565b610e4791906124a6565b608090920151945090925050509250929050565b5f818152600c602052604090206002015460ff16610eaf5760405162461bcd60e51b81526020600482015260116024820152704e6f20616374697665206c697374696e6760781b60448201526064016108a0565b5f818152600c60205260409020546001600160a01b03163314610f055760405162461bcd60e51b815260206004820152600e60248201526d2737ba103a34329039b2b63632b960911b60448201526064016108a0565b5f818152600c602052604080822080546001600160a01b031916815560018101839055600201805460ff191690555182917f411aee90354c51b1b04cd563fcab2617142a9d50da19232d888547c8a1b7fd8a91a250565b610faa6040518060e00160405280606081526020015f81526020015f81526020015f81526020015f6001600160a01b031681526020015f6001600160601b031681526020015f151581525090565b5f828152600a602052604090819020815160e08101909252805482908290610fd190612430565b80601f0160208091040260200160405190810160405280929190818152602001828054610ffd90612430565b80156110485780601f1061101f57610100808354040283529160200191611048565b820191905f5260205f20905b81548152906001019060200180831161102b57829003601f168201915b505050918352505060018201546020820152600282015460408201526003820154606082015260048201546001600160a01b0381166080830152600160a01b90046001600160601b031660a082015260059091015460ff16151560c09091015292915050565b6110c883838360405180602001604052805f815250611360565b505050565b5f61067a82611681565b6110df6116c6565b5f818152600a60205260409020600581015460ff166111375760405162461bcd60e51b8152602060048201526014602482015273115d995b9d08191bd95cc81b9bdd08195e1a5cdd60621b60448201526064016108a0565b806002015434101561118b5760405162461bcd60e51b815260206004820152601760248201527f496e73756666696369656e742045544820616d6f756e7400000000000000000060448201526064016108a0565b80600101548160030154106111cd5760405162461bcd60e51b815260206004820152600860248201526714dbdb19081bdd5d60c21b60448201526064016108a0565b600980549081905f6111de836124c5565b9091555050600382018054905f6111f4836124c5565b90915550505f818152600b602052604090208390556112133382611880565b60048201546040515f916001600160a01b03169034908381818185875af1925050503d805f811461125f576040519150601f19603f3d011682016040523d82523d5f602084013e611264565b606091505b50509050806112a75760405162461bcd60e51b815260206004820152600f60248201526e151c985b9cd9995c8819985a5b1959608a1b60448201526064016108a0565b6040513390859084907f085ec0eff4bf526b0dd054adffcd8bd8da42126a1133ce302042973f32029fb0905f90a4505050610b5460015f51602061265f5f395f51905f5255565b5f6001600160a01b038216611318576040516322718ad960e21b81525f60048201526024016108a0565b506001600160a01b03165f9081526003602052604090205490565b61133b611899565b6113445f6118c6565b565b60606001805461068e90612430565b610741338383611917565b61136b848484610c81565b610d0433858585856119de565b606061138382611681565b505f61139960408051602081019091525f815290565b90505f6113a584611b06565b905081515f036113b6579392505050565b8051156113e85781816040516020016113d09291906124f4565b60405160208183030381529060405292505050919050565b6113f184611ba5565b949350505050565b6001600160a01b039182165f90815260056020908152604080832093909416825291909152205460ff1690565b5f84511161146d5760405162461bcd60e51b81526020600482015260146024820152734e616d652063616e6e6f7420626520656d70747960601b60448201526064016108a0565b5f83116114b05760405162461bcd60e51b81526020600482015260116024820152704d7573742068617665207469636b65747360781b60448201526064016108a0565b612710816001600160601b0316111561150b5760405162461bcd60e51b815260206004820152601a60248201527f526f79616c74792063616e6e6f7420657863656564203130302500000000000060448201526064016108a0565b6040805160e08101825285815260208082018690528183018590525f606083018190523360808401526001600160601b03851660a0840152600160c08401526008548152600a9091529190912081518190611566908261254c565b5060208201516001820155604080830151600283015560608301516003830155608083015160a08401516001600160601b0316600160a01b026001600160a01b0390911617600483015560c0909201516005909101805491151560ff1990921691909117905560085490513391907ffc695dea2478fb938a11068aeedddd7046a5fe655f136e30a325d353fe187a459061160190889061209a565b60405180910390a360088054905f611618836124c5565b919050555050505050565b61162b611899565b6001600160a01b03811661165457604051631e4fbdf760e01b81525f60048201526024016108a0565b610b54816118c6565b5f6001600160e01b03198216632483248360e11b148061067a575061067a82611c16565b5f818152600260205260408120546001600160a01b03168061067a57604051637e27328960e01b8152600481018490526024016108a0565b6110c88383836001611c65565b6116ce611d69565b60025f51602061265f5f395f51905f5255565b6001600160a01b03821661170a57604051633250574960e11b81525f60048201526024016108a0565b5f61171683835f61178e565b90506001600160a01b03811661174257604051637e27328960e01b8152600481018390526024016108a0565b836001600160a01b0316816001600160a01b031614610d04576040516364283d7b60e01b81526001600160a01b03808616600483015260248201849052821660448201526064016108a0565b5f828152600260205260408120546001600160a01b03908116908316156117ba576117ba818486611d98565b6001600160a01b038116156117f4576117d55f855f5f611c65565b6001600160a01b0381165f90815260036020526040902080545f190190555b6001600160a01b03851615611822576001600160a01b0385165f908152600360205260409020805460010190555b5f8481526002602052604080822080546001600160a01b0319166001600160a01b0389811691821790925591518793918516917fddf252ad1be2c89b69c2b068fc378daa952ba7f163c4a11628f55a4df523b3ef91a4949350505050565b610741828260405180602001604052805f815250611dfc565b6007546001600160a01b031633146113445760405163118cdaa760e01b81523360048201526024016108a0565b600780546001600160a01b038381166001600160a01b0319831681179093556040519116919082907f8be0079c531659141344cd1fd0a4f28419497f9722a3daafe3b4186f6b6457e0905f90a35050565b6001600160a01b0383166119405760405163a9fbf51f60e01b81525f60048201526024016108a0565b6001600160a01b03821661197257604051630b61174360e31b81526001600160a01b03831660048201526024016108a0565b6001600160a01b038381165f81815260056020908152604080832094871680845294825291829020805460ff191686151590811790915591519182527f17307eab39ab6107e8899845ad3d59bd9653f200f220920489ca2b5937696c31910160405180910390a3505050565b6001600160a01b0383163b15611aff57604051630a85bd0160e11b81526001600160a01b0384169063150b7a0290611a20908890889087908790600401612607565b6020604051808303815f875af1925050508015611a5a575060408051601f3d908101601f19168201909252611a5791810190612643565b60015b611ac1573d808015611a87576040519150601f19603f3d011682016040523d82523d5f602084013e611a8c565b606091505b5080515f03611ab957604051633250574960e11b81526001600160a01b03851660048201526024016108a0565b805160208201fd5b6001600160e01b03198116630a85bd0160e11b14611afd57604051633250574960e11b81526001600160a01b03851660048201526024016108a0565b505b5050505050565b5f818152600660205260409020805460609190611b2290612430565b80601f0160208091040260200160405190810160405280929190818152602001828054611b4e90612430565b8015611b995780601f10611b7057610100808354040283529160200191611b99565b820191905f5260205f20905b815481529060010190602001808311611b7c57829003601f168201915b50505050509050919050565b6060611bb082611681565b505f611bc660408051602081019091525f815290565b90505f815111611be45760405180602001604052805f815250611c0f565b80611bee84611e13565b604051602001611bff9291906124f4565b6040516020818303038152906040525b9392505050565b5f6001600160e01b031982166380ac58cd60e01b1480611c4657506001600160e01b03198216635b5e139f60e01b145b8061067a57506301ffc9a760e01b6001600160e01b031983161461067a565b8080611c7957506001600160a01b03821615155b15611d3a575f611c8884611681565b90506001600160a01b03831615801590611cb45750826001600160a01b0316816001600160a01b031614155b8015611cc75750611cc581846113f9565b155b15611cf05760405163a9fbf51f60e01b81526001600160a01b03841660048201526024016108a0565b8115611d385783856001600160a01b0316826001600160a01b03167f8c5be1e5ebec7d5bd14f71427d1e84f3dd0314c0f7b2291e5b200ac8c7c3b92560405160405180910390a45b505b50505f90815260046020526040902080546001600160a01b0319166001600160a01b0392909216919091179055565b5f51602061265f5f395f51905f525460020361134457604051633ee5aeb560e01b815260040160405180910390fd5b611da3838383611ea3565b6110c8576001600160a01b038316611dd157604051637e27328960e01b8152600481018290526024016108a0565b60405163177e802f60e01b81526001600160a01b0383166004820152602481018290526044016108a0565b611e068383611f04565b6110c8335f8585856119de565b60605f611e1f83611f65565b60010190505f8167ffffffffffffffff811115611e3e57611e3e612280565b6040519080825280601f01601f191660200182016040528015611e68576020820181803683370190505b5090508181016020015b5f19016f181899199a1a9b1b9c1cb0b131b232b360811b600a86061a8153600a8504945084611e7257509392505050565b5f6001600160a01b038316158015906113f15750826001600160a01b0316846001600160a01b03161480611edc5750611edc84846113f9565b806113f15750505f908152600460205260409020546001600160a01b03908116911614919050565b6001600160a01b038216611f2d57604051633250574960e11b81525f60048201526024016108a0565b5f611f3983835f61178e565b90506001600160a01b038116156110c8576040516339e3563760e11b81525f60048201526024016108a0565b5f8072184f03e93ff9f4daa797ed6e38ed64bf6a1f0160401b8310611fa35772184f03e93ff9f4daa797ed6e38ed64bf6a1f0160401b830492506040015b6d04ee2d6d415b85acef81000000008310611fcf576d04ee2d6d415b85acef8100000000830492506020015b662386f26fc100008310611fed57662386f26fc10000830492506010015b6305f5e1008310612005576305f5e100830492506008015b612710831061201957612710830492506004015b6064831061202b576064830492506002015b600a831061067a5760010192915050565b6001600160e01b031981168114610b54575f5ffd5b5f60208284031215612061575f5ffd5b8135611c0f8161203c565b5f81518084528060208401602086015e5f602082860101526020601f19601f83011685010191505092915050565b602081525f611c0f602083018461206c565b5f602082840312156120bc575f5ffd5b5035919050565b80356001600160a01b03811681146120d9575f5ffd5b919050565b5f5f604083850312156120ef575f5ffd5b6120f8836120c3565b946020939093013593505050565b60e081525f61211860e083018a61206c565b602083019890985250604081019590955260608501939093526001600160a01b039190911660808401526001600160601b031660a0830152151560c090910152919050565b5f5f6040838503121561216e575f5ffd5b50508035926020909101359150565b5f5f5f6060848603121561218f575f5ffd5b612198846120c3565b92506121a6602085016120c3565b929592945050506040919091013590565b602081525f825160e060208401526121d361010084018261206c565b905060208401516040840152604084015160608401526060840151608084015260018060a01b0360808501511660a08401526001600160601b0360a08501511660c084015260c0840151151560e08401528091505092915050565b5f6020828403121561223e575f5ffd5b611c0f826120c3565b5f5f60408385031215612258575f5ffd5b612261836120c3565b915060208301358015158114612275575f5ffd5b809150509250929050565b634e487b7160e01b5f52604160045260245ffd5b5f5f67ffffffffffffffff8411156122ae576122ae612280565b50604051601f19601f85018116603f0116810181811067ffffffffffffffff821117156122dd576122dd612280565b6040528381529050808284018510156122f4575f5ffd5b838360208301375f60208583010152509392505050565b5f5f5f5f6080858703121561231e575f5ffd5b612327856120c3565b9350612335602086016120c3565b925060408501359150606085013567ffffffffffffffff811115612357575f5ffd5b8501601f81018713612367575f5ffd5b61237687823560208401612294565b91505092959194509250565b5f5f60408385031215612393575f5ffd5b61239c836120c3565b91506123aa602084016120c3565b90509250929050565b5f5f5f5f608085870312156123c6575f5ffd5b843567ffffffffffffffff8111156123dc575f5ffd5b8501601f810187136123ec575f5ffd5b6123fb87823560208401612294565b945050602085013592506040850135915060608501356001600160601b0381168114612425575f5ffd5b939692955090935050565b600181811c9082168061244457607f821691505b60208210810361246257634e487b7160e01b5f52602260045260245ffd5b50919050565b634e487b7160e01b5f52601160045260245ffd5b8181038181111561067a5761067a612468565b808202811582820484141761067a5761067a612468565b5f826124c057634e487b7160e01b5f52601260045260245ffd5b500490565b5f600182016124d6576124d6612468565b5060010190565b5f81518060208401855e5f93019283525090919050565b5f6113f161250283866124dd565b846124dd565b601f8211156110c857805f5260205f20601f840160051c8101602085101561252d5750805b601f840160051c820191505b81811015611aff575f8155600101612539565b815167ffffffffffffffff81111561256657612566612280565b61257a816125748454612430565b84612508565b6020601f8211600181146125ac575f83156125955750848201515b5f19600385901b1c1916600184901b178455611aff565b5f84815260208120601f198516915b828110156125db57878501518255602094850194600190920191016125bb565b50848210156125f857868401515f19600387901b60f8161c191681555b50505050600190811b01905550565b6001600160a01b03858116825284166020820152604081018390526080606082018190525f906126399083018461206c565b9695505050505050565b5f60208284031215612653575f5ffd5b8151611c0f8161203c56fe9b779b17422d0df92223018b32b4d1fa46e071723d6817e2486d003becc55f00a2646970667358221220f4ce60d6836c543ca775c6210d0a8ee5dde853774d98afdd25f1fcb89ce1489964736f6c634300081c0033",
  "linkReferences": {},
  "deployedLinkReferences": {}
}