{
  "_format": "hh-sol-artifact-1",
  "contractName": "NFTTicket",
  "sourceName": "contracts/NFTTicket.sol",
  "abi": [
    {
      "inputs": [],
      "stateMutability": "nonpayable",
      "type": "constructor"
    },
    {
      "inputs": [
        {
          "internalType": "address",
          "name": "sender",
          "type": "address"
        },
        {
          "internalType": "uint256",
          "name": "tokenId",
          "type": "uint256"
        },
        {
          "internalType": "address",
          "name": "owner",
          "type": "address"
        }
      ],
      "name": "ERC721IncorrectOwner",
      "type": "error"
    },
    {
      "inputs": [
        {
          "internalType": "address",
          "name": "operator",
          "type": "address"
        },
        {
          "internalType": "uint256",
          "name": "tokenId",
          "type": "uint256"
        }
      ],
      "name": "ERC721InsufficientApproval",
      "type": "error"
    },
    {
      "inputs": [
        {
          "internalType": "address",
          "name": "approver",
          "type": "address"
        }
      ],
      "name": "ERC721InvalidApprover",
      "type": "error"
    },
    {
      "inputs": [
        {
          "internalType": "address",
          "name": "operator",
          "type": "address"
        }
      ],
      "name": "ERC721InvalidOperator",
      "type": "error"
    },
    {
      "inputs": [
        {
          "internalType": "address",
          "name": "owner",
          "type": "address"
        }
      ],
      "name": "ERC721InvalidOwner",
      "type": "error"
    },
    {
      "inputs": [
        {
          "internalType": "address",
          "name": "receiver",
          "type": "address"
        }
      ],
      "name": "ERC721InvalidReceiver",
      "type": "error"
    },
    {
      "inputs": [
        {
          "internalType": "address",
          "name": "sender",
          "type": "address"
        }
      ],
      "name": "ERC721InvalidSender",
      "type": "error"
    },
    {
      "inputs": [
        {
          "internalType": "uint256",
          "name": "tokenId",
          "type": "uint256"
        }
      ],
      "name": "ERC721NonexistentToken",
      "type": "error"
    },
    {
      "inputs": [],
      "name": "ReentrancyGuardReentrantCall",
      "type": "error"
    },
    {
      "anonymous": false,
      "inputs": [
        {
          "indexed": true,
          "internalType": "address",
          "name": "owner",
          "type": "address"
        },
        {
          "indexed": true,
          "internalType": "address",
          "name": "approved",
          "type": "address"
        },
        {
          "indexed": true,
          "internalType": "uint256",
          "name": "tokenId",
          "type": "uint256"
        }
      ],
      "name": "Approval",
      "type": "event"
    },
    {
      "anonymous": false,
      "inputs": [
        {
          "indexed": true,
          "internalType": "address",
          "name": "owner",
          "type": "address"
        },
        {
          "indexed": true,
          "internalType": "address",
          "name": "operator",
          "type": "address"
        },
        {
          "indexed": false,
          "internalType": "bool",
          "name": "approved",
          "type": "bool"
        }
      ],
      "name": "ApprovalForAll",
      "type": "event"
    },
    {
      "anonymous": false,
      "inputs": [
        {
          "indexed": true,
          "internalType": "uint256",
          "name": "eventId",
          "type": "uint256"
        },
        {
          "indexed": true,
          "internalType": "address",
          "name": "organiser",
          "type": "address"
        },
        {
          "indexed": false,
          "internalType": "string",
          "name": "ipfsHash",
          "type": "string"
        }
      ],
      "name": "EventCreated",
      "type": "event"
    },
    {
      "anonymous": false,
      "inputs": [
        {
          "indexed": true,
          "internalType": "uint256",
          "name": "eventId",
          "type": "uint256"
        },
        {
          "indexed": false,
          "internalType": "uint24",
          "name": "newMaxTickets",
          "type": "uint24"
        },
        {
          "indexed": false,
          "internalType": "uint40",
          "name": "newPriceWei",
          "type": "uint40"
        }
      ],
      "name": "EventUpdated",
      "type": "event"
    },
    {
      "anonymous": false,
      "inputs": [
        {
          "indexed": true,
          "internalType": "uint256",
          "name": "tokenId",
          "type": "uint256"
        }
      ],
      "name": "ListingCancelled",
      "type": "event"
    },
    {
      "anonymous": false,
      "inputs": [
        {
          "indexed": true,
          "internalType": "uint256",
          "name": "tokenId",
          "type": "uint256"
        },
        {
          "indexed": true,
          "internalType": "address",
          "name": "seller",
          "type": "address"
        },
        {
          "indexed": false,
          "internalType": "uint48",
          "name": "priceWei",
          "type": "uint48"
        }
      ],
      "name": "TicketListed",
      "type": "event"
    },
    {
      "anonymous": false,
      "inputs": [
        {
          "indexed": true,
          "internalType": "uint256",
          "name": "tokenId",
          "type": "uint256"
        },
        {
          "indexed": true,
          "internalType": "uint256",
          "name": "eventId",
          "type": "uint256"
        },
        {
          "indexed": true,
          "internalType": "address",
          "name": "buyer",
          "type": "address"
        },
        {
          "indexed": false,
          "internalType": "uint8",
          "name": "tier",
          "type": "uint8"
        }
      ],
      "name": "TicketMinted",
      "type": "event"
    },
    {
      "anonymous": false,
      "inputs": [
        {
          "indexed": true,
          "internalType": "uint256",
          "name": "tokenId",
          "type": "uint256"
        },
        {
          "indexed": true,
          "internalType": "address",
          "name": "oldOwner",
          "type": "address"
        },
        {
          "indexed": true,
          "internalType": "address",
          "name": "newOwner",
          "type": "address"
        },
        {
          "indexed": false,
          "internalType": "uint48",
          "name": "priceWei",
          "type": "uint48"
        }
      ],
      "name": "TicketResold",
      "type": "event"
    },
    {
      "anonymous": false,
      "inputs": [
        {
          "indexed": true,
          "internalType": "address",
          "name": "from",
          "type": "address"
        },
        {
          "indexed": true,
          "internalType": "address",
          "name": "to",
          "type": "address"
        },
        {
          "indexed": true,
          "internalType": "uint256",
          "name": "tokenId",
          "type": "uint256"
        }
      ],
      "name": "Transfer",
      "type": "event"
    },
    {
      "inputs": [
        {
          "internalType": "address",
          "name": "to",
          "type": "address"
        },
        {
          "internalType": "uint256",
          "name": "tokenId",
          "type": "uint256"
        }
      ],
      "name": "approve",
      "outputs": [],
      "stateMutability": "nonpayable",
      "type": "function"
    },
    {
      "inputs": [
        {
          "internalType": "address",
          "name": "owner",
          "type": "address"
        }
      ],
      "name": "balanceOf",
      "outputs": [
        {
          "internalType": "uint256",
          "name": "",
          "type": "uint256"
        }
      ],
      "stateMutability": "view",
      "type": "function"
    },
    {
      "inputs": [
        {
          "internalType": "uint256",
          "name": "eventId",
          "type": "uint256"
        },
        {
          "internalType": "uint8[]",
          "name": "tiers",
          "type": "uint8[]"
        },
        {
          "internalType": "uint24[]",
          "name": "quantities",
          "type": "uint24[]"
        },
        {
          "internalType": "uint40[]",
          "name": "pricesGwei",
          "type": "uint40[]"
        }
      ],
      "name": "buyBatchTickets",
      "outputs": [],
      "stateMutability": "payable",
      "type": "function"
    },
    {
      "inputs": [
        {
          "internalType": "uint256",
          "name": "tokenId",
          "type": "uint256"
        }
      ],
      "name": "buyResaleTicket",
      "outputs": [],
      "stateMutability": "payable",
      "type": "function"
    },
    {
      "inputs": [
        {
          "internalType": "uint256",
          "name": "eventId",
          "type": "uint256"
        },
        {
          "internalType": "uint24",
          "name": "quantity",
          "type": "uint24"
        },
        {
          "internalType": "uint8",
          "name": "tier",
          "type": "uint8"
        }
      ],
      "name": "buyTicket",
      "outputs": [],
      "stateMutability": "payable",
      "type": "function"
    },
    {
      "inputs": [
        {
          "internalType": "uint256",
          "name": "tokenId",
          "type": "uint256"
        }
      ],
      "name": "cancelResaleListing",
      "outputs": [],
      "stateMutability": "nonpayable",
      "type": "function"
    },
    {
      "inputs": [
        {
          "internalType": "string",
          "name": "ipfsHash",
          "type": "string"
        },
        {
          "internalType": "uint24",
          "name": "maxTickets",
          "type": "uint24"
        },
        {
          "internalType": "uint40",
          "name": "priceWei",
          "type": "uint40"
        },
        {
          "internalType": "uint8",
          "name": "royaltyBps",
          "type": "uint8"
        },
        {
          "internalType": "uint8[]",
          "name": "tierIds",
          "type": "uint8[]"
        },
        {
          "internalType": "uint24[]",
          "name": "tierSupplies",
          "type": "uint24[]"
        }
      ],
      "name": "createEvent",
      "outputs": [],
      "stateMutability": "nonpayable",
      "type": "function"
    },
    {
      "inputs": [
        {
          "internalType": "uint256",
          "name": "eventId",
          "type": "uint256"
        },
        {
          "internalType": "uint24",
          "name": "newMaxTickets",
          "type": "uint24"
        },
        {
          "internalType": "uint40",
          "name": "newPriceWei",
          "type": "uint40"
        },
        {
          "internalType": "uint8[]",
          "name": "tierIds",
          "type": "uint8[]"
        },
        {
          "internalType": "uint24[]",
          "name": "tierSupplies",
          "type": "uint24[]"
        }
      ],
      "name": "editEvent",
      "outputs": [],
      "stateMutability": "nonpayable",
      "type": "function"
    },
    {
      "inputs": [
        {
          "internalType": "uint256",
          "name": "",
          "type": "uint256"
        }
      ],
      "name": "events",
      "outputs": [
        {
          "internalType": "address",
          "name": "organiser",
          "type": "address"
        },
        {
          "internalType": "uint40",
          "name": "priceWei",
          "type": "uint40"
        },
        {
          "internalType": "uint24",
          "name": "maxTickets",
          "type": "uint24"
        },
        {
          "internalType": "uint24",
          "name": "ticketsSold",
          "type": "uint24"
        },
        {
          "internalType": "uint8",
          "name": "royaltyBps",
          "type": "uint8"
        }
      ],
      "stateMutability": "view",
      "type": "function"
    },
    {
      "inputs": [
        {
          "internalType": "uint256",
          "name": "eventId",
          "type": "uint256"
        }
      ],
      "name": "fetchEventData",
      "outputs": [
        {
          "components": [
            {
              "internalType": "address",
              "name": "organiser",
              "type": "address"
            },
            {
              "internalType": "uint40",
              "name": "priceWei",
              "type": "uint40"
            },
            {
              "internalType": "uint24",
              "name": "maxTickets",
              "type": "uint24"
            },
            {
              "internalType": "uint24",
              "name": "ticketsSold",
              "type": "uint24"
            },
            {
              "internalType": "uint8",
              "name": "royaltyBps",
              "type": "uint8"
            }
          ],
          "internalType": "struct NFTTicket.Event",
          "name": "",
          "type": "tuple"
        }
      ],
      "stateMutability": "view",
      "type": "function"
    },
    {
      "inputs": [
        {
          "internalType": "uint256",
          "name": "tokenId",
          "type": "uint256"
        }
      ],
      "name": "getApproved",
      "outputs": [
        {
          "internalType": "address",
          "name": "",
          "type": "address"
        }
      ],
      "stateMutability": "view",
      "type": "function"
    },
    {
      "inputs": [
        {
          "internalType": "uint256",
          "name": "tokenId",
          "type": "uint256"
        }
      ],
      "name": "getResaleListing",
      "outputs": [
        {
          "components": [
            {
              "internalType": "address",
              "name": "seller",
              "type": "address"
            },
            {
              "internalType": "uint48",
              "name": "priceWei",
              "type": "uint48"
            },
            {
              "internalType": "bool",
              "name": "active",
              "type": "bool"
            }
          ],
          "internalType": "struct NFTTicket.ResaleListing",
          "name": "",
          "type": "tuple"
        }
      ],
      "stateMutability": "view",
      "type": "function"
    },
    {
      "inputs": [
        {
          "internalType": "uint256",
          "name": "eventId",
          "type": "uint256"
        },
        {
          "internalType": "uint8",
          "name": "tier",
          "type": "uint8"
        }
      ],
      "name": "getTierData",
      "outputs": [
        {
          "internalType": "uint24",
          "name": "sold",
          "type": "uint24"
        },
        {
          "internalType": "uint24",
          "name": "max",
          "type": "uint24"
        }
      ],
      "stateMutability": "view",
      "type": "function"
    },
    {
      "inputs": [
        {
          "internalType": "uint256",
          "name": "tokenId",
          "type": "uint256"
        }
      ],
      "name": "getTokenPurchasePrice",
      "outputs": [
        {
          "internalType": "uint48",
          "name": "",
          "type": "uint48"
        }
      ],
      "stateMutability": "view",
      "type": "function"
    },
    {
      "inputs": [
        {
          "internalType": "address",
          "name": "owner",
          "type": "address"
        },
        {
          "internalType": "address",
          "name": "operator",
          "type": "address"
        }
      ],
      "name": "isApprovedForAll",
      "outputs": [
        {
          "internalType": "bool",
          "name": "",
          "type": "bool"
        }
      ],
      "stateMutability": "view",
      "type": "function"
    },
    {
      "inputs": [
        {
          "internalType": "uint256",
          "name": "tokenId",
          "type": "uint256"
        },
        {
          "internalType": "uint48",
          "name": "priceWei",
          "type": "uint48"
        }
      ],
      "name": "listForResale",
      "outputs": [],
      "stateMutability": "nonpayable",
      "type": "function"
    },
    {
      "inputs": [],
      "name": "name",
      "outputs": [
        {
          "internalType": "string",
          "name": "",
          "type": "string"
        }
      ],
      "stateMutability": "view",
      "type": "function"
    },
    {
      "inputs": [],
      "name": "nextEventId",
      "outputs": [
        {
          "internalType": "uint256",
          "name": "",
          "type": "uint256"
        }
      ],
      "stateMutability": "view",
      "type": "function"
    },
    {
      "inputs": [],
      "name": "nextTokenId",
      "outputs": [
        {
          "internalType": "uint256",
          "name": "",
          "type": "uint256"
        }
      ],
      "stateMutability": "view",
      "type": "function"
    },
    {
      "inputs": [
        {
          "internalType": "uint256",
          "name": "tokenId",
          "type": "uint256"
        }
      ],
      "name": "ownerOf",
      "outputs": [
        {
          "internalType": "address",
          "name": "",
          "type": "address"
        }
      ],
      "stateMutability": "view",
      "type": "function"
    },
    {
      "inputs": [
        {
          "internalType": "uint256",
          "name": "",
          "type": "uint256"
        }
      ],
      "name": "resaleListings",
      "outputs": [
        {
          "internalType": "address",
          "name": "seller",
          "type": "address"
        },
        {
          "internalType": "uint48",
          "name": "priceWei",
          "type": "uint48"
        },
        {
          "internalType": "bool",
          "name": "active",
          "type": "bool"
        }
      ],
      "stateMutability": "view",
      "type": "function"
    },
    {
      "inputs": [
        {
          "internalType": "uint256",
          "name": "tokenId",
          "type": "uint256"
        },
        {
          "internalType": "uint256",
          "name": "salePrice",
          "type": "uint256"
        }
      ],
      "name": "royaltyInfo",
      "outputs": [
        {
          "internalType": "address",
          "name": "receiver",
          "type": "address"
        },
        {
          "internalType": "uint256",
          "name": "royaltyAmount",
          "type": "uint256"
        }
      ],
      "stateMutability": "view",
      "type": "function"
    },
    {
      "inputs": [
        {
          "internalType": "address",
          "name": "from",
          "type": "address"
        },
        {
          "internalType": "address",
          "name": "to",
          "type": "address"
        },
        {
          "internalType": "uint256",
          "name": "tokenId",
          "type": "uint256"
        }
      ],
      "name": "safeTransferFrom",
      "outputs": [],
      "stateMutability": "nonpayable",
      "type": "function"
    },
    {
      "inputs": [
        {
          "internalType": "address",
          "name": "from",
          "type": "address"
        },
        {
          "internalType": "address",
          "name": "to",
          "type": "address"
        },
        {
          "internalType": "uint256",
          "name": "tokenId",
          "type": "uint256"
        },
        {
          "internalType": "bytes",
          "name": "data",
          "type": "bytes"
        }
      ],
      "name": "safeTransferFrom",
      "outputs": [],
      "stateMutability": "nonpayable",
      "type": "function"
    },
    {
      "inputs": [
        {
          "internalType": "address",
          "name": "operator",
          "type": "address"
        },
        {
          "internalType": "bool",
          "name": "approved",
          "type": "bool"
        }
      ],
      "name": "setApprovalForAll",
      "outputs": [],
      "stateMutability": "nonpayable",
      "type": "function"
    },
    {
      "inputs": [
        {
          "internalType": "bytes4",
          "name": "interfaceId",
          "type": "bytes4"
        }
      ],
      "name": "supportsInterface",
      "outputs": [
        {
          "internalType": "bool",
          "name": "",
          "type": "bool"
        }
      ],
      "stateMutability": "view",
      "type": "function"
    },
    {
      "inputs": [],
      "name": "symbol",
      "outputs": [
        {
          "internalType": "string",
          "name": "",
          "type": "string"
        }
      ],
      "stateMutability": "view",
      "type": "function"
    },
    {
      "inputs": [
        {
          "internalType": "uint256",
          "name": "",
          "type": "uint256"
        },
        {
          "internalType": "uint8",
          "name": "",
          "type": "uint8"
        }
      ],
      "name": "tierMaxTickets",
      "outputs": [
        {
          "internalType": "uint24",
          "name": "",
          "type": "uint24"
        }
      ],
      "stateMutability": "view",
      "type": "function"
    },
    {
      "inputs": [
        {
          "internalType": "uint256",
          "name": "",
          "type": "uint256"
        },
        {
          "internalType": "uint8",
          "name": "",
          "type": "uint8"
        }
      ],
      "name": "tierTicketsSold",
      "outputs": [
        {
          "internalType": "uint24",
          "name": "",
          "type": "uint24"
        }
      ],
      "stateMutability": "view",
      "type": "function"
    },
    {
      "inputs": [
        {
          "internalType": "uint256",
          "name": "",
          "type": "uint256"
        }
      ],
      "name": "tokenPurchasePrice",
      "outputs": [
        {
          "internalType": "uint48",
          "name": "",
          "type": "uint48"
        }
      ],
      "stateMutability": "view",
      "type": "function"
    },
    {
      "inputs": [
        {
          "internalType": "uint256",
          "name": "",
          "type": "uint256"
        }
      ],
      "name": "tokenToEvent",
      "outputs": [
        {
          "internalType": "uint256",
          "name": "",
          "type": "uint256"
        }
      ],
      "stateMutability": "view",
      "type": "function"
    },
    {
      "inputs": [
        {
          "internalType": "uint256",
          "name": "",
          "type": "uint256"
        }
      ],
      "name": "tokenToTier",
      "outputs": [
        {
          "internalType": "uint8",
          "name": "",
          "type": "uint8"
        }
      ],
      "stateMutability": "view",
      "type": "function"
    },
    {
      "inputs": [
        {
          "internalType": "uint256",
          "name": "tokenId",
          "type": "uint256"
        }
      ],
      "name": "tokenURI",
      "outputs": [
        {
          "internalType": "string",
          "name": "",
          "type": "string"
        }
      ],
      "stateMutability": "view",
      "type": "function"
    },
    {
      "inputs": [
        {
          "internalType": "address",
          "name": "from",
          "type": "address"
        },
        {
          "internalType": "address",
          "name": "to",
          "type": "address"
        },
        {
          "internalType": "uint256",
          "name": "tokenId",
          "type": "uint256"
        }
      ],
      "name": "transferFrom",
      "outputs": [],
      "stateMutability": "nonpayable",
      "type": "function"
    }
  ],
  "bytecode": "0x60806040523461034257604080519081016001600160401b03811182821017610258576040908152600e82526d139195115d995b9d151a58dad95d60921b602083015280519081016001600160401b0381118282101761025857604052600581526409c8aa892b60db1b602082015281516001600160401b038111610258575f54600181811c91168015610338575b602082101461023a57601f81116102d6575b50602092601f821160011461027757928192935f9261026c575b50508160011b915f199060031b1c1916175f555b80516001600160401b03811161025857600154600181811c9116801561024e575b602082101461023a57601f81116101d7575b50602091601f8211600114610177579181925f9261016c575b50508160011b915f199060031b1c1916176001555b60017f9b779b17422d0df92223018b32b4d1fa46e071723d6817e2486d003becc55f0055600160065560016007556040516128d690816103478239f35b015190505f8061011a565b601f1982169260015f52805f20915f5b8581106101bf575083600195106101a7575b505050811b0160015561012f565b01515f1960f88460031b161c191690555f8080610199565b91926020600181928685015181550194019201610187565b60015f527fb10e2d527612073b26eecdfd717e6a320cf44b4afac2b0732d9fcbe2b7fa0cf6601f830160051c81019160208410610230575b601f0160051c01905b8181106102255750610101565b5f8155600101610218565b909150819061020f565b634e487b7160e01b5f52602260045260245ffd5b90607f16906100ef565b634e487b7160e01b5f52604160045260245ffd5b015190505f806100ba565b601f198216935f8052805f20915f5b8681106102be57508360019596106102a6575b505050811b015f556100ce565b01515f1960f88460031b161c191690555f8080610299565b91926020600181928685015181550194019201610286565b5f80527f290decd9548b62a8d60345a988386fc84ba6bc95484008f6362f93160ef3e563601f830160051c8101916020841061032e575b601f0160051c01905b81811061032357506100a0565b5f8155600101610316565b909150819061030d565b90607f169061008e565b5f80fdfe6080806040526004361015610012575f80fd5b5f905f3560e01c90816301ffc9a714611d1d5750806306fdde0314611c65578063081812fc14611c29578063095ea7b314611b3f5780630b79143014611ada5780631d9c5d5c1461179f57806322d43a521461136d57806323b872dd146113565780632932c76d146112f25780632a55205a146112bb57806334bcadb61461128e57806338475934146111b25780633c141e921461116e5780633e1c6058146110a957806342842e0e1461107a5780636352211e1461104a57806370a0823114610ff957806375794a3c14610fdc57806393e9a89d14610d4057806395d89b4114610c385780639e408d4c14610b355780639f9d903a14610c1b578063a22cb46514610b67578063a77a111714610b35578063b41b4bd414610ae4578063b7ae23531461078c578063b88d4fde1461071f578063b9c9e0de14610691578063c205dfd1146103e3578063c87b56dd14610386578063cc9d70711461035c578063d24c3a4f14610233578063e3a462d3146101ee5763e985e9c514610194575f80fd5b346101eb5760403660031901126101eb5760406101af611dc6565b916101b8611ddc565b9260018060a01b031681526005602052209060018060a01b03165f52602052602060ff60405f2054166040519015158152f35b80fd5b50346101eb5760403660031901126101eb5760ff604061020c611e74565b926004358152600e6020522091165f52602052602062ffffff60405f205416604051908152f35b50346101eb5760403660031901126101eb576004356024359065ffffffffffff82168092036103585761026581612507565b336001600160a01b039091160361032357610281821515612484565b60405161028d81611df2565b33808252602080830185815260016040808601918252868952600b845280892095518654935192516001600160d81b03199094166001600160a01b03919091161760a09290921b65ffffffffffff60a01b169190911791151560d01b60ff60d01b16919091179093559151938452927f914be646fff955597a1203fc0af9377a4c3870daa8034fa293d61823b3456f6e9190a380f35b60405162461bcd60e51b815260206004820152600d60248201526c2737ba103a34329037bbb732b960991b6044820152606490fd5b8280fd5b50346101eb5760203660031901126101eb5760406020916004358152600983522054604051908152f35b346103df5760203660031901126103df576103a2600435612507565b505f6040516103b2602082611e3c565b526103db6040516103c4602082611e3c565b5f8152604051918291602083526020830190611da2565b0390f35b5f80fd5b60603660031901126103df576004356103fa611eec565b60443560ff81168091036103df5761041061253b565b62ffffff821692831593610424851561216a565b815f52600860205260405f209464ffffffffff865461048060018060a01b038216610450811515612007565b6104786104658a62ffffff8660e01c16612152565b62ffffff808660c81c16911611156121ad565b33141561204a565b845f52600e60205260405f20865f5260205262ffffff60405f20541680610659575b5060a01c16633b9aca00810290808204633b9aca001490151715610645576104cd836104d5926120a5565b3410156120b8565b633b9aca00820290828204633b9aca0014171561064557801561063157340465ffffffffffff165f5b8281106105a6576105935f8080808b8b8b8b6105446105268462ffffff875460e01c16612152565b855462ffffff60e01b191660e09190911b62ffffff60e01b16178555565b8452600d6020526040842090845260205262ffffff61056a604085209282845416612152565b825462ffffff191691161790555434906001600160a01b03165af161058d6120fb565b50612235565b60015f5160206128815f395f51905f5255005b6001906007546105b68133612573565b805f5260096020528560405f2055805f52600a60205260405f208760ff19825416179055805f52600c60205260405f208465ffffffffffff1982541617905585604051918883527f1532a8791902a65aebb0e34385d2b5325fb2f0ee5241c5faa75adcabdd367ca960203394a48160075401600755016104fe565b634e487b7160e01b5f52601260045260245ffd5b634e487b7160e01b5f52601160045260245ffd5b61068b90865f52600d60205260405f20885f5260205262ffffff6106838a8260405f205416612152565b1611156121f9565b886104a2565b346103df5760203660031901126103df575f604080516106b081611df2565b82815282602082015201526004355f52600b602052606060405f20604051906106d882611df2565b5465ffffffffffff60018060a01b0382169283815260ff60406020830192848660a01c168452019360d01c1615158352604051938452511660208301525115156040820152f35b346103df5760803660031901126103df57610738611dc6565b610740611ddc565b90604435606435926001600160401b0384116103df57366023850112156103df5761077861078a943690602481600401359101611fd1565b92610784838383612273565b33612783565b005b346103df5760c03660031901126103df576004356001600160401b0381116103df57366023820112156103df576107cd903690602481600401359101611fd1565b6107d5611eec565b906107de611f68565b6064359060ff82168092036103df576084356001600160401b0381116103df5761080c903690600401611e84565b9060a4356001600160401b0381116103df5761083062ffffff913690600401611efe565b9516908115610aab57845115610a665764ffffffffff16928315610a2157606481116109dc5761086383518751146124c4565b61091b62ffffff600654956108fd826040519661087f88611e21565b33885260208089019485526040808a019283525f60608b0181815260808c019a8b528d82526008909352209851895495516001600160c81b03199096166001600160a01b03919091161760a09590951b64ffffffffff60a01b1694909417885551875462ffffff60c81b1916911660c81b62ffffff60c81b16178655565b51845462ffffff60e01b1916911660e01b62ffffff60e01b16178355565b5181546001600160f81b031660f89190911b6001600160f81b0319161790555f5b8151811015610994578062ffffff6109566001938861212a565b5116845f52600e60205260405f2060ff80610971858861212a565b5116165f5260205262ffffff60405f20911662ffffff198254161790550161093c565b50506001600654016006557ffc695dea2478fb938a11068aeedddd7046a5fe655f136e30a325d353fe187a4560405160208152806109d733956020830190611da2565b0390a3005b60405162461bcd60e51b815260206004820152601a60248201527f526f79616c74792063616e6e6f742065786365656420313030250000000000006044820152606490fd5b60405162461bcd60e51b815260206004820152601f60248201527f5072696365206d7573742062652067726561746572207468616e207a65726f006044820152606490fd5b60405162461bcd60e51b815260206004820152601960248201527f4950465320686173682063616e6e6f7420626520656d707479000000000000006044820152606490fd5b60405162461bcd60e51b81526020600482015260116024820152704d7573742068617665207469636b65747360781b6044820152606490fd5b346103df5760203660031901126103df576004355f52600b602052606060405f205460ff6040519160018060a01b038116835265ffffffffffff8160a01c16602084015260d01c1615156040820152f35b346103df5760203660031901126103df576004355f52600c602052602065ffffffffffff60405f205416604051908152f35b346103df5760403660031901126103df57610b80611dc6565b602435908115158092036103df573315610c08576001600160a01b0316908115610bf557335f52600560205260405f20825f5260205260405f2060ff1981541660ff83161790556040519081527f17307eab39ab6107e8899845ad3d59bd9653f200f220920489ca2b5937696c3160203392a3005b50630b61174360e31b5f5260045260245ffd5b63a9fbf51f60e01b5f525f60045260245ffd5b346103df575f3660031901126103df576020600654604051908152f35b346103df575f3660031901126103df576040515f6001548060011c90600181168015610d36575b602083108114610d2257828552908115610cfe5750600114610ca0575b6103db83610c8c81850382611e3c565b604051918291602083526020830190611da2565b91905060015f527fb10e2d527612073b26eecdfd717e6a320cf44b4afac2b0732d9fcbe2b7fa0cf6915f905b808210610ce457509091508101602001610c8c610c7c565b919260018160209254838588010152019101909291610ccc565b60ff191660208086019190915291151560051b84019091019150610c8c9050610c7c565b634e487b7160e01b5f52602260045260245ffd5b91607f1691610c5f565b346103df5760a03660031901126103df57600435610d5c611eec565b610d64611f68565b916064356001600160401b0381116103df57610d84903690600401611e84565b6084356001600160401b0381116103df57610da3903690600401611efe565b5f838152600860205260409020805491956001600160a01b038316610dc9811515612007565b3303610fa35762ffffff8087169360e01c168310610f5e57610e4c91610e2764ffffffffff831697610dfc891515612484565b610e0987518b51146124c4565b825462ffffff60c81b191660c89190911b62ffffff60c81b16178255565b805464ffffffffff60a01b191660a09290921b64ffffffffff60a01b16919091179055565b5f5b8251811015610f2b5762ffffff610e65828861212a565b5116845f52600d60205260405f2060ff80610e80858861212a565b5116165f5260205262ffffff60405f20541611610ee6578062ffffff610ea86001938961212a565b5116855f52600e60205260405f2060ff80610ec3858961212a565b5116165f5260205262ffffff60405f20911662ffffff1982541617905501610e4e565b60405162461bcd60e51b815260206004820152601d60248201527f43616e6e6f742072656475636520746965722062656c6f7720736f6c640000006044820152606490fd5b837ff06987917567a624564ebaa367089a3c21b4da44a8a6aa4ba7a6152ff3f653726040848882519182526020820152a2005b60405162461bcd60e51b815260206004820152601c60248201527f43616e6e6f7420726564756365206d61782062656c6f7720736f6c64000000006044820152606490fd5b60405162461bcd60e51b81526020600482015260116024820152702737ba103a34329037b933b0b734b9b2b960791b6044820152606490fd5b346103df575f3660031901126103df576020600754604051908152f35b346103df5760203660031901126103df576001600160a01b0361101a611dc6565b168015611037575f526003602052602060405f2054604051908152f35b6322718ad960e21b5f525f60045260245ffd5b346103df5760203660031901126103df576020611068600435612507565b6040516001600160a01b039091168152f35b346103df5761078a61108b36611f7c565b906040519261109b602085611e3c565b5f8452610784838383612273565b346103df5760203660031901126103df575f60806040516110c981611e21565b82815282602082015282604082015282606082015201526004355f52600860205260a060405f2060ff604051916110ff83611e21565b5462ffffff600180861b03821693848152816020820164ffffffffff85891c16815264ffffffffff6040840191838760c81c16835260806060860195858960e01c168752019660f81c875260405198895251166020880152511660408601525116606084015251166080820152f35b346103df5760403660031901126103df57611187611e74565b6004355f52600d60205260ff60405f2091165f52602052602062ffffff60405f205416604051908152f35b346103df5760203660031901126103df57600435805f52600b60205260405f20805460ff8160d01c161561125557336001600160a01b0382160361121f5760ff60d01b191690557f411aee90354c51b1b04cd563fcab2617142a9d50da19232d888547c8a1b7fd8a5f80a2005b60405162461bcd60e51b815260206004820152600e60248201526d2737ba103a34329039b2b63632b960911b6044820152606490fd5b60405162461bcd60e51b81526020600482015260116024820152704e6f20616374697665206c697374696e6760781b6044820152606490fd5b346103df5760203660031901126103df576004355f52600a602052602060ff60405f205416604051908152f35b346103df5760403660031901126103df5760406112dc602435600435612400565b82516001600160a01b0390921682526020820152f35b346103df5760403660031901126103df576040600435611310611e74565b815f52600d602052825f2060ff82165f5260205262ffffff835f205416915f52600e60205260ff835f2091165f5260205262ffffff825f20541682519182526020820152f35b346103df5761078a61136736611f7c565b91612273565b60803660031901126103df576004356024356001600160401b0381116103df5761139b903690600401611e84565b6044356001600160401b0381116103df576113ba903690600401611efe565b606435926001600160401b0384116103df57366023850112156103df5783600401356113e581611e5d565b946113f36040519687611e3c565b8186526024602087019260051b820101903682116103df57602401915b8183106117815750505061142261253b565b825182510361173c5782518451036116fe575f81815260086020526040902080549390919061145f6001600160a01b038616610478811515612007565b5f95865b85518810156114905761148860019162ffffff6114808b8a61212a565b511690612152565b970196611463565b9594939464ffffffffff62ffffff8816916114ac83151561216a565b6114d46114c18a62ffffff8460e01c16612152565b62ffffff808460c81c16911611156121ad565b60a01c16633b9aca00810290808204633b9aca001490151715610645576114fe916104cd916120a5565b5f5b825181101561158857600190845f52600e60205260405f2060ff80611525848861212a565b5116165f5260205262ffffff60405f20541680611544575b5001611500565b61158290865f52600d60205260405f2060ff80611561868a61212a565b5116165f5260205262ffffff6106838160405f20541682611480878d61212a565b8861153d565b508592855f5b84518110156116ac5762ffffff6115a5828961212a565b511660ff6115b3838861212a565b511664ffffffffff6115c5848861212a565b5116905f9065ffffffffffff60ff82169316915b848110611621575050509060019291855f52600d60205260405f20905f5260205262ffffff61160f60405f209282845416612152565b1662ffffff198254161790550161158e565b6001906007546116318133612573565b805f5260096020528960405f2055805f52600a60205260405f208660ff19825416179055805f52600c60205260405f208565ffffffffffff1982541617905589604051918583527f1532a8791902a65aebb0e34385d2b5325fb2f0ee5241c5faa75adcabdd367ca960203394a48160075401600755016115d9565b6105935f808080866116e86116ca8d62ffffff845460e01c16612152565b825462ffffff60e01b191660e09190911b62ffffff60e01b16178255565b5434906001600160a01b03165af161058d6120fb565b60405162461bcd60e51b81526020600482015260166024820152754d69736d61746368656420707269636520617272617960501b6044820152606490fd5b60405162461bcd60e51b815260206004820152601760248201527f4d69736d61746368656420696e707574206172726179730000000000000000006044820152606490fd5b823564ffffffffff811681036103df57815260209283019201611410565b60203660031901126103df576004356117b661253b565b805f52600b60205260405f20604051906117cf82611df2565b549060018060a01b038216815260ff602082019265ffffffffffff8160a01c16845260d01c161580156040830152611aa657825f52600960205260405f20545f52600860205261183060018060a01b0360405f205416610478811515612007565b65ffffffffffff825116633b9aca00810290808204633b9aca0014901517156106455761185e9034146120b8565b61186783612507565b81516001600160a01b03908116911603611a61576118853484612400565b80340391348311610645575f868152600b60205260409020805460ff60d01b19169055816119f4575b505081515f918291829182916001600160a01b03165af16118cd6120fb565b50156119b65780516001600160a01b031633156119a3576001600160a01b036118f685336126bf565b1690816119105784637e27328960e01b5f5260045260245ffd5b80820361198957505065ffffffffffff9081835116845f52600c6020528260405f209116831982541617905560018060a01b03905116915116916040519283527f4ae275d0457819946df214c8f4d79450d6b2a494e0117bc34f83df293270600d60203394a460015f5160206128815f395f51905f5255005b84906364283d7b60e01b5f5260045260245260445260645ffd5b633250574960e11b5f525f60045260245ffd5b60405162461bcd60e51b815260206004820152601660248201527514d95b1b195c881d1c985b9cd9995c8819985a5b195960521b6044820152606490fd5b5f918291829182916001600160a01b03165af1611a0f6120fb565b5015611a1c5784806118ae565b60405162461bcd60e51b815260206004820152601760248201527f526f79616c7479207472616e73666572206661696c65640000000000000000006044820152606490fd5b60405162461bcd60e51b815260206004820152601c60248201527f53656c6c6572206e6f206c6f6e676572206f776e73207469636b6574000000006044820152606490fd5b60405162461bcd60e51b815260206004820152600c60248201526b4e6f7420666f722073616c6560a01b6044820152606490fd5b346103df5760203660031901126103df576004355f52600860205260a060405f205460405190600180841b038116825264ffffffffff81841c16602083015262ffffff8160c81c16604083015262ffffff8160e01c16606083015260f81c6080820152f35b346103df5760403660031901126103df57611b58611dc6565b602435611b6481612507565b33151580611c16575b80611be9575b611bd65781906001600160a01b0384811691167f8c5be1e5ebec7d5bd14f71427d1e84f3dd0314c0f7b2291e5b200ac8c7c3b9255f80a45f90815260046020526040902080546001600160a01b0319166001600160a01b03909216919091179055005b63a9fbf51f60e01b5f523360045260245ffd5b506001600160a01b0381165f90815260056020908152604080832033845290915290205460ff1615611b73565b506001600160a01b038116331415611b6d565b346103df5760203660031901126103df57600435611c4681612507565b505f526004602052602060018060a01b0360405f205416604051908152f35b346103df575f3660031901126103df576040515f5f548060011c90600181168015611d13575b602083108114610d2257828552908115610cfe5750600114611cb7576103db83610c8c81850382611e3c565b5f8080527f290decd9548b62a8d60345a988386fc84ba6bc95484008f6362f93160ef3e563939250905b808210611cf957509091508101602001610c8c610c7c565b919260018160209254838588010152019101909291611ce1565b91607f1691611c8b565b346103df5760203660031901126103df576004359063ffffffff60e01b82168092036103df5760209163152a902d60e11b8114908115611d5f575b5015158152f35b6380ac58cd60e01b811491508115611d91575b8115611d80575b5083611d58565b6301ffc9a760e01b14905083611d79565b635b5e139f60e01b81149150611d72565b805180835260209291819084018484015e5f828201840152601f01601f1916010190565b600435906001600160a01b03821682036103df57565b602435906001600160a01b03821682036103df57565b606081019081106001600160401b03821117611e0d57604052565b634e487b7160e01b5f52604160045260245ffd5b60a081019081106001600160401b03821117611e0d57604052565b90601f801991011681019081106001600160401b03821117611e0d57604052565b6001600160401b038111611e0d5760051b60200190565b6024359060ff821682036103df57565b9080601f830112156103df57813590611e9c82611e5d565b92611eaa6040519485611e3c565b82845260208085019360051b8201019182116103df57602001915b818310611ed25750505090565b823560ff811681036103df57815260209283019201611ec5565b6024359062ffffff821682036103df57565b9080601f830112156103df57813590611f1682611e5d565b92611f246040519485611e3c565b82845260208085019360051b8201019182116103df57602001915b818310611f4c5750505090565b823562ffffff811681036103df57815260209283019201611f3f565b6044359064ffffffffff821682036103df57565b60609060031901126103df576004356001600160a01b03811681036103df57906024356001600160a01b03811681036103df579060443590565b6001600160401b038111611e0d57601f01601f191660200190565b929192611fdd82611fb6565b91611feb6040519384611e3c565b8294818452818301116103df578281602093845f960137010152565b1561200e57565b60405162461bcd60e51b8152602060048201526014602482015273115d995b9d08191bd95cc81b9bdd08195e1a5cdd60621b6044820152606490fd5b1561205157565b60405162461bcd60e51b815260206004820152602660248201527f4f7267616e697365722063616e6e6f7420627579207468656972206f776e207460448201526569636b65747360d01b6064820152608490fd5b8181029291811591840414171561064557565b156120bf57565b60405162461bcd60e51b8152602060048201526014602482015273125b98dbdc9c9958dd0811551208185b5bdd5b9d60621b6044820152606490fd5b3d15612125573d9061210c82611fb6565b9161211a6040519384611e3c565b82523d5f602084013e565b606090565b805182101561213e5760209160051b010190565b634e487b7160e01b5f52603260045260245ffd5b9062ffffff8091169116019062ffffff821161064557565b1561217157565b60405162461bcd60e51b815260206004820152601460248201527305175616e74697479206d757374206265203e20360641b6044820152606490fd5b156121b457565b60405162461bcd60e51b815260206004820152601c60248201527f4e6f7420656e6f756768207469636b65747320617661696c61626c65000000006044820152606490fd5b1561220057565b60405162461bcd60e51b815260206004820152600d60248201526c151a595c881cdbdb19081bdd5d609a1b6044820152606490fd5b1561223c57565b60405162461bcd60e51b815260206004820152600f60248201526e151c985b9cd9995c8819985a5b1959608a1b6044820152606490fd5b6001600160a01b03909116919082156119a3575f828152600260205260409020546001600160a01b03169282903315158061236b575b5084612338575b805f52600360205260405f2060018154019055815f52600260205260405f20816bffffffffffffffffffffffff60a01b825416179055847fddf252ad1be2c89b69c2b068fc378daa952ba7f163c4a11628f55a4df523b3ef5f80a46001600160a01b031680830361232057505050565b6364283d7b60e01b5f5260045260245260445260645ffd5b5f82815260046020526040902080546001600160a01b0319169055845f52600360205260405f205f1981540190556122b0565b909150806123af575b156123815782905f6122a9565b828461239957637e27328960e01b5f5260045260245ffd5b63177e802f60e01b5f523360045260245260445ffd5b5033841480156123de575b8061237457505f838152600460205260409020546001600160a01b03163314612374565b505f84815260056020908152604080832033845290915290205460ff166123ba565b9190915f52600960205260405f20545f526008602052606461247460405f20936040519461242d86611e21565b5460018060a01b038116865264ffffffffff8160a01c16602087015262ffffff8160c81c16604087015262ffffff8160e01c16606087015260f81c908160808701526120a5565b92516001600160a01b0316920490565b1561248b57565b60405162461bcd60e51b815260206004820152601160248201527005072696365206d757374206265203e203607c1b6044820152606490fd5b156124cb57565b60405162461bcd60e51b81526020600482015260146024820152730a8d2cae440c2e4e4c2f2e640dad2e6dac2e8c6d60631b6044820152606490fd5b5f818152600260205260409020546001600160a01b0316908115612529575090565b637e27328960e01b5f5260045260245ffd5b60025f5160206128815f395f51905f5254146125645760025f5160206128815f395f51905f5255565b633ee5aeb560e01b5f5260045ffd5b90602090604051906125858383611e3c565b5f82526001600160a01b0384169384156119a3576001600160a01b036125ab83836126bf565b166126ac573b6125bc575b50505050565b916125f991819495936040519384928392630a85bd0160e11b84523360048501525f60248501526044840152608060648401526084830190611da2565b03815f885af15f918161266c575b506126355750506126166120fb565b80519190826126325783633250574960e11b5f5260045260245ffd5b01fd5b909291506001600160e01b03191663757a42ff60e11b0161265a57505f8080806125b6565b633250574960e11b5f5260045260245ffd5b9091508381813d83116126a5575b6126848183611e3c565b810103126103df57516001600160e01b0319811681036103df57905f612607565b503d61267a565b6339e3563760e11b5f525f60045260245ffd5b5f828152600260205260409020546001600160a01b0316919082612750575b6001600160a01b031680612738575b815f52600260205260405f20816bffffffffffffffffffffffff60a01b825416179055827fddf252ad1be2c89b69c2b068fc378daa952ba7f163c4a11628f55a4df523b3ef5f80a490565b805f52600360205260405f20600181540190556126ed565b5f82815260046020526040902080546001600160a01b0319169055825f52600360205260405f205f1981540190556126de565b823b612791575b5050505050565b604051630a85bd0160e11b81526001600160a01b0391821660048201529181166024830152604482019390935260806064820152911691602090829081906127dd906084830190611da2565b03815f865af15f918161283b575b5061281957506127f96120fb565b805190816128145782633250574960e11b5f5260045260245ffd5b602001fd5b6001600160e01b03191663757a42ff60e11b0161265a57505f8080808061278a565b9091506020813d602011612878575b8161285760209383611e3c565b810103126103df57516001600160e01b0319811681036103df57905f6127eb565b3d915061284a56fe9b779b17422d0df92223018b32b4d1fa46e071723d6817e2486d003becc55f00a2646970667358221220c35198eb281fd14b9f027213f77bd799744ec0c2f72346d883e9af902b95cbbb64736f6c634300081c0033",
  "linkReferences": {},
  "deployedLinkReferences": {}
}