{
  "_format": "hh-sol-artifact-1",
  "contractName": "NFTTicket",
  "sourceName": "contracts/NFTTicket.sol",
  "abi": [
    {
      "inputs": [],
      "stateMutability": "nonpayable",
      "type": "constructor"
    },
    {
      "inputs": [
        {
          "internalType": "address",
          "name": "sender",
          "type": "address"
        },
        {
          "internalType": "uint256",
          "name": "tokenId",
          "type": "uint256"
        },
        {
          "internalType": "address",
          "name": "owner",
          "type": "address"
        }
      ],
      "name": "ERC721IncorrectOwner",
      "type": "error"
    },
    {
      "inputs": [
        {
          "internalType": "address",
          "name": "operator",
          "type": "address"
        },
        {
          "internalType": "uint256",
          "name": "tokenId",
          "type": "uint256"
        }
      ],
      "name": "ERC721InsufficientApproval",
      "type": "error"
    },
    {
      "inputs": [
        {
          "internalType": "address",
          "name": "approver",
          "type": "address"
        }
      ],
      "name": "ERC721InvalidApprover",
      "type": "error"
    },
    {
      "inputs": [
        {
          "internalType": "address",
          "name": "operator",
          "type": "address"
        }
      ],
      "name": "ERC721InvalidOperator",
      "type": "error"
    },
    {
      "inputs": [
        {
          "internalType": "address",
          "name": "owner",
          "type": "address"
        }
      ],
      "name": "ERC721InvalidOwner",
      "type": "error"
    },
    {
      "inputs": [
        {
          "internalType": "address",
          "name": "receiver",
          "type": "address"
        }
      ],
      "name": "ERC721InvalidReceiver",
      "type": "error"
    },
    {
      "inputs": [
        {
          "internalType": "address",
          "name": "sender",
          "type": "address"
        }
      ],
      "name": "ERC721InvalidSender",
      "type": "error"
    },
    {
      "inputs": [
        {
          "internalType": "uint256",
          "name": "tokenId",
          "type": "uint256"
        }
      ],
      "name": "ERC721NonexistentToken",
      "type": "error"
    },
    {
      "inputs": [],
      "name": "ReentrancyGuardReentrantCall",
      "type": "error"
    },
    {
      "anonymous": false,
      "inputs": [
        {
          "indexed": true,
          "internalType": "address",
          "name": "owner",
          "type": "address"
        },
        {
          "indexed": true,
          "internalType": "address",
          "name": "approved",
          "type": "address"
        },
        {
          "indexed": true,
          "internalType": "uint256",
          "name": "tokenId",
          "type": "uint256"
        }
      ],
      "name": "Approval",
      "type": "event"
    },
    {
      "anonymous": false,
      "inputs": [
        {
          "indexed": true,
          "internalType": "address",
          "name": "owner",
          "type": "address"
        },
        {
          "indexed": true,
          "internalType": "address",
          "name": "operator",
          "type": "address"
        },
        {
          "indexed": false,
          "internalType": "bool",
          "name": "approved",
          "type": "bool"
        }
      ],
      "name": "ApprovalForAll",
      "type": "event"
    },
    {
      "anonymous": false,
      "inputs": [
        {
          "indexed": true,
          "internalType": "uint256",
          "name": "eventId",
          "type": "uint256"
        },
        {
          "indexed": true,
          "internalType": "address",
          "name": "organiser",
          "type": "address"
        },
        {
          "indexed": false,
          "internalType": "string",
          "name": "ipfsHash",
          "type": "string"
        }
      ],
      "name": "EventCreated",
      "type": "event"
    },
    {
      "anonymous": false,
      "inputs": [
        {
          "indexed": true,
          "internalType": "uint256",
          "name": "eventId",
          "type": "uint256"
        },
        {
          "indexed": false,
          "internalType": "uint24",
          "name": "newMaxTickets",
          "type": "uint24"
        },
        {
          "indexed": false,
          "internalType": "uint40",
          "name": "newPriceWei",
          "type": "uint40"
        }
      ],
      "name": "EventUpdated",
      "type": "event"
    },
    {
      "anonymous": false,
      "inputs": [
        {
          "indexed": true,
          "internalType": "uint256",
          "name": "tokenId",
          "type": "uint256"
        }
      ],
      "name": "ListingCancelled",
      "type": "event"
    },
    {
      "anonymous": false,
      "inputs": [
        {
          "indexed": true,
          "internalType": "uint256",
          "name": "tokenId",
          "type": "uint256"
        },
        {
          "indexed": true,
          "internalType": "address",
          "name": "seller",
          "type": "address"
        },
        {
          "indexed": false,
          "internalType": "uint48",
          "name": "priceWei",
          "type": "uint48"
        }
      ],
      "name": "TicketListed",
      "type": "event"
    },
    {
      "anonymous": false,
      "inputs": [
        {
          "indexed": true,
          "internalType": "uint256",
          "name": "tokenId",
          "type": "uint256"
        },
        {
          "indexed": true,
          "internalType": "uint256",
          "name": "eventId",
          "type": "uint256"
        },
        {
          "indexed": true,
          "internalType": "address",
          "name": "buyer",
          "type": "address"
        },
        {
          "indexed": false,
          "internalType": "uint8",
          "name": "tier",
          "type": "uint8"
        }
      ],
      "name": "TicketMinted",
      "type": "event"
    },
    {
      "anonymous": false,
      "inputs": [
        {
          "indexed": true,
          "internalType": "uint256",
          "name": "tokenId",
          "type": "uint256"
        },
        {
          "indexed": true,
          "internalType": "address",
          "name": "oldOwner",
          "type": "address"
        },
        {
          "indexed": true,
          "internalType": "address",
          "name": "newOwner",
          "type": "address"
        },
        {
          "indexed": false,
          "internalType": "uint48",
          "name": "priceWei",
          "type": "uint48"
        }
      ],
      "name": "TicketResold",
      "type": "event"
    },
    {
      "anonymous": false,
      "inputs": [
        {
          "indexed": true,
          "internalType": "address",
          "name": "from",
          "type": "address"
        },
        {
          "indexed": true,
          "internalType": "address",
          "name": "to",
          "type": "address"
        },
        {
          "indexed": true,
          "internalType": "uint256",
          "name": "tokenId",
          "type": "uint256"
        }
      ],
      "name": "Transfer",
      "type": "event"
    },
    {
      "inputs": [
        {
          "internalType": "address",
          "name": "to",
          "type": "address"
        },
        {
          "internalType": "uint256",
          "name": "tokenId",
          "type": "uint256"
        }
      ],
      "name": "approve",
      "outputs": [],
      "stateMutability": "nonpayable",
      "type": "function"
    },
    {
      "inputs": [
        {
          "internalType": "address",
          "name": "owner",
          "type": "address"
        }
      ],
      "name": "balanceOf",
      "outputs": [
        {
          "internalType": "uint256",
          "name": "",
          "type": "uint256"
        }
      ],
      "stateMutability": "view",
      "type": "function"
    },
    {
      "inputs": [
        {
          "internalType": "uint256",
          "name": "eventId",
          "type": "uint256"
        },
        {
          "internalType": "uint8[]",
          "name": "tiers",
          "type": "uint8[]"
        },
        {
          "internalType": "uint24[]",
          "name": "quantities",
          "type": "uint24[]"
        },
        {
          "internalType": "uint40[]",
          "name": "pricesGwei",
          "type": "uint40[]"
        }
      ],
      "name": "buyBatchTickets",
      "outputs": [],
      "stateMutability": "payable",
      "type": "function"
    },
    {
      "inputs": [
        {
          "internalType": "uint256",
          "name": "tokenId",
          "type": "uint256"
        }
      ],
      "name": "buyResaleTicket",
      "outputs": [],
      "stateMutability": "payable",
      "type": "function"
    },
    {
      "inputs": [
        {
          "internalType": "uint256",
          "name": "eventId",
          "type": "uint256"
        },
        {
          "internalType": "uint24",
          "name": "quantity",
          "type": "uint24"
        },
        {
          "internalType": "uint8",
          "name": "tier",
          "type": "uint8"
        }
      ],
      "name": "buyTicket",
      "outputs": [],
      "stateMutability": "payable",
      "type": "function"
    },
    {
      "inputs": [
        {
          "internalType": "uint256",
          "name": "tokenId",
          "type": "uint256"
        }
      ],
      "name": "cancelResaleListing",
      "outputs": [],
      "stateMutability": "nonpayable",
      "type": "function"
    },
    {
      "inputs": [
        {
          "internalType": "string",
          "name": "ipfsHash",
          "type": "string"
        },
        {
          "internalType": "uint24",
          "name": "maxTickets",
          "type": "uint24"
        },
        {
          "internalType": "uint40",
          "name": "priceWei",
          "type": "uint40"
        },
        {
          "internalType": "uint8",
          "name": "royaltyBps",
          "type": "uint8"
        },
        {
          "internalType": "uint8[]",
          "name": "tierIds",
          "type": "uint8[]"
        },
        {
          "internalType": "uint24[]",
          "name": "tierSupplies",
          "type": "uint24[]"
        }
      ],
      "name": "createEvent",
      "outputs": [],
      "stateMutability": "nonpayable",
      "type": "function"
    },
    {
      "inputs": [
        {
          "internalType": "uint256",
          "name": "eventId",
          "type": "uint256"
        },
        {
          "internalType": "uint24",
          "name": "newMaxTickets",
          "type": "uint24"
        },
        {
          "internalType": "uint40",
          "name": "newPriceWei",
          "type": "uint40"
        },
        {
          "internalType": "uint8[]",
          "name": "tierIds",
          "type": "uint8[]"
        },
        {
          "internalType": "uint24[]",
          "name": "tierSupplies",
          "type": "uint24[]"
        }
      ],
      "name": "editEvent",
      "outputs": [],
      "stateMutability": "nonpayable",
      "type": "function"
    },
    {
      "inputs": [
        {
          "internalType": "uint256",
          "name": "",
          "type": "uint256"
        }
      ],
      "name": "events",
      "outputs": [
        {
          "internalType": "address",
          "name": "organiser",
          "type": "address"
        },
        {
          "internalType": "uint40",
          "name": "priceWei",
          "type": "uint40"
        },
        {
          "internalType": "uint24",
          "name": "maxTickets",
          "type": "uint24"
        },
        {
          "internalType": "uint24",
          "name": "ticketsSold",
          "type": "uint24"
        },
        {
          "internalType": "uint8",
          "name": "royaltyBps",
          "type": "uint8"
        }
      ],
      "stateMutability": "view",
      "type": "function"
    },
    {
      "inputs": [
        {
          "internalType": "uint256",
          "name": "eventId",
          "type": "uint256"
        }
      ],
      "name": "fetchEventData",
      "outputs": [
        {
          "components": [
            {
              "internalType": "address",
              "name": "organiser",
              "type": "address"
            },
            {
              "internalType": "uint40",
              "name": "priceWei",
              "type": "uint40"
            },
            {
              "internalType": "uint24",
              "name": "maxTickets",
              "type": "uint24"
            },
            {
              "internalType": "uint24",
              "name": "ticketsSold",
              "type": "uint24"
            },
            {
              "internalType": "uint8",
              "name": "royaltyBps",
              "type": "uint8"
            }
          ],
          "internalType": "struct NFTTicket.Event",
          "name": "",
          "type": "tuple"
        }
      ],
      "stateMutability": "view",
      "type": "function"
    },
    {
      "inputs": [
        {
          "internalType": "uint256",
          "name": "tokenId",
          "type": "uint256"
        }
      ],
      "name": "getApproved",
      "outputs": [
        {
          "internalType": "address",
          "name": "",
          "type": "address"
        }
      ],
      "stateMutability": "view",
      "type": "function"
    },
    {
      "inputs": [
        {
          "internalType": "uint256",
          "name": "tokenId",
          "type": "uint256"
        }
      ],
      "name": "getResaleListing",
      "outputs": [
        {
          "components": [
            {
              "internalType": "address",
              "name": "seller",
              "type": "address"
            },
            {
              "internalType": "uint48",
              "name": "priceWei",
              "type": "uint48"
            },
            {
              "internalType": "bool",
              "name": "active",
              "type": "bool"
            }
          ],
          "internalType": "struct NFTTicket.ResaleListing",
          "name": "",
          "type": "tuple"
        }
      ],
      "stateMutability": "view",
      "type": "function"
    },
    {
      "inputs": [
        {
          "internalType": "uint256",
          "name": "eventId",
          "type": "uint256"
        },
        {
          "internalType": "uint8",
          "name": "tier",
          "type": "uint8"
        }
      ],
      "name": "getTierData",
      "outputs": [
        {
          "internalType": "uint24",
          "name": "sold",
          "type": "uint24"
        },
        {
          "internalType": "uint24",
          "name": "max",
          "type": "uint24"
        }
      ],
      "stateMutability": "view",
      "type": "function"
    },
    {
      "inputs": [
        {
          "internalType": "uint256",
          "name": "tokenId",
          "type": "uint256"
        }
      ],
      "name": "getTokenPurchasePrice",
      "outputs": [
        {
          "internalType": "uint48",
          "name": "",
          "type": "uint48"
        }
      ],
      "stateMutability": "view",
      "type": "function"
    },
    {
      "inputs": [
        {
          "internalType": "address",
          "name": "owner",
          "type": "address"
        },
        {
          "internalType": "address",
          "name": "operator",
          "type": "address"
        }
      ],
      "name": "isApprovedForAll",
      "outputs": [
        {
          "internalType": "bool",
          "name": "",
          "type": "bool"
        }
      ],
      "stateMutability": "view",
      "type": "function"
    },
    {
      "inputs": [
        {
          "internalType": "uint256",
          "name": "tokenId",
          "type": "uint256"
        },
        {
          "internalType": "uint48",
          "name": "priceWei",
          "type": "uint48"
        }
      ],
      "name": "listForResale",
      "outputs": [],
      "stateMutability": "nonpayable",
      "type": "function"
    },
    {
      "inputs": [],
      "name": "name",
      "outputs": [
        {
          "internalType": "string",
          "name": "",
          "type": "string"
        }
      ],
      "stateMutability": "view",
      "type": "function"
    },
    {
      "inputs": [],
      "name": "nextEventId",
      "outputs": [
        {
          "internalType": "uint256",
          "name": "",
          "type": "uint256"
        }
      ],
      "stateMutability": "view",
      "type": "function"
    },
    {
      "inputs": [],
      "name": "nextTokenId",
      "outputs": [
        {
          "internalType": "uint256",
          "name": "",
          "type": "uint256"
        }
      ],
      "stateMutability": "view",
      "type": "function"
    },
    {
      "inputs": [
        {
          "internalType": "uint256",
          "name": "tokenId",
          "type": "uint256"
        }
      ],
      "name": "ownerOf",
      "outputs": [
        {
          "internalType": "address",
          "name": "",
          "type": "address"
        }
      ],
      "stateMutability": "view",
      "type": "function"
    },
    {
      "inputs": [
        {
          "internalType": "uint256",
          "name": "",
          "type": "uint256"
        }
      ],
      "name": "resaleListings",
      "outputs": [
        {
          "internalType": "address",
          "name": "seller",
          "type": "address"
        },
        {
          "internalType": "uint48",
          "name": "priceWei",
          "type": "uint48"
        },
        {
          "internalType": "bool",
          "name": "active",
          "type": "bool"
        }
      ],
      "stateMutability": "view",
      "type": "function"
    },
    {
      "inputs": [
        {
          "internalType": "uint256",
          "name": "tokenId",
          "type": "uint256"
        },
        {
          "internalType": "uint256",
          "name": "salePrice",
          "type": "uint256"
        }
      ],
      "name": "royaltyInfo",
      "outputs": [
        {
          "internalType": "address",
          "name": "receiver",
          "type": "address"
        },
        {
          "internalType": "uint256",
          "name": "royaltyAmount",
          "type": "uint256"
        }
      ],
      "stateMutability": "view",
      "type": "function"
    },
    {
      "inputs": [
        {
          "internalType": "address",
          "name": "from",
          "type": "address"
        },
        {
          "internalType": "address",
          "name": "to",
          "type": "address"
        },
        {
          "internalType": "uint256",
          "name": "tokenId",
          "type": "uint256"
        }
      ],
      "name": "safeTransferFrom",
      "outputs": [],
      "stateMutability": "nonpayable",
      "type": "function"
    },
    {
      "inputs": [
        {
          "internalType": "address",
          "name": "from",
          "type": "address"
        },
        {
          "internalType": "address",
          "name": "to",
          "type": "address"
        },
        {
          "internalType": "uint256",
          "name": "tokenId",
          "type": "uint256"
        },
        {
          "internalType": "bytes",
          "name": "data",
          "type": "bytes"
        }
      ],
      "name": "safeTransferFrom",
      "outputs": [],
      "stateMutability": "nonpayable",
      "type": "function"
    },
    {
      "inputs": [
        {
          "internalType": "address",
          "name": "operator",
          "type": "address"
        },
        {
          "internalType": "bool",
          "name": "approved",
          "type": "bool"
        }
      ],
      "name": "setApprovalForAll",
      "outputs": [],
      "stateMutability": "nonpayable",
      "type": "function"
    },
    {
      "inputs": [
        {
          "internalType": "bytes4",
          "name": "interfaceId",
          "type": "bytes4"
        }
      ],
      "name": "supportsInterface",
      "outputs": [
        {
          "internalType": "bool",
          "name": "",
          "type": "bool"
        }
      ],
      "stateMutability": "view",
      "type": "function"
    },
    {
      "inputs": [],
      "name": "symbol",
      "outputs": [
        {
          "internalType": "string",
          "name": "",
          "type": "string"
        }
      ],
      "stateMutability": "view",
      "type": "function"
    },
    {
      "inputs": [
        {
          "internalType": "uint256",
          "name": "",
          "type": "uint256"
        },
        {
          "internalType": "uint8",
          "name": "",
          "type": "uint8"
        }
      ],
      "name": "tierMaxTickets",
      "outputs": [
        {
          "internalType": "uint24",
          "name": "",
          "type": "uint24"
        }
      ],
      "stateMutability": "view",
      "type": "function"
    },
    {
      "inputs": [
        {
          "internalType": "uint256",
          "name": "",
          "type": "uint256"
        },
        {
          "internalType": "uint8",
          "name": "",
          "type": "uint8"
        }
      ],
      "name": "tierTicketsSold",
      "outputs": [
        {
          "internalType": "uint24",
          "name": "",
          "type": "uint24"
        }
      ],
      "stateMutability": "view",
      "type": "function"
    },
    {
      "inputs": [
        {
          "internalType": "uint256",
          "name": "tokenId",
          "type": "uint256"
        }
      ],
      "name": "tokenToEvent",
      "outputs": [
        {
          "internalType": "uint256",
          "name": "",
          "type": "uint256"
        }
      ],
      "stateMutability": "view",
      "type": "function"
    },
    {
      "inputs": [
        {
          "internalType": "uint256",
          "name": "tokenId",
          "type": "uint256"
        }
      ],
      "name": "tokenToTier",
      "outputs": [
        {
          "internalType": "uint8",
          "name": "",
          "type": "uint8"
        }
      ],
      "stateMutability": "view",
      "type": "function"
    },
    {
      "inputs": [
        {
          "internalType": "uint256",
          "name": "tokenId",
          "type": "uint256"
        }
      ],
      "name": "tokenURI",
      "outputs": [
        {
          "internalType": "string",
          "name": "",
          "type": "string"
        }
      ],
      "stateMutability": "view",
      "type": "function"
    },
    {
      "inputs": [
        {
          "internalType": "address",
          "name": "from",
          "type": "address"
        },
        {
          "internalType": "address",
          "name": "to",
          "type": "address"
        },
        {
          "internalType": "uint256",
          "name": "tokenId",
          "type": "uint256"
        }
      ],
      "name": "transferFrom",
      "outputs": [],
      "stateMutability": "nonpayable",
      "type": "function"
    }
  ],
  "bytecode": "0x60806040523461034257604080519081016001600160401b03811182821017610258576040908152600e82526d139195115d995b9d151a58dad95d60921b602083015280519081016001600160401b0381118282101761025857604052600581526409c8aa892b60db1b602082015281516001600160401b038111610258575f54600181811c91168015610338575b602082101461023a57601f81116102d6575b50602092601f821160011461027757928192935f9261026c575b50508160011b915f199060031b1c1916175f555b80516001600160401b03811161025857600154600181811c9116801561024e575b602082101461023a57601f81116101d7575b50602091601f8211600114610177579181925f9261016c575b50508160011b915f199060031b1c1916176001555b60017f9b779b17422d0df92223018b32b4d1fa46e071723d6817e2486d003becc55f00556001600655600160075560405161289090816103478239f35b015190505f8061011a565b601f1982169260015f52805f20915f5b8581106101bf575083600195106101a7575b505050811b0160015561012f565b01515f1960f88460031b161c191690555f8080610199565b91926020600181928685015181550194019201610187565b60015f527fb10e2d527612073b26eecdfd717e6a320cf44b4afac2b0732d9fcbe2b7fa0cf6601f830160051c81019160208410610230575b601f0160051c01905b8181106102255750610101565b5f8155600101610218565b909150819061020f565b634e487b7160e01b5f52602260045260245ffd5b90607f16906100ef565b634e487b7160e01b5f52604160045260245ffd5b015190505f806100ba565b601f198216935f8052805f20915f5b8681106102be57508360019596106102a6575b505050811b015f556100ce565b01515f1960f88460031b161c191690555f8080610299565b91926020600181928685015181550194019201610286565b5f80527f290decd9548b62a8d60345a988386fc84ba6bc95484008f6362f93160ef3e563601f830160051c8101916020841061032e575b601f0160051c01905b81811061032357506100a0565b5f8155600101610316565b909150819061030d565b90607f169061008e565b5f80fdfe6080806040526004361015610012575f80fd5b5f905f3560e01c90816301ffc9a714611dc15750806306fdde0314611d09578063081812fc14611ccd578063095ea7b314611be35780630b79143014611b7e5780631d9c5d5c1461181e57806322d43a52146113ac57806323b872dd146113955780632932c76d146113315780632a55205a146112fa57806334bcadb6146112ca57806338475934146111ee5780633c141e92146111aa5780633e1c6058146110e557806342842e0e146110bc5780636352211e1461108c57806370a082311461103b57806375794a3c1461101e57806393e9a89d14610d8257806395d89b4114610c7a5780639f9d903a14610c5d578063a22cb46514610ba9578063a77a111714610b74578063b41b4bd414610b23578063b7ae2353146107cb578063b88d4fde1461076a578063b9c9e0de146106dc578063c205dfd1146103e1578063c87b56dd14610384578063cc9d707114610351578063d24c3a4f14610228578063e3a462d3146101e35763e985e9c514610189575f80fd5b346101e05760403660031901126101e05760406101a4611e6a565b916101ad611e80565b9260018060a01b031681526005602052209060018060a01b03165f52602052602060ff60405f2054166040519015158152f35b80fd5b50346101e05760403660031901126101e05760ff6040610201611f18565b926004358152600c6020522091165f52602052602062ffffff60405f205416604051908152f35b50346101e05760403660031901126101e0576004356024359065ffffffffffff821680920361034d5761025a816126cd565b336001600160a01b039091160361031857610276821515612531565b60405161028281611e96565b33808252602080830185815260016040808601918252868952600a845280892095518654935192516001600160d81b03199094166001600160a01b03919091161760a09290921b65ffffffffffff60a01b169190911791151560d01b60ff60d01b16919091179093559151938452927f914be646fff955597a1203fc0af9377a4c3870daa8034fa293d61823b3456f6e9190a380f35b60405162461bcd60e51b815260206004820152600d60248201526c2737ba103a34329037bbb732b960991b6044820152606490fd5b8280fd5b50346101e05760203660031901126101e0576001600160401b036040602092600435815260098452205416604051908152f35b346103dd5760203660031901126103dd576103a06004356126cd565b505f6040516103b0602082611ee0565b526103d96040516103c2602082611ee0565b5f8152604051918291602083526020830190611e46565b0390f35b5f80fd5b60603660031901126103dd576004356103f8611f90565b60443560ff81168091036103dd5761040e612701565b62ffffff821692831593610422851561220e565b815f52600860205260405f209464ffffffffff865461047e60018060a01b03821661044e8115156120ab565b6104766104638a62ffffff8660e01c166121f6565b62ffffff808660c81c1691161115612251565b3314156120ee565b845f52600c60205260405f20865f5260205262ffffff60405f205416806106a4575b5060a01c16633b9aca00810290808204633b9aca001490151715610690576104cb836104d392612149565b34101561215c565b633b9aca00820290828204633b9aca0014171561069057801561067c57340465ffffffffffff166001600160401b0383165f5b8381106105ae5761059b5f8080808c8c8c8c61054c61052e8462ffffff875460e01c166121f6565b855462ffffff60e01b191660e09190911b62ffffff60e01b16178555565b8452600b6020526040842090845260205262ffffff6105726040852092828454166121f6565b825462ffffff191691161790555434906001600160a01b03165af161059561219f565b506122d9565b60015f51602061283b5f395f51905f5255005b6001906007546105be8133612739565b6106406040516105cd81611e96565b85815265ffffffffffff602082018b81526040830190898252855f5260096020526001600160401b0360405f2094511660ff60401b8554925160401b169168ffffffffffffffffff191617178355511665ffffffffffff60481b82549160481b169065ffffffffffff60481b1916179055565b86604051918983527f1532a8791902a65aebb0e34385d2b5325fb2f0ee5241c5faa75adcabdd367ca960203394a4816007540160075501610506565b634e487b7160e01b5f52601260045260245ffd5b634e487b7160e01b5f52601160045260245ffd5b6106d690865f52600b60205260405f20885f5260205262ffffff6106ce8a8260405f2054166121f6565b16111561229d565b886104a0565b346103dd5760203660031901126103dd575f604080516106fb81611e96565b82815282602082015201526004355f52600a602052606060405f206040519061072382611e96565b5465ffffffffffff60018060a01b0382169283815260ff60406020830192848660a01c168452019360d01c1615158352604051938452511660208301525115156040820152f35b346103dd5760803660031901126103dd57610783611e6a565b61078b611e80565b606435916001600160401b0383116103dd57366023840112156103dd576107bf6107c9933690602481600401359101612075565b91604435916125b4565b005b346103dd5760c03660031901126103dd576004356001600160401b0381116103dd57366023820112156103dd5761080c903690602481600401359101612075565b610814611f90565b9061081d61200c565b6064359060ff82168092036103dd576084356001600160401b0381116103dd5761084b903690600401611f28565b9060a4356001600160401b0381116103dd5761086f62ffffff913690600401611fa2565b9516908115610aea57845115610aa55764ffffffffff16928315610a605760648111610a1b576108a28351875114612571565b61095a62ffffff6006549561093c82604051966108be88611ec5565b33885260208089019485526040808a019283525f60608b0181815260808c019a8b528d82526008909352209851895495516001600160c81b03199096166001600160a01b03919091161760a09590951b64ffffffffff60a01b1694909417885551875462ffffff60c81b1916911660c81b62ffffff60c81b16178655565b51845462ffffff60e01b1916911660e01b62ffffff60e01b16178355565b5181546001600160f81b031660f89190911b6001600160f81b0319161790555f5b81518110156109d3578062ffffff610995600193886121ce565b5116845f52600c60205260405f2060ff806109b085886121ce565b5116165f5260205262ffffff60405f20911662ffffff198254161790550161097b565b50506001600654016006557ffc695dea2478fb938a11068aeedddd7046a5fe655f136e30a325d353fe187a456040516020815280610a1633956020830190611e46565b0390a3005b60405162461bcd60e51b815260206004820152601a60248201527f526f79616c74792063616e6e6f742065786365656420313030250000000000006044820152606490fd5b60405162461bcd60e51b815260206004820152601f60248201527f5072696365206d7573742062652067726561746572207468616e207a65726f006044820152606490fd5b60405162461bcd60e51b815260206004820152601960248201527f4950465320686173682063616e6e6f7420626520656d707479000000000000006044820152606490fd5b60405162461bcd60e51b81526020600482015260116024820152704d7573742068617665207469636b65747360781b6044820152606490fd5b346103dd5760203660031901126103dd576004355f52600a602052606060405f205460ff6040519160018060a01b038116835265ffffffffffff8160a01c16602084015260d01c1615156040820152f35b346103dd5760203660031901126103dd576004355f526009602052602065ffffffffffff60405f205460481c16604051908152f35b346103dd5760403660031901126103dd57610bc2611e6a565b602435908115158092036103dd573315610c4a576001600160a01b0316908115610c3757335f52600560205260405f20825f5260205260405f2060ff1981541660ff83161790556040519081527f17307eab39ab6107e8899845ad3d59bd9653f200f220920489ca2b5937696c3160203392a3005b50630b61174360e31b5f5260045260245ffd5b63a9fbf51f60e01b5f525f60045260245ffd5b346103dd575f3660031901126103dd576020600654604051908152f35b346103dd575f3660031901126103dd576040515f6001548060011c90600181168015610d78575b602083108114610d6457828552908115610d405750600114610ce2575b6103d983610cce81850382611ee0565b604051918291602083526020830190611e46565b91905060015f527fb10e2d527612073b26eecdfd717e6a320cf44b4afac2b0732d9fcbe2b7fa0cf6915f905b808210610d2657509091508101602001610cce610cbe565b919260018160209254838588010152019101909291610d0e565b60ff191660208086019190915291151560051b84019091019150610cce9050610cbe565b634e487b7160e01b5f52602260045260245ffd5b91607f1691610ca1565b346103dd5760a03660031901126103dd57600435610d9e611f90565b610da661200c565b916064356001600160401b0381116103dd57610dc6903690600401611f28565b6084356001600160401b0381116103dd57610de5903690600401611fa2565b5f838152600860205260409020805491956001600160a01b038316610e0b8115156120ab565b3303610fe55762ffffff8087169360e01c168310610fa057610e8e91610e6964ffffffffff831697610e3e891515612531565b610e4b87518b5114612571565b825462ffffff60c81b191660c89190911b62ffffff60c81b16178255565b805464ffffffffff60a01b191660a09290921b64ffffffffff60a01b16919091179055565b5f5b8251811015610f6d5762ffffff610ea782886121ce565b5116845f52600b60205260405f2060ff80610ec285886121ce565b5116165f5260205262ffffff60405f20541611610f28578062ffffff610eea600193896121ce565b5116855f52600c60205260405f2060ff80610f0585896121ce565b5116165f5260205262ffffff60405f20911662ffffff1982541617905501610e90565b60405162461bcd60e51b815260206004820152601d60248201527f43616e6e6f742072656475636520746965722062656c6f7720736f6c640000006044820152606490fd5b837ff06987917567a624564ebaa367089a3c21b4da44a8a6aa4ba7a6152ff3f653726040848882519182526020820152a2005b60405162461bcd60e51b815260206004820152601c60248201527f43616e6e6f7420726564756365206d61782062656c6f7720736f6c64000000006044820152606490fd5b60405162461bcd60e51b81526020600482015260116024820152702737ba103a34329037b933b0b734b9b2b960791b6044820152606490fd5b346103dd575f3660031901126103dd576020600754604051908152f35b346103dd5760203660031901126103dd576001600160a01b0361105c611e6a565b168015611079575f526003602052602060405f2054604051908152f35b6322718ad960e21b5f525f60045260245ffd5b346103dd5760203660031901126103dd5760206110aa6004356126cd565b6040516001600160a01b039091168152f35b346103dd576107c96110cd36612020565b90604051926110dd602085611ee0565b5f84526125b4565b346103dd5760203660031901126103dd575f608060405161110581611ec5565b82815282602082015282604082015282606082015201526004355f52600860205260a060405f2060ff6040519161113b83611ec5565b5462ffffff600180861b03821693848152816020820164ffffffffff85891c16815264ffffffffff6040840191838760c81c16835260806060860195858960e01c168752019660f81c875260405198895251166020880152511660408601525116606084015251166080820152f35b346103dd5760403660031901126103dd576111c3611f18565b6004355f52600b60205260ff60405f2091165f52602052602062ffffff60405f205416604051908152f35b346103dd5760203660031901126103dd57600435805f52600a60205260405f20805460ff8160d01c161561129157336001600160a01b0382160361125b5760ff60d01b191690557f411aee90354c51b1b04cd563fcab2617142a9d50da19232d888547c8a1b7fd8a5f80a2005b60405162461bcd60e51b815260206004820152600e60248201526d2737ba103a34329039b2b63632b960911b6044820152606490fd5b60405162461bcd60e51b81526020600482015260116024820152704e6f20616374697665206c697374696e6760781b6044820152606490fd5b346103dd5760203660031901126103dd576004355f526009602052602060ff60405f205460401c16604051908152f35b346103dd5760403660031901126103dd57604061131b6024356004356124a4565b82516001600160a01b0390921682526020820152f35b346103dd5760403660031901126103dd57604060043561134f611f18565b815f52600b602052825f2060ff82165f5260205262ffffff835f205416915f52600c60205260ff835f2091165f5260205262ffffff825f20541682519182526020820152f35b346103dd576107c96113a636612020565b91612317565b60803660031901126103dd576004356024356001600160401b0381116103dd576113da903690600401611f28565b6044356001600160401b0381116103dd576113f9903690600401611fa2565b6064356001600160401b0381116103dd57366023820112156103dd57806004013561142381611f01565b916114316040519384611ee0565b8183526024602084019260051b820101903682116103dd57602401915b81831061180057505050611460612701565b82518251036117bb57825181510361177d575f84815260086020526040902080549094909361149d6001600160a01b0386166104768115156120ab565b5f95865b85518810156114ce576114c660019162ffffff6114be8b8a6121ce565b5116906121f6565b9701966114a1565b9594939464ffffffffff62ffffff8816916114ea83151561220e565b6115126114ff8a62ffffff8460e01c166121f6565b62ffffff808460c81c1691161115612251565b60a01c16633b9aca00810290808204633b9aca0014901517156106905761153c916104cb91612149565b5f5b82518110156115c657600190845f52600c60205260405f2060ff8061156384886121ce565b5116165f5260205262ffffff60405f20541680611582575b500161153e565b6115c090865f52600b60205260405f2060ff8061159f868a6121ce565b5116165f5260205262ffffff6106ce8160405f205416826114be878d6121ce565b8861157b565b50939190926001600160401b038216905f5b855181101561172b5762ffffff6115ef82846121ce565b511660ff6115fd83896121ce565b511664ffffffffff61160f84896121ce565b51165f5b83811061165d5750509060019291865f52600b60205260ff60405f2091165f5260205262ffffff61164b60405f2092828454166121f6565b1662ffffff19825416179055016115d8565b60019060075461166d8133612739565b6116ef60405161167c81611e96565b8a815265ffffffffffff602082018881526040830190888252855f5260096020526001600160401b0360405f2094511660ff60401b8554925160401b169168ffffffffffffffffff191617178355511665ffffffffffff60481b82549160481b169065ffffffffffff60481b1916179055565b89604051918683527f1532a8791902a65aebb0e34385d2b5325fb2f0ee5241c5faa75adcabdd367ca960203394a4816007540160075501611613565b61059b5f8080808b6117676117498f62ffffff845460e01c166121f6565b825462ffffff60e01b191660e09190911b62ffffff60e01b16178255565b5434906001600160a01b03165af161059561219f565b60405162461bcd60e51b81526020600482015260166024820152754d69736d61746368656420707269636520617272617960501b6044820152606490fd5b60405162461bcd60e51b815260206004820152601760248201527f4d69736d61746368656420696e707574206172726179730000000000000000006044820152606490fd5b823564ffffffffff811681036103dd5781526020928301920161144e565b60203660031901126103dd57600435611835612701565b805f52600a60205260405f206040519061184e82611e96565b549060018060a01b038216815260ff602082019265ffffffffffff8160a01c16845260d01c161580156040830152611b4a57825f5260096020526001600160401b0360405f2054165f5260086020526118b860018060a01b0360405f2054166104768115156120ab565b65ffffffffffff825116633b9aca00810290808204633b9aca001490151715610690576118e690341461215c565b6118ef836126cd565b81516001600160a01b03908116911603611b055761190d34846124a4565b80340391348311610690575f868152600a60205260409020805460ff60d01b1916905581611a98575b505081515f918291829182916001600160a01b03165af161195561219f565b5015611a5a5780516001600160a01b03163315611a47576001600160a01b0361197e8533612776565b1690816119985784637e27328960e01b5f5260045260245ffd5b808203611a2d57505065ffffffffffff906119e082845116855f52600960205260405f209065ffffffffffff60481b82549160481b169065ffffffffffff60481b1916179055565b60018060a01b03905116915116916040519283527f4ae275d0457819946df214c8f4d79450d6b2a494e0117bc34f83df293270600d60203394a460015f51602061283b5f395f51905f5255005b84906364283d7b60e01b5f5260045260245260445260645ffd5b633250574960e11b5f525f60045260245ffd5b60405162461bcd60e51b815260206004820152601660248201527514d95b1b195c881d1c985b9cd9995c8819985a5b195960521b6044820152606490fd5b5f918291829182916001600160a01b03165af1611ab361219f565b5015611ac0578480611936565b60405162461bcd60e51b815260206004820152601760248201527f526f79616c7479207472616e73666572206661696c65640000000000000000006044820152606490fd5b60405162461bcd60e51b815260206004820152601c60248201527f53656c6c6572206e6f206c6f6e676572206f776e73207469636b6574000000006044820152606490fd5b60405162461bcd60e51b815260206004820152600c60248201526b4e6f7420666f722073616c6560a01b6044820152606490fd5b346103dd5760203660031901126103dd576004355f52600860205260a060405f205460405190600180841b038116825264ffffffffff81841c16602083015262ffffff8160c81c16604083015262ffffff8160e01c16606083015260f81c6080820152f35b346103dd5760403660031901126103dd57611bfc611e6a565b602435611c08816126cd565b33151580611cba575b80611c8d575b611c7a5781906001600160a01b0384811691167f8c5be1e5ebec7d5bd14f71427d1e84f3dd0314c0f7b2291e5b200ac8c7c3b9255f80a45f90815260046020526040902080546001600160a01b0319166001600160a01b03909216919091179055005b63a9fbf51f60e01b5f523360045260245ffd5b506001600160a01b0381165f90815260056020908152604080832033845290915290205460ff1615611c17565b506001600160a01b038116331415611c11565b346103dd5760203660031901126103dd57600435611cea816126cd565b505f526004602052602060018060a01b0360405f205416604051908152f35b346103dd575f3660031901126103dd576040515f5f548060011c90600181168015611db7575b602083108114610d6457828552908115610d405750600114611d5b576103d983610cce81850382611ee0565b5f8080527f290decd9548b62a8d60345a988386fc84ba6bc95484008f6362f93160ef3e563939250905b808210611d9d57509091508101602001610cce610cbe565b919260018160209254838588010152019101909291611d85565b91607f1691611d2f565b346103dd5760203660031901126103dd576004359063ffffffff60e01b82168092036103dd5760209163152a902d60e11b8114908115611e03575b5015158152f35b6380ac58cd60e01b811491508115611e35575b8115611e24575b5083611dfc565b6301ffc9a760e01b14905083611e1d565b635b5e139f60e01b81149150611e16565b805180835260209291819084018484015e5f828201840152601f01601f1916010190565b600435906001600160a01b03821682036103dd57565b602435906001600160a01b03821682036103dd57565b606081019081106001600160401b03821117611eb157604052565b634e487b7160e01b5f52604160045260245ffd5b60a081019081106001600160401b03821117611eb157604052565b90601f801991011681019081106001600160401b03821117611eb157604052565b6001600160401b038111611eb15760051b60200190565b6024359060ff821682036103dd57565b9080601f830112156103dd57813590611f4082611f01565b92611f4e6040519485611ee0565b82845260208085019360051b8201019182116103dd57602001915b818310611f765750505090565b823560ff811681036103dd57815260209283019201611f69565b6024359062ffffff821682036103dd57565b9080601f830112156103dd57813590611fba82611f01565b92611fc86040519485611ee0565b82845260208085019360051b8201019182116103dd57602001915b818310611ff05750505090565b823562ffffff811681036103dd57815260209283019201611fe3565b6044359064ffffffffff821682036103dd57565b60609060031901126103dd576004356001600160a01b03811681036103dd57906024356001600160a01b03811681036103dd579060443590565b6001600160401b038111611eb157601f01601f191660200190565b9291926120818261205a565b9161208f6040519384611ee0565b8294818452818301116103dd578281602093845f960137010152565b156120b257565b60405162461bcd60e51b8152602060048201526014602482015273115d995b9d08191bd95cc81b9bdd08195e1a5cdd60621b6044820152606490fd5b156120f557565b60405162461bcd60e51b815260206004820152602660248201527f4f7267616e697365722063616e6e6f7420627579207468656972206f776e207460448201526569636b65747360d01b6064820152608490fd5b8181029291811591840414171561069057565b1561216357565b60405162461bcd60e51b8152602060048201526014602482015273125b98dbdc9c9958dd0811551208185b5bdd5b9d60621b6044820152606490fd5b3d156121c9573d906121b08261205a565b916121be6040519384611ee0565b82523d5f602084013e565b606090565b80518210156121e25760209160051b010190565b634e487b7160e01b5f52603260045260245ffd5b9062ffffff8091169116019062ffffff821161069057565b1561221557565b60405162461bcd60e51b815260206004820152601460248201527305175616e74697479206d757374206265203e20360641b6044820152606490fd5b1561225857565b60405162461bcd60e51b815260206004820152601c60248201527f4e6f7420656e6f756768207469636b65747320617661696c61626c65000000006044820152606490fd5b156122a457565b60405162461bcd60e51b815260206004820152600d60248201526c151a595c881cdbdb19081bdd5d609a1b6044820152606490fd5b156122e057565b60405162461bcd60e51b815260206004820152600f60248201526e151c985b9cd9995c8819985a5b1959608a1b6044820152606490fd5b6001600160a01b0390911691908215611a47575f828152600260205260409020546001600160a01b03169282903315158061240f575b50846123dc575b805f52600360205260405f2060018154019055815f52600260205260405f20816bffffffffffffffffffffffff60a01b825416179055847fddf252ad1be2c89b69c2b068fc378daa952ba7f163c4a11628f55a4df523b3ef5f80a46001600160a01b03168083036123c457505050565b6364283d7b60e01b5f5260045260245260445260645ffd5b5f82815260046020526040902080546001600160a01b0319169055845f52600360205260405f205f198154019055612354565b90915080612453575b156124255782905f61234d565b828461243d57637e27328960e01b5f5260045260245ffd5b63177e802f60e01b5f523360045260245260445ffd5b503384148015612482575b8061241857505f838152600460205260409020546001600160a01b03163314612418565b505f84815260056020908152604080832033845290915290205460ff1661245e565b9190915f5260096020526001600160401b0360405f2054165f526008602052606461252160405f2093604051946124da86611ec5565b5460018060a01b038116865264ffffffffff8160a01c16602087015262ffffff8160c81c16604087015262ffffff8160e01c16606087015260f81c90816080870152612149565b92516001600160a01b0316920490565b1561253857565b60405162461bcd60e51b815260206004820152601160248201527005072696365206d757374206265203e203607c1b6044820152606490fd5b1561257857565b60405162461bcd60e51b81526020600482015260146024820152730a8d2cae440c2e4e4c2f2e640dad2e6dac2e8c6d60631b6044820152606490fd5b92916125c1818386612317565b813b6125ce575b50505050565b604051630a85bd0160e11b81523360048201526001600160a01b0394851660248201526044810191909152608060648201529216919060209082908190612619906084830190611e46565b03815f865af15f9181612688575b50612655575061263561219f565b805190816126505782633250574960e11b5f5260045260245ffd5b602001fd5b6001600160e01b03191663757a42ff60e11b0161267657505f8080806125c8565b633250574960e11b5f5260045260245ffd5b9091506020813d6020116126c5575b816126a460209383611ee0565b810103126103dd57516001600160e01b0319811681036103dd57905f612627565b3d9150612697565b5f818152600260205260409020546001600160a01b03169081156126ef575090565b637e27328960e01b5f5260045260245ffd5b60025f51602061283b5f395f51905f52541461272a5760025f51602061283b5f395f51905f5255565b633ee5aeb560e01b5f5260045ffd5b906001600160a01b03821615611a47576001600160a01b039161275c9190612776565b1661276357565b6339e3563760e11b5f525f60045260245ffd5b5f828152600260205260409020546001600160a01b0316919082612807575b6001600160a01b0316806127ef575b815f52600260205260405f20816bffffffffffffffffffffffff60a01b825416179055827fddf252ad1be2c89b69c2b068fc378daa952ba7f163c4a11628f55a4df523b3ef5f80a490565b805f52600360205260405f20600181540190556127a4565b5f82815260046020526040902080546001600160a01b0319169055825f52600360205260405f205f19815401905561279556fe9b779b17422d0df92223018b32b4d1fa46e071723d6817e2486d003becc55f00a26469706673582212204517eb5fe91f5bf3ccc757d1c26270aa1dbea7a918ce073cb070c3d8a2e1247164736f6c634300081c0033",
  "linkReferences": {},
  "deployedLinkReferences": {}
}