{
  "_format": "hh-sol-artifact-1",
  "contractName": "NFTTicket",
  "sourceName": "contracts/NFTTicket.sol",
  "abi": [
    {
      "inputs": [],
      "stateMutability": "nonpayable",
      "type": "constructor"
    },
    {
      "inputs": [
        {
          "internalType": "address",
          "name": "sender",
          "type": "address"
        },
        {
          "internalType": "uint256",
          "name": "tokenId",
          "type": "uint256"
        },
        {
          "internalType": "address",
          "name": "owner",
          "type": "address"
        }
      ],
      "name": "ERC721IncorrectOwner",
      "type": "error"
    },
    {
      "inputs": [
        {
          "internalType": "address",
          "name": "operator",
          "type": "address"
        },
        {
          "internalType": "uint256",
          "name": "tokenId",
          "type": "uint256"
        }
      ],
      "name": "ERC721InsufficientApproval",
      "type": "error"
    },
    {
      "inputs": [
        {
          "internalType": "address",
          "name": "approver",
          "type": "address"
        }
      ],
      "name": "ERC721InvalidApprover",
      "type": "error"
    },
    {
      "inputs": [
        {
          "internalType": "address",
          "name": "operator",
          "type": "address"
        }
      ],
      "name": "ERC721InvalidOperator",
      "type": "error"
    },
    {
      "inputs": [
        {
          "internalType": "address",
          "name": "owner",
          "type": "address"
        }
      ],
      "name": "ERC721InvalidOwner",
      "type": "error"
    },
    {
      "inputs": [
        {
          "internalType": "address",
          "name": "receiver",
          "type": "address"
        }
      ],
      "name": "ERC721InvalidReceiver",
      "type": "error"
    },
    {
      "inputs": [
        {
          "internalType": "address",
          "name": "sender",
          "type": "address"
        }
      ],
      "name": "ERC721InvalidSender",
      "type": "error"
    },
    {
      "inputs": [
        {
          "internalType": "uint256",
          "name": "tokenId",
          "type": "uint256"
        }
      ],
      "name": "ERC721NonexistentToken",
      "type": "error"
    },
    {
      "inputs": [
        {
          "internalType": "address",
          "name": "owner",
          "type": "address"
        }
      ],
      "name": "OwnableInvalidOwner",
      "type": "error"
    },
    {
      "inputs": [
        {
          "internalType": "address",
          "name": "account",
          "type": "address"
        }
      ],
      "name": "OwnableUnauthorizedAccount",
      "type": "error"
    },
    {
      "inputs": [],
      "name": "ReentrancyGuardReentrantCall",
      "type": "error"
    },
    {
      "anonymous": false,
      "inputs": [
        {
          "indexed": true,
          "internalType": "address",
          "name": "owner",
          "type": "address"
        },
        {
          "indexed": true,
          "internalType": "address",
          "name": "approved",
          "type": "address"
        },
        {
          "indexed": true,
          "internalType": "uint256",
          "name": "tokenId",
          "type": "uint256"
        }
      ],
      "name": "Approval",
      "type": "event"
    },
    {
      "anonymous": false,
      "inputs": [
        {
          "indexed": true,
          "internalType": "address",
          "name": "owner",
          "type": "address"
        },
        {
          "indexed": true,
          "internalType": "address",
          "name": "operator",
          "type": "address"
        },
        {
          "indexed": false,
          "internalType": "bool",
          "name": "approved",
          "type": "bool"
        }
      ],
      "name": "ApprovalForAll",
      "type": "event"
    },
    {
      "anonymous": false,
      "inputs": [
        {
          "indexed": false,
          "internalType": "uint256",
          "name": "_fromTokenId",
          "type": "uint256"
        },
        {
          "indexed": false,
          "internalType": "uint256",
          "name": "_toTokenId",
          "type": "uint256"
        }
      ],
      "name": "BatchMetadataUpdate",
      "type": "event"
    },
    {
      "anonymous": false,
      "inputs": [
        {
          "indexed": true,
          "internalType": "uint256",
          "name": "eventId",
          "type": "uint256"
        },
        {
          "indexed": true,
          "internalType": "address",
          "name": "organiser",
          "type": "address"
        },
        {
          "indexed": false,
          "internalType": "string",
          "name": "ipfsHash",
          "type": "string"
        }
      ],
      "name": "EventCreated",
      "type": "event"
    },
    {
      "anonymous": false,
      "inputs": [
        {
          "indexed": true,
          "internalType": "uint256",
          "name": "eventId",
          "type": "uint256"
        },
        {
          "indexed": false,
          "internalType": "uint24",
          "name": "newMaxTickets",
          "type": "uint24"
        },
        {
          "indexed": false,
          "internalType": "uint40",
          "name": "newPriceWei",
          "type": "uint40"
        }
      ],
      "name": "EventUpdated",
      "type": "event"
    },
    {
      "anonymous": false,
      "inputs": [
        {
          "indexed": true,
          "internalType": "uint256",
          "name": "tokenId",
          "type": "uint256"
        }
      ],
      "name": "ListingCancelled",
      "type": "event"
    },
    {
      "anonymous": false,
      "inputs": [
        {
          "indexed": false,
          "internalType": "uint256",
          "name": "_tokenId",
          "type": "uint256"
        }
      ],
      "name": "MetadataUpdate",
      "type": "event"
    },
    {
      "anonymous": false,
      "inputs": [
        {
          "indexed": true,
          "internalType": "address",
          "name": "previousOwner",
          "type": "address"
        },
        {
          "indexed": true,
          "internalType": "address",
          "name": "newOwner",
          "type": "address"
        }
      ],
      "name": "OwnershipTransferred",
      "type": "event"
    },
    {
      "anonymous": false,
      "inputs": [
        {
          "indexed": true,
          "internalType": "uint256",
          "name": "tokenId",
          "type": "uint256"
        },
        {
          "indexed": true,
          "internalType": "address",
          "name": "seller",
          "type": "address"
        },
        {
          "indexed": false,
          "internalType": "uint48",
          "name": "priceWei",
          "type": "uint48"
        }
      ],
      "name": "TicketListed",
      "type": "event"
    },
    {
      "anonymous": false,
      "inputs": [
        {
          "indexed": true,
          "internalType": "uint256",
          "name": "tokenId",
          "type": "uint256"
        },
        {
          "indexed": true,
          "internalType": "uint256",
          "name": "eventId",
          "type": "uint256"
        },
        {
          "indexed": true,
          "internalType": "address",
          "name": "buyer",
          "type": "address"
        },
        {
          "indexed": false,
          "internalType": "uint8",
          "name": "tier",
          "type": "uint8"
        }
      ],
      "name": "TicketMinted",
      "type": "event"
    },
    {
      "anonymous": false,
      "inputs": [
        {
          "indexed": true,
          "internalType": "uint256",
          "name": "tokenId",
          "type": "uint256"
        },
        {
          "indexed": true,
          "internalType": "address",
          "name": "oldOwner",
          "type": "address"
        },
        {
          "indexed": true,
          "internalType": "address",
          "name": "newOwner",
          "type": "address"
        },
        {
          "indexed": false,
          "internalType": "uint48",
          "name": "priceWei",
          "type": "uint48"
        }
      ],
      "name": "TicketResold",
      "type": "event"
    },
    {
      "anonymous": false,
      "inputs": [
        {
          "indexed": true,
          "internalType": "address",
          "name": "from",
          "type": "address"
        },
        {
          "indexed": true,
          "internalType": "address",
          "name": "to",
          "type": "address"
        },
        {
          "indexed": true,
          "internalType": "uint256",
          "name": "tokenId",
          "type": "uint256"
        }
      ],
      "name": "Transfer",
      "type": "event"
    },
    {
      "inputs": [
        {
          "internalType": "address",
          "name": "to",
          "type": "address"
        },
        {
          "internalType": "uint256",
          "name": "tokenId",
          "type": "uint256"
        }
      ],
      "name": "approve",
      "outputs": [],
      "stateMutability": "nonpayable",
      "type": "function"
    },
    {
      "inputs": [
        {
          "internalType": "address",
          "name": "owner",
          "type": "address"
        }
      ],
      "name": "balanceOf",
      "outputs": [
        {
          "internalType": "uint256",
          "name": "",
          "type": "uint256"
        }
      ],
      "stateMutability": "view",
      "type": "function"
    },
    {
      "inputs": [
        {
          "internalType": "uint256",
          "name": "eventId",
          "type": "uint256"
        },
        {
          "internalType": "uint8[]",
          "name": "tiers",
          "type": "uint8[]"
        },
        {
          "internalType": "uint24[]",
          "name": "quantities",
          "type": "uint24[]"
        }
      ],
      "name": "buyBatchTickets",
      "outputs": [],
      "stateMutability": "payable",
      "type": "function"
    },
    {
      "inputs": [
        {
          "internalType": "uint256",
          "name": "tokenId",
          "type": "uint256"
        }
      ],
      "name": "buyResaleTicket",
      "outputs": [],
      "stateMutability": "payable",
      "type": "function"
    },
    {
      "inputs": [
        {
          "internalType": "uint256",
          "name": "eventId",
          "type": "uint256"
        },
        {
          "internalType": "uint24",
          "name": "quantity",
          "type": "uint24"
        },
        {
          "internalType": "uint8",
          "name": "tier",
          "type": "uint8"
        }
      ],
      "name": "buyTicket",
      "outputs": [],
      "stateMutability": "payable",
      "type": "function"
    },
    {
      "inputs": [
        {
          "internalType": "uint256",
          "name": "tokenId",
          "type": "uint256"
        }
      ],
      "name": "cancelResaleListing",
      "outputs": [],
      "stateMutability": "nonpayable",
      "type": "function"
    },
    {
      "inputs": [
        {
          "internalType": "string",
          "name": "ipfsHash",
          "type": "string"
        },
        {
          "internalType": "uint24",
          "name": "maxTickets",
          "type": "uint24"
        },
        {
          "internalType": "uint40",
          "name": "priceWei",
          "type": "uint40"
        },
        {
          "internalType": "uint8",
          "name": "royaltyBps",
          "type": "uint8"
        }
      ],
      "name": "createEvent",
      "outputs": [],
      "stateMutability": "nonpayable",
      "type": "function"
    },
    {
      "inputs": [
        {
          "internalType": "uint256",
          "name": "eventId",
          "type": "uint256"
        },
        {
          "internalType": "uint24",
          "name": "newMaxTickets",
          "type": "uint24"
        },
        {
          "internalType": "uint40",
          "name": "newPriceWei",
          "type": "uint40"
        }
      ],
      "name": "editEvent",
      "outputs": [],
      "stateMutability": "nonpayable",
      "type": "function"
    },
    {
      "inputs": [
        {
          "internalType": "uint256",
          "name": "",
          "type": "uint256"
        }
      ],
      "name": "events",
      "outputs": [
        {
          "internalType": "address",
          "name": "organiser",
          "type": "address"
        },
        {
          "internalType": "uint40",
          "name": "priceWei",
          "type": "uint40"
        },
        {
          "internalType": "uint24",
          "name": "maxTickets",
          "type": "uint24"
        },
        {
          "internalType": "uint24",
          "name": "ticketsSold",
          "type": "uint24"
        },
        {
          "internalType": "uint8",
          "name": "royaltyBps",
          "type": "uint8"
        }
      ],
      "stateMutability": "view",
      "type": "function"
    },
    {
      "inputs": [
        {
          "internalType": "uint256",
          "name": "eventId",
          "type": "uint256"
        }
      ],
      "name": "fetchEventData",
      "outputs": [
        {
          "components": [
            {
              "internalType": "address",
              "name": "organiser",
              "type": "address"
            },
            {
              "internalType": "uint40",
              "name": "priceWei",
              "type": "uint40"
            },
            {
              "internalType": "uint24",
              "name": "maxTickets",
              "type": "uint24"
            },
            {
              "internalType": "uint24",
              "name": "ticketsSold",
              "type": "uint24"
            },
            {
              "internalType": "uint8",
              "name": "royaltyBps",
              "type": "uint8"
            }
          ],
          "internalType": "struct NFTTicket.Event",
          "name": "",
          "type": "tuple"
        }
      ],
      "stateMutability": "view",
      "type": "function"
    },
    {
      "inputs": [
        {
          "internalType": "uint256",
          "name": "tokenId",
          "type": "uint256"
        }
      ],
      "name": "getApproved",
      "outputs": [
        {
          "internalType": "address",
          "name": "",
          "type": "address"
        }
      ],
      "stateMutability": "view",
      "type": "function"
    },
    {
      "inputs": [
        {
          "internalType": "uint256",
          "name": "tokenId",
          "type": "uint256"
        }
      ],
      "name": "getResaleListing",
      "outputs": [
        {
          "components": [
            {
              "internalType": "address",
              "name": "seller",
              "type": "address"
            },
            {
              "internalType": "uint48",
              "name": "priceWei",
              "type": "uint48"
            },
            {
              "internalType": "bool",
              "name": "active",
              "type": "bool"
            }
          ],
          "internalType": "struct NFTTicket.ResaleListing",
          "name": "",
          "type": "tuple"
        }
      ],
      "stateMutability": "view",
      "type": "function"
    },
    {
      "inputs": [
        {
          "internalType": "uint256",
          "name": "tokenId",
          "type": "uint256"
        }
      ],
      "name": "getTokenPurchasePrice",
      "outputs": [
        {
          "internalType": "uint48",
          "name": "",
          "type": "uint48"
        }
      ],
      "stateMutability": "view",
      "type": "function"
    },
    {
      "inputs": [
        {
          "internalType": "address",
          "name": "owner",
          "type": "address"
        },
        {
          "internalType": "address",
          "name": "operator",
          "type": "address"
        }
      ],
      "name": "isApprovedForAll",
      "outputs": [
        {
          "internalType": "bool",
          "name": "",
          "type": "bool"
        }
      ],
      "stateMutability": "view",
      "type": "function"
    },
    {
      "inputs": [
        {
          "internalType": "uint256",
          "name": "tokenId",
          "type": "uint256"
        },
        {
          "internalType": "uint48",
          "name": "priceWei",
          "type": "uint48"
        }
      ],
      "name": "listForResale",
      "outputs": [],
      "stateMutability": "nonpayable",
      "type": "function"
    },
    {
      "inputs": [],
      "name": "name",
      "outputs": [
        {
          "internalType": "string",
          "name": "",
          "type": "string"
        }
      ],
      "stateMutability": "view",
      "type": "function"
    },
    {
      "inputs": [],
      "name": "nextEventId",
      "outputs": [
        {
          "internalType": "uint256",
          "name": "",
          "type": "uint256"
        }
      ],
      "stateMutability": "view",
      "type": "function"
    },
    {
      "inputs": [],
      "name": "nextTokenId",
      "outputs": [
        {
          "internalType": "uint256",
          "name": "",
          "type": "uint256"
        }
      ],
      "stateMutability": "view",
      "type": "function"
    },
    {
      "inputs": [],
      "name": "owner",
      "outputs": [
        {
          "internalType": "address",
          "name": "",
          "type": "address"
        }
      ],
      "stateMutability": "view",
      "type": "function"
    },
    {
      "inputs": [
        {
          "internalType": "uint256",
          "name": "tokenId",
          "type": "uint256"
        }
      ],
      "name": "ownerOf",
      "outputs": [
        {
          "internalType": "address",
          "name": "",
          "type": "address"
        }
      ],
      "stateMutability": "view",
      "type": "function"
    },
    {
      "inputs": [],
      "name": "renounceOwnership",
      "outputs": [],
      "stateMutability": "nonpayable",
      "type": "function"
    },
    {
      "inputs": [
        {
          "internalType": "uint256",
          "name": "",
          "type": "uint256"
        }
      ],
      "name": "resaleListings",
      "outputs": [
        {
          "internalType": "address",
          "name": "seller",
          "type": "address"
        },
        {
          "internalType": "uint48",
          "name": "priceWei",
          "type": "uint48"
        },
        {
          "internalType": "bool",
          "name": "active",
          "type": "bool"
        }
      ],
      "stateMutability": "view",
      "type": "function"
    },
    {
      "inputs": [
        {
          "internalType": "uint256",
          "name": "tokenId",
          "type": "uint256"
        },
        {
          "internalType": "uint256",
          "name": "salePrice",
          "type": "uint256"
        }
      ],
      "name": "royaltyInfo",
      "outputs": [
        {
          "internalType": "address",
          "name": "receiver",
          "type": "address"
        },
        {
          "internalType": "uint256",
          "name": "royaltyAmount",
          "type": "uint256"
        }
      ],
      "stateMutability": "view",
      "type": "function"
    },
    {
      "inputs": [
        {
          "internalType": "address",
          "name": "from",
          "type": "address"
        },
        {
          "internalType": "address",
          "name": "to",
          "type": "address"
        },
        {
          "internalType": "uint256",
          "name": "tokenId",
          "type": "uint256"
        }
      ],
      "name": "safeTransferFrom",
      "outputs": [],
      "stateMutability": "nonpayable",
      "type": "function"
    },
    {
      "inputs": [
        {
          "internalType": "address",
          "name": "from",
          "type": "address"
        },
        {
          "internalType": "address",
          "name": "to",
          "type": "address"
        },
        {
          "internalType": "uint256",
          "name": "tokenId",
          "type": "uint256"
        },
        {
          "internalType": "bytes",
          "name": "data",
          "type": "bytes"
        }
      ],
      "name": "safeTransferFrom",
      "outputs": [],
      "stateMutability": "nonpayable",
      "type": "function"
    },
    {
      "inputs": [
        {
          "internalType": "address",
          "name": "operator",
          "type": "address"
        },
        {
          "internalType": "bool",
          "name": "approved",
          "type": "bool"
        }
      ],
      "name": "setApprovalForAll",
      "outputs": [],
      "stateMutability": "nonpayable",
      "type": "function"
    },
    {
      "inputs": [
        {
          "internalType": "bytes4",
          "name": "interfaceId",
          "type": "bytes4"
        }
      ],
      "name": "supportsInterface",
      "outputs": [
        {
          "internalType": "bool",
          "name": "",
          "type": "bool"
        }
      ],
      "stateMutability": "view",
      "type": "function"
    },
    {
      "inputs": [],
      "name": "symbol",
      "outputs": [
        {
          "internalType": "string",
          "name": "",
          "type": "string"
        }
      ],
      "stateMutability": "view",
      "type": "function"
    },
    {
      "inputs": [
        {
          "internalType": "uint256",
          "name": "",
          "type": "uint256"
        }
      ],
      "name": "tokenPurchasePrice",
      "outputs": [
        {
          "internalType": "uint48",
          "name": "",
          "type": "uint48"
        }
      ],
      "stateMutability": "view",
      "type": "function"
    },
    {
      "inputs": [
        {
          "internalType": "uint256",
          "name": "",
          "type": "uint256"
        }
      ],
      "name": "tokenToEvent",
      "outputs": [
        {
          "internalType": "uint256",
          "name": "",
          "type": "uint256"
        }
      ],
      "stateMutability": "view",
      "type": "function"
    },
    {
      "inputs": [
        {
          "internalType": "uint256",
          "name": "",
          "type": "uint256"
        }
      ],
      "name": "tokenToTier",
      "outputs": [
        {
          "internalType": "uint8",
          "name": "",
          "type": "uint8"
        }
      ],
      "stateMutability": "view",
      "type": "function"
    },
    {
      "inputs": [
        {
          "internalType": "uint256",
          "name": "tokenId",
          "type": "uint256"
        }
      ],
      "name": "tokenURI",
      "outputs": [
        {
          "internalType": "string",
          "name": "",
          "type": "string"
        }
      ],
      "stateMutability": "view",
      "type": "function"
    },
    {
      "inputs": [
        {
          "internalType": "address",
          "name": "from",
          "type": "address"
        },
        {
          "internalType": "address",
          "name": "to",
          "type": "address"
        },
        {
          "internalType": "uint256",
          "name": "tokenId",
          "type": "uint256"
        }
      ],
      "name": "transferFrom",
      "outputs": [],
      "stateMutability": "nonpayable",
      "type": "function"
    },
    {
      "inputs": [
        {
          "internalType": "address",
          "name": "newOwner",
          "type": "address"
        }
      ],
      "name": "transferOwnership",
      "outputs": [],
      "stateMutability": "nonpayable",
      "type": "function"
    }
  ],
  "bytecode": "0x608060405260016008556001600955348015610019575f5ffd5b50336040518060400160405280600e81526020016d139195115d995b9d151a58dad95d60921b8152506040518060400160405280600581526020016409c8aa892b60db1b815250815f908161006e91906101de565b50600161007b82826101de565b50505060016100946100916100d160201b60201c565b90565b556001600160a01b0381166100c257604051631e4fbdf760e01b81525f600482015260240160405180910390fd5b6100cb816100f5565b50610298565b7f9b779b17422d0df92223018b32b4d1fa46e071723d6817e2486d003becc55f0090565b600780546001600160a01b038381166001600160a01b0319831681179093556040519116919082907f8be0079c531659141344cd1fd0a4f28419497f9722a3daafe3b4186f6b6457e0905f90a35050565b634e487b7160e01b5f52604160045260245ffd5b600181811c9082168061016e57607f821691505b60208210810361018c57634e487b7160e01b5f52602260045260245ffd5b50919050565b601f8211156101d957805f5260205f20601f840160051c810160208510156101b75750805b601f840160051c820191505b818110156101d6575f81556001016101c3565b50505b505050565b81516001600160401b038111156101f7576101f7610146565b61020b81610205845461015a565b84610192565b6020601f82116001811461023d575f83156102265750848201515b5f19600385901b1c1916600184901b1784556101d6565b5f84815260208120601f198516915b8281101561026c578785015182556020948501946001909201910161024c565b508482101561028957868401515f19600387901b60f8161c191681555b50505050600190811b01905550565b612f3e806102a55f395ff3fe6080604052600436106101f1575f3560e01c806375794a3c11610108578063b88d4fde1161009d578063cc9d70711161006d578063cc9d707114610868578063d24c3a4f14610893578063d67066ac146108b2578063e985e9c5146108c5578063f2fde38b146108e4575f5ffd5b8063b88d4fde14610763578063b9c9e0de14610782578063c205dfd114610836578063c87b56dd14610849575f5ffd5b80639f9d903a116100d85780639f9d903a1461067e578063a22cb46514610693578063a77a1117146106b2578063b41b4bd4146106e5575f5ffd5b806375794a3c146105ee5780638da5cb5b1461060357806395d89b41146106205780639e408d4c14610634575f5ffd5b806334bcadb61161018957806342842e0e1161015957806342842e0e146105505780636352211e1461056f57806365662b961461058e57806370a08231146105ad578063715018a6146105da575f5ffd5b806334bcadb6146103be57806338475934146103fe5780633c00b8e01461041d5780633e1c60581461043c575f5ffd5b80630b791430116101c45780630b791430146102a25780631d9c5d5c1461034e57806323b872dd146103615780632a55205a14610380575f5ffd5b806301ffc9a7146101f557806306fdde0314610229578063081812fc1461024a578063095ea7b314610281575b5f5ffd5b348015610200575f5ffd5b5061021461020f3660046127b0565b610903565b60405190151581526020015b60405180910390f35b348015610234575f5ffd5b5061023d61092d565b60405161022091906127f9565b348015610255575f5ffd5b5061026961026436600461280b565b6109bc565b6040516001600160a01b039091168152602001610220565b34801561028c575f5ffd5b506102a061029b36600461283d565b6109e3565b005b3480156102ad575f5ffd5b5061030b6102bc36600461280b565b600a6020525f90815260409020546001600160a01b0381169064ffffffffff600160a01b8204169062ffffff600160c81b8204811691600160e01b81049091169060ff600160f81b9091041685565b604080516001600160a01b03909616865264ffffffffff909416602086015262ffffff9283169385019390935216606083015260ff16608082015260a001610220565b6102a061035c36600461280b565b6109f2565b34801561036c575f5ffd5b506102a061037b366004612865565b610dae565b34801561038b575f5ffd5b5061039f61039a36600461289f565b610e37565b604080516001600160a01b039093168352602083019190915201610220565b3480156103c9575f5ffd5b506103ec6103d836600461280b565b600c6020525f908152604090205460ff1681565b60405160ff9091168152602001610220565b348015610409575f5ffd5b506102a061041836600461280b565b610edf565b348015610428575f5ffd5b506102a06104373660046128e5565b610fbb565b348015610447575f5ffd5b506104f361045636600461280b565b6040805160a0810182525f80825260208201819052918101829052606081018290526080810191909152505f908152600a6020908152604091829020825160a08101845290546001600160a01b038116825264ffffffffff600160a01b8204169282019290925262ffffff600160c81b8304811693820193909352600160e01b8204909216606083015260ff600160f81b90910416608082015290565b60405161022091905f60a08201905060018060a01b03835116825264ffffffffff602084015116602083015262ffffff604084015116604083015262ffffff606084015116606083015260ff608084015116608083015292915050565b34801561055b575f5ffd5b506102a061056a366004612865565b61116c565b34801561057a575f5ffd5b5061026961058936600461280b565b61118b565b348015610599575f5ffd5b506102a06105a83660046129cc565b611195565b3480156105b8575f5ffd5b506105cc6105c7366004612a4a565b6113f0565b604051908152602001610220565b3480156105e5575f5ffd5b506102a0611435565b3480156105f9575f5ffd5b506105cc60095481565b34801561060e575f5ffd5b506007546001600160a01b0316610269565b34801561062b575f5ffd5b5061023d611448565b34801561063f575f5ffd5b5061066761064e36600461280b565b600e6020525f908152604090205465ffffffffffff1681565b60405165ffffffffffff9091168152602001610220565b348015610689575f5ffd5b506105cc60085481565b34801561069e575f5ffd5b506102a06106ad366004612a63565b611457565b3480156106bd575f5ffd5b506106676106cc36600461280b565b5f908152600e602052604090205465ffffffffffff1690565b3480156106f0575f5ffd5b506107356106ff36600461280b565b600d6020525f90815260409020546001600160a01b03811690600160a01b810465ffffffffffff1690600160d01b900460ff1683565b604080516001600160a01b03909416845265ffffffffffff9092166020840152151590820152606001610220565b34801561076e575f5ffd5b506102a061077d366004612a9c565b611462565b34801561078d575f5ffd5b5061080161079c36600461280b565b60408051606080820183525f8083526020808401829052928401819052938452600d82529282902082519384018352546001600160a01b0381168452600160a01b810465ffffffffffff1691840191909152600160d01b900460ff1615159082015290565b6040805182516001600160a01b0316815260208084015165ffffffffffff169082015291810151151590820152606001610220565b6102a0610844366004612b13565b61147a565b348015610854575f5ffd5b5061023d61086336600461280b565b611792565b348015610873575f5ffd5b506105cc61088236600461280b565b600b6020525f908152604090205481565b34801561089e575f5ffd5b506102a06108ad366004612b43565b611813565b6102a06108c0366004612c04565b61195c565b3480156108d0575f5ffd5b506102146108df366004612ccf565b611d55565b3480156108ef575f5ffd5b506102a06108fe366004612a4a565b611d82565b5f6001600160e01b0319821663152a902d60e11b1480610927575061092782611dbc565b92915050565b60605f805461093b90612d00565b80601f016020809104026020016040519081016040528092919081815260200182805461096790612d00565b80156109b25780601f10610989576101008083540402835291602001916109b2565b820191905f5260205f20905b81548152906001019060200180831161099557829003601f168201915b5050505050905090565b5f6109c682611de0565b505f828152600460205260409020546001600160a01b0316610927565b6109ee828233611e18565b5050565b6109fa611e25565b5f818152600d6020908152604091829020825160608101845290546001600160a01b0381168252600160a01b810465ffffffffffff1692820192909252600160d01b90910460ff16151591810182905290610a8b5760405162461bcd60e51b815260206004820152600c60248201526b4e6f7420666f722073616c6560a01b60448201526064015b60405180910390fd5b5f828152600b6020908152604080832054808452600a90925290912080546001600160a01b0316610ace5760405162461bcd60e51b8152600401610a8290612d38565b80546001600160a01b03163303610af75760405162461bcd60e51b8152600401610a8290612d66565b6020830151610b129065ffffffffffff16633b9aca00612dc0565b3414610b305760405162461bcd60e51b8152600401610a8290612dd7565b82516001600160a01b0316610b448561118b565b6001600160a01b031614610b9a5760405162461bcd60e51b815260206004820152601c60248201527f53656c6c6572206e6f206c6f6e676572206f776e73207469636b6574000000006044820152606401610a82565b5f5f610ba68634610e37565b90925090505f610bb68234612e05565b5f888152600d60205260409020805460ff60d01b1916905590508115610c77575f836001600160a01b0316836040515f6040518083038185875af1925050503d805f8114610c1f576040519150601f19603f3d011682016040523d82523d5f602084013e610c24565b606091505b5050905080610c755760405162461bcd60e51b815260206004820152601760248201527f526f79616c7479207472616e73666572206661696c65640000000000000000006044820152606401610a82565b505b85516040515f916001600160a01b03169083908381818185875af1925050503d805f8114610cc0576040519150601f19603f3d011682016040523d82523d5f602084013e610cc5565b606091505b5050905080610d0f5760405162461bcd60e51b815260206004820152601660248201527514d95b1b195c881d1c985b9cd9995c8819985a5b195960521b6044820152606401610a82565b8651610d1c90338a611e40565b602087810180515f8b8152600e8452604090819020805465ffffffffffff191665ffffffffffff9384161790558a51925190519116815233926001600160a01b03909216918b917f4ae275d0457819946df214c8f4d79450d6b2a494e0117bc34f83df293270600d910160405180910390a450505050505050610dab60015f516020612ee95f395f51905f5255565b50565b6001600160a01b038216610dd757604051633250574960e11b81525f6004820152602401610a82565b5f610de3838333611eed565b9050836001600160a01b0316816001600160a01b031614610e31576040516364283d7b60e01b81526001600160a01b0380861660048301526024820184905282166044820152606401610a82565b50505050565b5f828152600b6020908152604080832054808452600a8352818420825160a08101845290546001600160a01b0381168252600160a01b810464ffffffffff1694820194909452600160c81b840462ffffff90811693820193909352600160e01b84049092166060830152600160f81b90920460ff1660808201819052839291908390606490610ec69088612dc0565b610ed09190612e18565b91519791965090945050505050565b5f818152600d602052604090208054600160d01b900460ff16610f385760405162461bcd60e51b81526020600482015260116024820152704e6f20616374697665206c697374696e6760781b6044820152606401610a82565b80546001600160a01b03163314610f825760405162461bcd60e51b815260206004820152600e60248201526d2737ba103a34329039b2b63632b960911b6044820152606401610a82565b805460ff60d01b1916815560405182907f411aee90354c51b1b04cd563fcab2617142a9d50da19232d888547c8a1b7fd8a905f90a25050565b5f838152600a6020526040902080546001600160a01b0316610fef5760405162461bcd60e51b8152600401610a8290612d38565b80546001600160a01b0316331461103c5760405162461bcd60e51b81526020600482015260116024820152702737ba103a34329037b933b0b734b9b2b960791b6044820152606401610a82565b805462ffffff600160e01b9091048116908416101561109d5760405162461bcd60e51b815260206004820152601c60248201527f43616e6e6f7420726564756365206d61782062656c6f7720736f6c64000000006044820152606401610a82565b5f8264ffffffffff16116110e75760405162461bcd60e51b815260206004820152601160248201527005072696365206d757374206265203e203607c1b6044820152606401610a82565b805467ffffffffffffffff60a01b1916600160c81b62ffffff851690810264ffffffffff60a01b191691909117600160a01b64ffffffffff851690810291909117835560408051928352602083019190915285917ff06987917567a624564ebaa367089a3c21b4da44a8a6aa4ba7a6152ff3f65372910160405180910390a250505050565b61118683838360405180602001604052805f815250611462565b505050565b5f61092782611de0565b5f8362ffffff16116111dd5760405162461bcd60e51b81526020600482015260116024820152704d7573742068617665207469636b65747360781b6044820152606401610a82565b5f84511161122d5760405162461bcd60e51b815260206004820152601960248201527f4950465320686173682063616e6e6f7420626520656d707479000000000000006044820152606401610a82565b5f8264ffffffffff16116112835760405162461bcd60e51b815260206004820152601f60248201527f5072696365206d7573742062652067726561746572207468616e207a65726f006044820152606401610a82565b60648160ff1611156112d75760405162461bcd60e51b815260206004820152601a60248201527f526f79616c74792063616e6e6f742065786365656420313030250000000000006044820152606401610a82565b600880546040805160a0810182523380825264ffffffffff878116602080850191825262ffffff8b81168688019081525f6060880181815260ff8d811660808b019081528c8452600a909652918a90209851895496519351915195516001600160a01b039091166001600160c81b031990971696909617600160a01b93909716929092029590951765ffffffffffff60c81b1916600160c81b9183169190910262ffffff60e01b191617600160e01b9290911691909102176001600160f81b0316600160f81b91909216021790915583546001019093555190919082907ffc695dea2478fb938a11068aeedddd7046a5fe655f136e30a325d353fe187a45906113e19089906127f9565b60405180910390a35050505050565b5f6001600160a01b03821661141a576040516322718ad960e21b81525f6004820152602401610a82565b506001600160a01b03165f9081526003602052604090205490565b61143d611fdf565b6114465f61200c565b565b60606001805461093b90612d00565b6109ee33838361205d565b61146d848484610dae565b610e313385858585612124565b611482611e25565b5f8262ffffff16116114cd5760405162461bcd60e51b815260206004820152601460248201527305175616e74697479206d757374206265203e20360641b6044820152606401610a82565b5f838152600a6020526040902080546001600160a01b03166115015760405162461bcd60e51b8152600401610a8290612d38565b805462ffffff600160c81b8204811691611524918691600160e01b900416612e37565b62ffffff1611156115775760405162461bcd60e51b815260206004820152601c60248201527f4e6f7420656e6f756768207469636b65747320617661696c61626c65000000006044820152606401610a82565b80546001600160a01b031633036115a05760405162461bcd60e51b8152600401610a8290612d66565b805462ffffff8416906115c590600160a01b900464ffffffffff16633b9aca00612dc0565b6115cf9190612dc0565b3410156115ee5760405162461bcd60e51b8152600401610a8290612dd7565b5f5b8362ffffff168110156116a95760095461160a338261224c565b5f818152600b60209081526040808320899055600c8252808320805460ff191660ff89169081179091558654600e8452938290208054600160a01b90950464ffffffffff1665ffffffffffff1990951694909417909355519182523391889184917f1532a8791902a65aebb0e34385d2b5325fb2f0ee5241c5faa75adcabdd367ca9910160405180910390a450600980546001908101909155016115f0565b50805483908290601c906116ca908490600160e01b900462ffffff16612e37565b825462ffffff9182166101009390930a92830291909202199091161790555080546040515f916001600160a01b03169034908381818185875af1925050503d805f8114611732576040519150601f19603f3d011682016040523d82523d5f602084013e611737565b606091505b505090508061177a5760405162461bcd60e51b815260206004820152600f60248201526e151c985b9cd9995c8819985a5b1959608a1b6044820152606401610a82565b505061118660015f516020612ee95f395f51905f5255565b606061179d82611de0565b505f6117b360408051602081019091525f815290565b90505f6117bf84612265565b905081515f036117d0579392505050565b8051156118025781816040516020016117ea929190612e69565b60405160208183030381529060405292505050919050565b61180b84612304565b949350505050565b3361181d8361118b565b6001600160a01b0316146118635760405162461bcd60e51b815260206004820152600d60248201526c2737ba103a34329037bbb732b960991b6044820152606401610a82565b5f8165ffffffffffff16116118ae5760405162461bcd60e51b815260206004820152601160248201527005072696365206d757374206265203e203607c1b6044820152606401610a82565b604080516060810182523380825265ffffffffffff848116602080850182815260018688019081525f8a8152600d845288902096518754925191511515600160d01b0260ff60d01b1992909616600160a01b026001600160d01b03199093166001600160a01b039091161791909117169290921790935592519182529184917f914be646fff955597a1203fc0af9377a4c3870daa8034fa293d61823b3456f6e910160405180910390a35050565b611964611e25565b80518251146119b55760405162461bcd60e51b815260206004820152601760248201527f4d69736d61746368656420696e707574206172726179730000000000000000006044820152606401610a82565b5f838152600a6020526040902080546001600160a01b03166119e95760405162461bcd60e51b8152600401610a8290612d38565b80546001600160a01b03163303611a125760405162461bcd60e51b8152600401610a8290612d66565b5f805b8351811015611a4d57838181518110611a3057611a30612e7d565b602002602001015182611a439190612e37565b9150600101611a15565b505f8162ffffff1611611a995760405162461bcd60e51b815260206004820152601460248201527305175616e74697479206d757374206265203e20360641b6044820152606401610a82565b815462ffffff600160c81b8204811691611abc918491600160e01b900416612e37565b62ffffff161115611b0f5760405162461bcd60e51b815260206004820152601c60248201527f4e6f7420656e6f756768207469636b65747320617661696c61626c65000000006044820152606401610a82565b815462ffffff821690611b3490600160a01b900464ffffffffff16633b9aca00612dc0565b611b3e9190612dc0565b341015611b5d5760405162461bcd60e51b8152600401610a8290612dd7565b5f5b8451811015611c6b575f848281518110611b7b57611b7b612e7d565b602002602001015190505f868381518110611b9857611b98612e7d565b602002602001015190505f5f90505b8262ffffff16811015611c6057600954611bc1338261224c565b5f818152600b602090815260408083208d9055600c8252808320805460ff191660ff88169081179091558a54600e8452938290208054600160a01b90950464ffffffffff1665ffffffffffff19909516949094179093555191825233918c9184917f1532a8791902a65aebb0e34385d2b5325fb2f0ee5241c5faa75adcabdd367ca9910160405180910390a45060098054600190810190915501611ba7565b505050600101611b5f565b50815481908390601c90611c8c908490600160e01b900462ffffff16612e37565b825462ffffff9182166101009390930a92830291909202199091161790555081546040515f916001600160a01b03169034908381818185875af1925050503d805f8114611cf4576040519150601f19603f3d011682016040523d82523d5f602084013e611cf9565b606091505b5050905080611d3c5760405162461bcd60e51b815260206004820152600f60248201526e151c985b9cd9995c8819985a5b1959608a1b6044820152606401610a82565b50505061118660015f516020612ee95f395f51905f5255565b6001600160a01b039182165f90815260056020908152604080832093909416825291909152205460ff1690565b611d8a611fdf565b6001600160a01b038116611db357604051631e4fbdf760e01b81525f6004820152602401610a82565b610dab8161200c565b5f6001600160e01b03198216632483248360e11b1480610927575061092782612375565b5f818152600260205260408120546001600160a01b03168061092757604051637e27328960e01b815260048101849052602401610a82565b61118683838360016123c4565b611e2d6124c8565b60025f516020612ee95f395f51905f5255565b6001600160a01b038216611e6957604051633250574960e11b81525f6004820152602401610a82565b5f611e7583835f611eed565b90506001600160a01b038116611ea157604051637e27328960e01b815260048101839052602401610a82565b836001600160a01b0316816001600160a01b031614610e31576040516364283d7b60e01b81526001600160a01b0380861660048301526024820184905282166044820152606401610a82565b5f828152600260205260408120546001600160a01b0390811690831615611f1957611f198184866124f7565b6001600160a01b03811615611f5357611f345f855f5f6123c4565b6001600160a01b0381165f90815260036020526040902080545f190190555b6001600160a01b03851615611f81576001600160a01b0385165f908152600360205260409020805460010190555b5f8481526002602052604080822080546001600160a01b0319166001600160a01b0389811691821790925591518793918516917fddf252ad1be2c89b69c2b068fc378daa952ba7f163c4a11628f55a4df523b3ef91a4949350505050565b6007546001600160a01b031633146114465760405163118cdaa760e01b8152336004820152602401610a82565b600780546001600160a01b038381166001600160a01b0319831681179093556040519116919082907f8be0079c531659141344cd1fd0a4f28419497f9722a3daafe3b4186f6b6457e0905f90a35050565b6001600160a01b0383166120865760405163a9fbf51f60e01b81525f6004820152602401610a82565b6001600160a01b0382166120b857604051630b61174360e31b81526001600160a01b0383166004820152602401610a82565b6001600160a01b038381165f81815260056020908152604080832094871680845294825291829020805460ff191686151590811790915591519182527f17307eab39ab6107e8899845ad3d59bd9653f200f220920489ca2b5937696c31910160405180910390a3505050565b6001600160a01b0383163b1561224557604051630a85bd0160e11b81526001600160a01b0384169063150b7a0290612166908890889087908790600401612e91565b6020604051808303815f875af19250505080156121a0575060408051601f3d908101601f1916820190925261219d91810190612ecd565b60015b612207573d8080156121cd576040519150601f19603f3d011682016040523d82523d5f602084013e6121d2565b606091505b5080515f036121ff57604051633250574960e11b81526001600160a01b0385166004820152602401610a82565b805160208201fd5b6001600160e01b03198116630a85bd0160e11b1461224357604051633250574960e11b81526001600160a01b0385166004820152602401610a82565b505b5050505050565b6109ee828260405180602001604052805f81525061255b565b5f81815260066020526040902080546060919061228190612d00565b80601f01602080910402602001604051908101604052809291908181526020018280546122ad90612d00565b80156122f85780601f106122cf576101008083540402835291602001916122f8565b820191905f5260205f20905b8154815290600101906020018083116122db57829003601f168201915b50505050509050919050565b606061230f82611de0565b505f61232560408051602081019091525f815290565b90505f8151116123435760405180602001604052805f81525061236e565b8061234d84612572565b60405160200161235e929190612e69565b6040516020818303038152906040525b9392505050565b5f6001600160e01b031982166380ac58cd60e01b14806123a557506001600160e01b03198216635b5e139f60e01b145b8061092757506301ffc9a760e01b6001600160e01b0319831614610927565b80806123d857506001600160a01b03821615155b15612499575f6123e784611de0565b90506001600160a01b038316158015906124135750826001600160a01b0316816001600160a01b031614155b801561242657506124248184611d55565b155b1561244f5760405163a9fbf51f60e01b81526001600160a01b0384166004820152602401610a82565b81156124975783856001600160a01b0316826001600160a01b03167f8c5be1e5ebec7d5bd14f71427d1e84f3dd0314c0f7b2291e5b200ac8c7c3b92560405160405180910390a45b505b50505f90815260046020526040902080546001600160a01b0319166001600160a01b0392909216919091179055565b5f516020612ee95f395f51905f525460020361144657604051633ee5aeb560e01b815260040160405180910390fd5b612502838383612602565b611186576001600160a01b03831661253057604051637e27328960e01b815260048101829052602401610a82565b60405163177e802f60e01b81526001600160a01b038316600482015260248101829052604401610a82565b6125658383612663565b611186335f858585612124565b60605f61257e836126c4565b60010190505f8167ffffffffffffffff81111561259d5761259d61291e565b6040519080825280601f01601f1916602001820160405280156125c7576020820181803683370190505b5090508181016020015b5f19016f181899199a1a9b1b9c1cb0b131b232b360811b600a86061a8153600a85049450846125d157509392505050565b5f6001600160a01b0383161580159061180b5750826001600160a01b0316846001600160a01b0316148061263b575061263b8484611d55565b8061180b5750505f908152600460205260409020546001600160a01b03908116911614919050565b6001600160a01b03821661268c57604051633250574960e11b81525f6004820152602401610a82565b5f61269883835f611eed565b90506001600160a01b03811615611186576040516339e3563760e11b81525f6004820152602401610a82565b5f8072184f03e93ff9f4daa797ed6e38ed64bf6a1f0160401b83106127025772184f03e93ff9f4daa797ed6e38ed64bf6a1f0160401b830492506040015b6d04ee2d6d415b85acef8100000000831061272e576d04ee2d6d415b85acef8100000000830492506020015b662386f26fc10000831061274c57662386f26fc10000830492506010015b6305f5e1008310612764576305f5e100830492506008015b612710831061277857612710830492506004015b6064831061278a576064830492506002015b600a83106109275760010192915050565b6001600160e01b031981168114610dab575f5ffd5b5f602082840312156127c0575f5ffd5b813561236e8161279b565b5f81518084528060208401602086015e5f602082860101526020601f19601f83011685010191505092915050565b602081525f61236e60208301846127cb565b5f6020828403121561281b575f5ffd5b5035919050565b80356001600160a01b0381168114612838575f5ffd5b919050565b5f5f6040838503121561284e575f5ffd5b61285783612822565b946020939093013593505050565b5f5f5f60608486031215612877575f5ffd5b61288084612822565b925061288e60208501612822565b929592945050506040919091013590565b5f5f604083850312156128b0575f5ffd5b50508035926020909101359150565b803562ffffff81168114612838575f5ffd5b803564ffffffffff81168114612838575f5ffd5b5f5f5f606084860312156128f7575f5ffd5b83359250612907602085016128bf565b9150612915604085016128d1565b90509250925092565b634e487b7160e01b5f52604160045260245ffd5b604051601f8201601f1916810167ffffffffffffffff8111828210171561295b5761295b61291e565b604052919050565b5f5f67ffffffffffffffff84111561297d5761297d61291e565b50601f8301601f191660200161299281612932565b9150508281528383830111156129a6575f5ffd5b828260208301375f602084830101529392505050565b803560ff81168114612838575f5ffd5b5f5f5f5f608085870312156129df575f5ffd5b843567ffffffffffffffff8111156129f5575f5ffd5b8501601f81018713612a05575f5ffd5b612a1487823560208401612963565b945050612a23602086016128bf565b9250612a31604086016128d1565b9150612a3f606086016129bc565b905092959194509250565b5f60208284031215612a5a575f5ffd5b61236e82612822565b5f5f60408385031215612a74575f5ffd5b612a7d83612822565b915060208301358015158114612a91575f5ffd5b809150509250929050565b5f5f5f5f60808587031215612aaf575f5ffd5b612ab885612822565b9350612ac660208601612822565b925060408501359150606085013567ffffffffffffffff811115612ae8575f5ffd5b8501601f81018713612af8575f5ffd5b612b0787823560208401612963565b91505092959194509250565b5f5f5f60608486031215612b25575f5ffd5b83359250612b35602085016128bf565b9150612915604085016129bc565b5f5f60408385031215612b54575f5ffd5b82359150602083013565ffffffffffff81168114612a91575f5ffd5b5f67ffffffffffffffff821115612b8957612b8961291e565b5060051b60200190565b5f82601f830112612ba2575f5ffd5b8135612bb5612bb082612b70565b612932565b8082825260208201915060208360051b860101925085831115612bd6575f5ffd5b602085015b83811015612bfa57612bec816128bf565b835260209283019201612bdb565b5095945050505050565b5f5f5f60608486031215612c16575f5ffd5b83359250602084013567ffffffffffffffff811115612c33575f5ffd5b8401601f81018613612c43575f5ffd5b8035612c51612bb082612b70565b8082825260208201915060208360051b850101925088831115612c72575f5ffd5b6020840193505b82841015612c9b57612c8a846129bc565b825260209384019390910190612c79565b9450505050604084013567ffffffffffffffff811115612cb9575f5ffd5b612cc586828701612b93565b9150509250925092565b5f5f60408385031215612ce0575f5ffd5b612ce983612822565b9150612cf760208401612822565b90509250929050565b600181811c90821680612d1457607f821691505b602082108103612d3257634e487b7160e01b5f52602260045260245ffd5b50919050565b602080825260149082015273115d995b9d08191bd95cc81b9bdd08195e1a5cdd60621b604082015260600190565b60208082526026908201527f4f7267616e697365722063616e6e6f7420627579207468656972206f776e207460408201526569636b65747360d01b606082015260800190565b634e487b7160e01b5f52601160045260245ffd5b808202811582820484141761092757610927612dac565b602080825260149082015273125b98dbdc9c9958dd0811551208185b5bdd5b9d60621b604082015260600190565b8181038181111561092757610927612dac565b5f82612e3257634e487b7160e01b5f52601260045260245ffd5b500490565b62ffffff818116838216019081111561092757610927612dac565b5f81518060208401855e5f93019283525090919050565b5f61180b612e778386612e52565b84612e52565b634e487b7160e01b5f52603260045260245ffd5b6001600160a01b03858116825284166020820152604081018390526080606082018190525f90612ec3908301846127cb565b9695505050505050565b5f60208284031215612edd575f5ffd5b815161236e8161279b56fe9b779b17422d0df92223018b32b4d1fa46e071723d6817e2486d003becc55f00a2646970667358221220c152d5988d2d8d1de3daaee35b8ae74ef0dc283f9b7c6b5b781dfbbc595c998864736f6c634300081c0033",
  "linkReferences": {},
  "deployedLinkReferences": {}
}